{
  "contractName": "Blockcontract",
  "abi": [
    {
      "inputs": [],
      "stateMutability": "nonpayable",
      "type": "constructor"
    },
    {
      "inputs": [],
      "name": "owner",
      "outputs": [
        {
          "internalType": "address",
          "name": "",
          "type": "address"
        }
      ],
      "stateMutability": "view",
      "type": "function",
      "constant": true
    },
    {
      "inputs": [
        {
          "internalType": "uint256",
          "name": "value",
          "type": "uint256"
        }
      ],
      "name": "calculateSHA256",
      "outputs": [
        {
          "internalType": "bytes32",
          "name": "",
          "type": "bytes32"
        }
      ],
      "stateMutability": "pure",
      "type": "function",
      "constant": true
    },
    {
      "inputs": [
        {
          "internalType": "uint256",
          "name": "_seed",
          "type": "uint256"
        }
      ],
      "name": "SaveBetInfo",
      "outputs": [
        {
          "internalType": "bool",
          "name": "result",
          "type": "bool"
        }
      ],
      "stateMutability": "nonpayable",
      "type": "function"
    },
    {
      "inputs": [],
      "name": "OpenWinner",
      "outputs": [
        {
          "internalType": "bytes32",
          "name": "",
          "type": "bytes32"
        },
        {
          "internalType": "bytes32",
          "name": "",
          "type": "bytes32"
        },
        {
          "internalType": "uint256",
          "name": "",
          "type": "uint256"
        }
      ],
      "stateMutability": "nonpayable",
      "type": "function"
    }
  ],
  "bytecode": "0x6080604052600060025534801561001557600080fd5b50336000806101000a81548173ffffffffffffffffffffffffffffffffffffffff021916908373ffffffffffffffffffffffffffffffffffffffff1602179055506108c5806100656000396000f3fe608060405234801561001057600080fd5b506004361061004c5760003560e01c806374244886146100515780638a673119146100815780638da5cb5b146100a1578063904fa3da146100bf575b600080fd5b61006b600480360381019061006691906104ec565b6100ef565b6040516100789190610626565b60405180910390f35b61008961019c565b6040516100989392919061065c565b60405180910390f35b6100a961028d565b6040516100b6919061060b565b60405180910390f35b6100d960048036038101906100d491906104ec565b6102b1565b6040516100e69190610641565b60405180910390f35b60006100f961046e565b438160000181815250506005816000015161011491906106da565b81602001818152505082816040018181525050610130836102b1565b81606001818152505080600160006002548152602001908152602001600020600082015181600001556020820151816001015560408201518160020155606082015181600301559050506002600081548092919061018d906107df565b91905055506001915050919050565b60008060008060025410156101e6576040517f08c379a00000000000000000000000000000000000000000000000000000000081526004016101dd90610693565b60405180910390fd5b6101ee61046e565b6001600060025481526020019081526020016000206040518060800160405290816000820154815260200160018201548152602001600282015481526020016003820154815250509050600081602001514090506000610252836060015183610329565b905061025f60025461042d565b5060026000815480929190610273906107b5565b919050555081836060015182955095509550505050909192565b60008054906101000a900473ffffffffffffffffffffffffffffffffffffffff1681565b60006002826040516020016102c691906105f0565b6040516020818303038152906040526040516102e291906105d9565b602060405180830381855afa1580156102ff573d6000803e3d6000fd5b5050506040513d601f19601f8201168201806040525081019061032291906104c3565b9050919050565b6000806000905060005b602081101561042257838160208110610375577f4e487b7100000000000000000000000000000000000000000000000000000000600052603260045260246000fd5b1a60f81b7effffffffffffffffffffffffffffffffffffffffffffffffffffffffffffff19168582602081106103d4577f4e487b7100000000000000000000000000000000000000000000000000000000600052603260045260246000fd5b1a60f81b7effffffffffffffffffffffffffffffffffffffffffffffffffffffffffffff1916141561040f57818061040b906107df565b9250505b808061041a906107df565b915050610333565b508091505092915050565b600060016000838152602001908152602001600020600080820160009055600182016000905560028201600090556003820160009055505060019050919050565b6040518060800160405280600081526020016000815260200160008152602001600080191681525090565b6000815190506104a881610861565b92915050565b6000813590506104bd81610878565b92915050565b6000602082840312156104d557600080fd5b60006104e384828501610499565b91505092915050565b6000602082840312156104fe57600080fd5b600061050c848285016104ae565b91505092915050565b61051e81610730565b82525050565b61052d81610742565b82525050565b61053c8161074e565b82525050565b600061054d826106b3565b61055781856106be565b9350610567818560208601610782565b80840191505092915050565b60006105806007836106c9565b91507f6e6f206265742e000000000000000000000000000000000000000000000000006000830152602082019050919050565b6105bc81610778565b82525050565b6105d36105ce82610778565b610828565b82525050565b60006105e58284610542565b915081905092915050565b60006105fc82846105c2565b60208201915081905092915050565b60006020820190506106206000830184610515565b92915050565b600060208201905061063b6000830184610524565b92915050565b60006020820190506106566000830184610533565b92915050565b60006060820190506106716000830186610533565b61067e6020830185610533565b61068b60408301846105b3565b949350505050565b600060208201905081810360008301526106ac81610573565b9050919050565b600081519050919050565b600081905092915050565b600082825260208201905092915050565b60006106e582610778565b91506106f083610778565b9250827fffffffffffffffffffffffffffffffffffffffffffffffffffffffffffffffff0382111561072557610724610832565b5b828201905092915050565b600061073b82610758565b9050919050565b60008115159050919050565b6000819050919050565b600073ffffffffffffffffffffffffffffffffffffffff82169050919050565b6000819050919050565b60005b838110156107a0578082015181840152602081019050610785565b838111156107af576000848401525b50505050565b60006107c082610778565b915060008214156107d4576107d3610832565b5b600182039050919050565b60006107ea82610778565b91507fffffffffffffffffffffffffffffffffffffffffffffffffffffffffffffffff82141561081d5761081c610832565b5b600182019050919050565b6000819050919050565b7f4e487b7100000000000000000000000000000000000000000000000000000000600052601160045260246000fd5b61086a8161074e565b811461087557600080fd5b50565b61088181610778565b811461088c57600080fd5b5056fea2646970667358221220529c80620adaa2df0b4ac6c487497d4ebb7754264967239f642904941a95ce2864736f6c63430008000033",
  "immutableReferences": {},
  "source": "// SPDX-License-Identifier: MIT\npragma solidity 0.8.0;\n\ncontract Blockcontract {\n\n    address public owner;\n\n    struct BetInfo {\n        uint256 curBlockNumber; //   \n        uint256 winBlockNumber; //    \n        uint256 seed; //     \n        bytes32 seedtobyte; //     \n    }\n\n    mapping (uint256 => BetInfo) private _bets;\n    uint256 private _index = 0;\n\n    constructor() public {\n        owner = msg.sender;\n    }\n\n    function calculateSHA256(uint256 value) public pure returns (bytes32) {\n        return bytes32(sha256(abi.encodePacked(value)));\n    }\n\n\n    //   \n    function SaveBetInfo(uint256 _seed) public returns (bool result) {\n        BetInfo memory newBet;\n        newBet.curBlockNumber = block.number;\n        newBet.winBlockNumber = newBet.curBlockNumber + 5;\n        newBet.seed = _seed;\n        newBet.seedtobyte = calculateSHA256(_seed);\n\n        _bets[_index] = newBet;\n        _index++;\n        return true;\n    }\n\n    function popInfo(uint256 index) internal returns (bool) {\n        delete _bets[index];\n        return true;\n    }\n\n\n    function compareBytes(bytes32 a, bytes32 b) internal pure returns (uint256) {\n        uint256 count = 0;\n        for (uint256 i = 0; i < 32; i++) {\n            if (a[i] == b[i]) {\n                count++;\n            }\n        }\n        return count;\n    }\n\n    function OpenWinner() public returns (bytes32, bytes32, uint256) {\n        require(_index >= 0, \"no bet.\"); //  \n\n        BetInfo memory b;\n        b = _bets[_index];\n        bytes32 answerHash = blockhash(b.winBlockNumber);\n        uint256 matchingDigits = compareBytes(b.seedtobyte, answerHash);\n        popInfo(_index);\n        _index--;\n        return (answerHash, b.seedtobyte, matchingDigits);\n    }\n\n}\n",
  "sourcePath": "/Users/sonar0/Programfile/1Q-On-the-Block/1Q-contract/contracts/Blockcontract.sol",
  "compiler": {
    "name": "solc",
    "version": "0.8.0+commit.c7dfd78e.Emscripten.clang"
  },
  "schemaVersion": "3.4.15",
  "updatedAt": "2023-08-15T15:46:11.574Z",
  "networkType": "ethereum",
  "devdoc": {
    "kind": "dev",
    "methods": {},
    "version": 1
  },
  "userdoc": {
    "kind": "user",
    "methods": {},
    "version": 1
  }
}