{
  "contractName": "Blockcontract",
  "abi": [
    {
      "inputs": [
        {
          "internalType": "uint256",
          "name": "_winBlockNumber",
          "type": "uint256"
        },
        {
          "internalType": "uint256",
          "name": "_seed",
          "type": "uint256"
        }
      ],
      "name": "SaveBetInfo",
      "outputs": [],
      "stateMutability": "nonpayable",
      "type": "function"
    },
    {
      "inputs": [
        {
          "components": [
            {
              "internalType": "uint256",
              "name": "curBlockNumber",
              "type": "uint256"
            },
            {
              "internalType": "uint256",
              "name": "winBlockNumber",
              "type": "uint256"
            },
            {
              "internalType": "address",
              "name": "bettor",
              "type": "address"
            },
            {
              "internalType": "uint256",
              "name": "seed",
              "type": "uint256"
            },
            {
              "internalType": "bytes32",
              "name": "seedtobyte",
              "type": "bytes32"
            }
          ],
          "internalType": "struct Blockcontract.BetInfo",
          "name": "newBet",
          "type": "tuple"
        }
      ],
      "name": "OpenWinner",
      "outputs": [
        {
          "internalType": "bytes32",
          "name": "",
          "type": "bytes32"
        },
        {
          "internalType": "bytes32",
          "name": "",
          "type": "bytes32"
        },
        {
          "internalType": "uint256",
          "name": "",
          "type": "uint256"
        }
      ],
      "stateMutability": "view",
      "type": "function",
      "constant": true
    }
  ],
  "bytecode": "0x608060405234801561001057600080fd5b50610783806100206000396000f3fe608060405234801561001057600080fd5b50600436106100365760003560e01c8063105ad7491461003b5780631f60714814610057575b600080fd5b61005560048036038101906100509190610436565b610089565b005b610071600480360381019061006c919061040d565b61010e565b6040516100809392919061050a565b60405180910390f35b6100916102c0565b43816000018181525050600581600001516100ac9190610588565b81602001818152505033816040019073ffffffffffffffffffffffffffffffffffffffff16908173ffffffffffffffffffffffffffffffffffffffff16815250508181606001818152505061010082610144565b816080018181525050505050565b6000806000808460200151409050600061012c8660800151836101bc565b90508186608001518294509450945050509193909250565b600060028260405160200161015991906104ef565b60405160208183030381529060405260405161017591906104d8565b602060405180830381855afa158015610192573d6000803e3d6000fd5b5050506040513d601f19601f820116820180604052508101906101b591906103e4565b9050919050565b6000806000905060005b60208110156102b557838160208110610208577f4e487b7100000000000000000000000000000000000000000000000000000000600052603260045260246000fd5b1a60f81b7effffffffffffffffffffffffffffffffffffffffffffffffffffffffffffff1916858260208110610267577f4e487b7100000000000000000000000000000000000000000000000000000000600052603260045260246000fd5b1a60f81b7effffffffffffffffffffffffffffffffffffffffffffffffffffffffffffff191614156102a257818061029e90610657565b9250505b80806102ad90610657565b9150506101c6565b508091505092915050565b6040518060a001604052806000815260200160008152602001600073ffffffffffffffffffffffffffffffffffffffff16815260200160008152602001600080191681525090565b60008135905061031781610708565b92915050565b60008135905061032c8161071f565b92915050565b6000815190506103418161071f565b92915050565b600060a0828403121561035957600080fd5b61036360a0610541565b90506000610373848285016103cf565b6000830152506020610387848285016103cf565b602083015250604061039b84828501610308565b60408301525060606103af848285016103cf565b60608301525060806103c38482850161031d565b60808301525092915050565b6000813590506103de81610736565b92915050565b6000602082840312156103f657600080fd5b600061040484828501610332565b91505092915050565b600060a0828403121561041f57600080fd5b600061042d84828501610347565b91505092915050565b6000806040838503121561044957600080fd5b6000610457858286016103cf565b9250506020610468858286016103cf565b9150509250929050565b61047b816105f0565b82525050565b600061048c82610572565b610496818561057d565b93506104a6818560208601610624565b80840191505092915050565b6104bb8161061a565b82525050565b6104d26104cd8261061a565b6106a0565b82525050565b60006104e48284610481565b915081905092915050565b60006104fb82846104c1565b60208201915081905092915050565b600060608201905061051f6000830186610472565b61052c6020830185610472565b61053960408301846104b2565b949350505050565b6000604051905081810181811067ffffffffffffffff82111715610568576105676106d9565b5b8060405250919050565b600081519050919050565b600081905092915050565b60006105938261061a565b915061059e8361061a565b9250827fffffffffffffffffffffffffffffffffffffffffffffffffffffffffffffffff038211156105d3576105d26106aa565b5b828201905092915050565b60006105e9826105fa565b9050919050565b6000819050919050565b600073ffffffffffffffffffffffffffffffffffffffff82169050919050565b6000819050919050565b60005b83811015610642578082015181840152602081019050610627565b83811115610651576000848401525b50505050565b60006106628261061a565b91507fffffffffffffffffffffffffffffffffffffffffffffffffffffffffffffffff821415610695576106946106aa565b5b600182019050919050565b6000819050919050565b7f4e487b7100000000000000000000000000000000000000000000000000000000600052601160045260246000fd5b7f4e487b7100000000000000000000000000000000000000000000000000000000600052604160045260246000fd5b610711816105de565b811461071c57600080fd5b50565b610728816105f0565b811461073357600080fd5b50565b61073f8161061a565b811461074a57600080fd5b5056fea2646970667358221220950a9c184f96ea84b48a1576d467fa73d543a51c317c3c78654e17d19cbf8bbd64736f6c63430008000033",
  "immutableReferences": {},
  "source": "// SPDX-License-Identifier: MIT\npragma solidity 0.8.0;\n\ncontract Blockcontract {\n\n    struct BetInfo {\n        uint256 curBlockNumber; //   \n        uint256 winBlockNumber; //    \n        address bettor; //  \n        uint256 seed; //     \n        bytes32 seedtobyte; //     \n    }\n\n    function calculateSHA256(uint256 value) internal pure returns (bytes32) {\n        return bytes32(sha256(abi.encodePacked(value)));\n    }\n\n    function SaveBetInfo(uint256 _winBlockNumber, uint256 _seed) public {\n        BetInfo memory newBet;\n        newBet.curBlockNumber = block.number;\n        newBet.winBlockNumber = newBet.curBlockNumber + 5;\n        newBet.bettor = msg.sender;\n        newBet.seed = _seed;\n        newBet.seedtobyte = calculateSHA256(_seed);\n    }\n\n    function compareBytes(bytes32 a, bytes32 b) internal pure returns (uint256) {\n        uint256 count = 0;\n        for (uint256 i = 0; i < 32; i++) {\n            if (a[i] == b[i]) {\n                count++;\n            }\n        }\n        return count;\n    }\n\n    function OpenWinner(BetInfo memory newBet) public view returns (bytes32, bytes32, uint256) {\n        bytes32 answerHash = blockhash(newBet.winBlockNumber);\n        uint256 matchingDigits = compareBytes(newBet.seedtobyte, answerHash);\n        return (answerHash, newBet.seedtobyte, matchingDigits);\n    }\n}\n",
  "sourcePath": "/Users/sonar0/Programfile/1Q-On-the-Block/1Q-contract/contracts/Blockcontract.sol",
  "compiler": {
    "name": "solc",
    "version": "0.8.0+commit.c7dfd78e.Emscripten.clang"
  },
  "schemaVersion": "3.4.15",
  "updatedAt": "2023-08-15T08:38:19.164Z",
  "networkType": "ethereum",
  "devdoc": {
    "kind": "dev",
    "methods": {},
    "version": 1
  },
  "userdoc": {
    "kind": "user",
    "methods": {},
    "version": 1
  }
}