{
  "contractName": "test",
  "abi": [
    {
      "inputs": [],
      "name": "amount",
      "outputs": [
        {
          "internalType": "uint256",
          "name": "",
          "type": "uint256"
        }
      ],
      "stateMutability": "view",
      "type": "function",
      "constant": true
    },
    {
      "inputs": [],
      "name": "balanceaccount",
      "outputs": [
        {
          "internalType": "address",
          "name": "",
          "type": "address"
        }
      ],
      "stateMutability": "view",
      "type": "function",
      "constant": true
    },
    {
      "inputs": [],
      "name": "recipient",
      "outputs": [
        {
          "internalType": "address",
          "name": "",
          "type": "address"
        }
      ],
      "stateMutability": "view",
      "type": "function",
      "constant": true
    },
    {
      "inputs": [],
      "name": "sender",
      "outputs": [
        {
          "internalType": "address",
          "name": "",
          "type": "address"
        }
      ],
      "stateMutability": "view",
      "type": "function",
      "constant": true
    },
    {
      "inputs": [],
      "name": "tokenAddress",
      "outputs": [
        {
          "internalType": "address",
          "name": "",
          "type": "address"
        }
      ],
      "stateMutability": "view",
      "type": "function",
      "constant": true
    },
    {
      "inputs": [],
      "name": "transferTokens",
      "outputs": [],
      "stateMutability": "nonpayable",
      "type": "function"
    },
    {
      "inputs": [],
      "name": "getSenderBalance",
      "outputs": [
        {
          "internalType": "uint256",
          "name": "",
          "type": "uint256"
        }
      ],
      "stateMutability": "view",
      "type": "function",
      "constant": true
    },
    {
      "inputs": [
        {
          "internalType": "uint256",
          "name": "_amount",
          "type": "uint256"
        }
      ],
      "name": "setAmount",
      "outputs": [],
      "stateMutability": "nonpayable",
      "type": "function"
    },
    {
      "inputs": [
        {
          "internalType": "address",
          "name": "_tokenAddress",
          "type": "address"
        }
      ],
      "name": "setTokenAddress",
      "outputs": [],
      "stateMutability": "nonpayable",
      "type": "function"
    },
    {
      "inputs": [
        {
          "internalType": "address",
          "name": "_sender",
          "type": "address"
        }
      ],
      "name": "setSender",
      "outputs": [],
      "stateMutability": "nonpayable",
      "type": "function"
    },
    {
      "inputs": [
        {
          "internalType": "address",
          "name": "_recipient",
          "type": "address"
        }
      ],
      "name": "setRecipient",
      "outputs": [],
      "stateMutability": "nonpayable",
      "type": "function"
    },
    {
      "inputs": [
        {
          "internalType": "address",
          "name": "_balanceaccount",
          "type": "address"
        }
      ],
      "name": "setbalanceaccount",
      "outputs": [],
      "stateMutability": "nonpayable",
      "type": "function"
    },
    {
      "inputs": [],
      "name": "getBalanceAccount",
      "outputs": [
        {
          "internalType": "uint256",
          "name": "",
          "type": "uint256"
        }
      ],
      "stateMutability": "view",
      "type": "function",
      "constant": true
    }
  ],
  "bytecode": "0x608060405273a9afd7a5fa75ac1cffebbcac3f1fa430280a6a876000806101000a81548173ffffffffffffffffffffffffffffffffffffffff021916908373ffffffffffffffffffffffffffffffffffffffff16021790555073e74b66fcd6d6d9d23474c24ea70ad71373cd5e79600460006101000a81548173ffffffffffffffffffffffffffffffffffffffff021916908373ffffffffffffffffffffffffffffffffffffffff1602179055503480156100b957600080fd5b50610b4c806100c96000396000f3fe608060405234801561001057600080fd5b50600436106100cf5760003560e01c80639d76ea581161008c578063ad35798b11610066578063ad35798b146101c8578063c97ecd8f146101e6578063ced32b0c14610202578063ff18253b1461021e576100cf565b80639d76ea581461016e578063aa8c217c1461018c578063abf038d0146101aa576100cf565b80631792b0bc146100d457806326a4e8d2146100de578063271f88b4146100fa5780633bbed4a01461011657806366d003ac1461013257806367e404ce14610150575b600080fd5b6100dc61023c565b005b6100f860048036038101906100f3919061080e565b610444565b005b610114600480360381019061010f9190610860565b610487565b005b610130600480360381019061012b919061080e565b6104a4565b005b61013a6104e8565b6040516101479190610950565b60405180910390f35b61015861050e565b6040516101659190610950565b60405180910390f35b610176610534565b6040516101839190610950565b60405180910390f35b610194610558565b6040516101a191906109d4565b60405180910390f35b6101b261055e565b6040516101bf91906109d4565b60405180910390f35b6101d0610635565b6040516101dd9190610950565b60405180910390f35b61020060048036038101906101fb919061080e565b61065b565b005b61021c6004803603810190610217919061080e565b61069f565b005b6102266106e3565b60405161023391906109d4565b60405180910390f35b60008060009054906101000a900473ffffffffffffffffffffffffffffffffffffffff1690506003548173ffffffffffffffffffffffffffffffffffffffff166370a08231600160009054906101000a900473ffffffffffffffffffffffffffffffffffffffff166040518263ffffffff1660e01b81526004016102c09190610950565b60206040518083038186803b1580156102d857600080fd5b505afa1580156102ec573d6000803e3d6000fd5b505050506040513d601f19601f820116820180604052508101906103109190610889565b1015610351576040517f08c379a000000000000000000000000000000000000000000000000000000000815260040161034890610994565b60405180910390fd5b8073ffffffffffffffffffffffffffffffffffffffff1663a9059cbb600260009054906101000a900473ffffffffffffffffffffffffffffffffffffffff166003546040518363ffffffff1660e01b81526004016103b092919061096b565b602060405180830381600087803b1580156103ca57600080fd5b505af11580156103de573d6000803e3d6000fd5b505050506040513d601f19601f820116820180604052508101906104029190610837565b610441576040517f08c379a0000000000000000000000000000000000000000000000000000000008152600401610438906109b4565b60405180910390fd5b50565b806000806101000a81548173ffffffffffffffffffffffffffffffffffffffff021916908373ffffffffffffffffffffffffffffffffffffffff16021790555050565b670de0b6b3a76400008161049b9190610a00565b60038190555050565b80600260006101000a81548173ffffffffffffffffffffffffffffffffffffffff021916908373ffffffffffffffffffffffffffffffffffffffff16021790555050565b600260009054906101000a900473ffffffffffffffffffffffffffffffffffffffff1681565b600160009054906101000a900473ffffffffffffffffffffffffffffffffffffffff1681565b60008054906101000a900473ffffffffffffffffffffffffffffffffffffffff1681565b60035481565b60008060008054906101000a900473ffffffffffffffffffffffffffffffffffffffff1690508073ffffffffffffffffffffffffffffffffffffffff166370a08231600460009054906101000a900473ffffffffffffffffffffffffffffffffffffffff166040518263ffffffff1660e01b81526004016105df9190610950565b60206040518083038186803b1580156105f757600080fd5b505afa15801561060b573d6000803e3d6000fd5b505050506040513d601f19601f8201168201806040525081019061062f9190610889565b91505090565b600460009054906101000a900473ffffffffffffffffffffffffffffffffffffffff1681565b80600460006101000a81548173ffffffffffffffffffffffffffffffffffffffff021916908373ffffffffffffffffffffffffffffffffffffffff16021790555050565b80600160006101000a81548173ffffffffffffffffffffffffffffffffffffffff021916908373ffffffffffffffffffffffffffffffffffffffff16021790555050565b60008060008054906101000a900473ffffffffffffffffffffffffffffffffffffffff1690508073ffffffffffffffffffffffffffffffffffffffff166370a08231600160009054906101000a900473ffffffffffffffffffffffffffffffffffffffff166040518263ffffffff1660e01b81526004016107649190610950565b60206040518083038186803b15801561077c57600080fd5b505afa158015610790573d6000803e3d6000fd5b505050506040513d601f19601f820116820180604052508101906107b49190610889565b91505090565b6000813590506107c981610ad1565b92915050565b6000815190506107de81610ae8565b92915050565b6000813590506107f381610aff565b92915050565b60008151905061080881610aff565b92915050565b60006020828403121561082057600080fd5b600061082e848285016107ba565b91505092915050565b60006020828403121561084957600080fd5b6000610857848285016107cf565b91505092915050565b60006020828403121561087257600080fd5b6000610880848285016107e4565b91505092915050565b60006020828403121561089b57600080fd5b60006108a9848285016107f9565b91505092915050565b6108bb81610a5a565b82525050565b60006108ce6005836109ef565b91507f6661696c310000000000000000000000000000000000000000000000000000006000830152602082019050919050565b600061090e6005836109ef565b91507f6661696c320000000000000000000000000000000000000000000000000000006000830152602082019050919050565b61094a81610a98565b82525050565b600060208201905061096560008301846108b2565b92915050565b600060408201905061098060008301856108b2565b61098d6020830184610941565b9392505050565b600060208201905081810360008301526109ad816108c1565b9050919050565b600060208201905081810360008301526109cd81610901565b9050919050565b60006020820190506109e96000830184610941565b92915050565b600082825260208201905092915050565b6000610a0b82610a98565b9150610a1683610a98565b9250817fffffffffffffffffffffffffffffffffffffffffffffffffffffffffffffffff0483118215151615610a4f57610a4e610aa2565b5b828202905092915050565b6000610a6582610a78565b9050919050565b60008115159050919050565b600073ffffffffffffffffffffffffffffffffffffffff82169050919050565b6000819050919050565b7f4e487b7100000000000000000000000000000000000000000000000000000000600052601160045260246000fd5b610ada81610a5a565b8114610ae557600080fd5b50565b610af181610a6c565b8114610afc57600080fd5b50565b610b0881610a98565b8114610b1357600080fd5b5056fea2646970667358221220c3c5e5eebafa8e3432946bda349949b55a2dbcbabf6ccae2fc1370cd5cab728864736f6c63430008000033",
  "immutableReferences": {},
  "source": "// SPDX-License-Identifier: MIT\r\npragma solidity ^0.8.0;\r\n\r\n// ERC20  \r\nimport \"@openzeppelin/contracts/token/ERC20/IERC20.sol\";\r\n\r\ncontract test {\r\n    // ERC20   \r\n    address public tokenAddress = 0xa9AFd7A5fA75Ac1CfFeBbCaC3f1Fa430280A6a87;\r\n    \r\n    //    \r\n    address public sender;\r\n    \r\n    //    \r\n    address public recipient;\r\n    \r\n    //   \r\n    uint256 public amount;\r\n\r\n    //   \r\n    address public balanceaccount = 0xE74B66fCD6d6D9d23474c24EA70Ad71373cD5E79;\r\n    \r\n    function transferTokens() external {\r\n        // ERC20     \r\n        IERC20 token = IERC20(tokenAddress);\r\n        require(token.balanceOf(sender) >= amount, \"fail1\");\r\n        require(token.transfer(recipient, amount), \"fail2\");\r\n    }\r\n    \r\n    function getSenderBalance() external view returns (uint256) {\r\n        // ERC20        \r\n        IERC20 token = IERC20(tokenAddress);\r\n        return token.balanceOf(sender);\r\n    }\r\n    \r\n    //   \r\n    function setAmount(uint256 _amount) external {\r\n        amount = _amount*(10**18);\r\n    }\r\n\r\n    //    \r\n    function setTokenAddress(address _tokenAddress) external  {\r\n        tokenAddress = _tokenAddress; \r\n    }\r\n\r\n    //    \r\n    function setSender(address _sender) external  {\r\n        sender = _sender;\r\n    }\r\n\r\n    //   \r\n    function setRecipient(address _recipient) external  {\r\n        recipient = _recipient;\r\n    }\r\n\r\n    //   \r\n    function setbalanceaccount(address _balanceaccount) external  {\r\n        balanceaccount = _balanceaccount;\r\n    }\r\n\r\n\r\n    //      \r\n    function getBalanceAccount() external view returns (uint256) {\r\n        // ERC20        \r\n        IERC20 token = IERC20(tokenAddress);\r\n        return token.balanceOf(balanceaccount);\r\n    }\r\n}",
  "sourcePath": "C:\\Users\\HanaTI\\Desktop\\Project\\1Q-On-the-Block\\1Q-contract\\contracts\\test.sol",
  "compiler": {
    "name": "solc",
    "version": "0.8.0+commit.c7dfd78e.Emscripten.clang"
  },
  "schemaVersion": "3.4.14",
  "updatedAt": "2023-08-24T01:49:04.748Z",
  "networkType": "ethereum",
  "devdoc": {
    "kind": "dev",
    "methods": {},
    "version": 1
  },
  "userdoc": {
    "kind": "user",
    "methods": {},
    "version": 1
  }
}