{
  "contractName": "TransferToken",
  "abi": [
    {
      "inputs": [],
      "name": "amount",
      "outputs": [
        {
          "internalType": "uint256",
          "name": "",
          "type": "uint256"
        }
      ],
      "stateMutability": "view",
      "type": "function",
      "constant": true
    },
    {
      "inputs": [],
      "name": "recipient",
      "outputs": [
        {
          "internalType": "address",
          "name": "",
          "type": "address"
        }
      ],
      "stateMutability": "view",
      "type": "function",
      "constant": true
    },
    {
      "inputs": [],
      "name": "tokenAddress",
      "outputs": [
        {
          "internalType": "address",
          "name": "",
          "type": "address"
        }
      ],
      "stateMutability": "view",
      "type": "function",
      "constant": true
    },
    {
      "inputs": [],
      "name": "transferTokens",
      "outputs": [],
      "stateMutability": "nonpayable",
      "type": "function"
    }
  ],
  "bytecode": "0x6080604052736299c1c93b03e255e06ab745c89a31f50ccd2ea16000806101000a81548173ffffffffffffffffffffffffffffffffffffffff021916908373ffffffffffffffffffffffffffffffffffffffff16021790555073e74b66fcd6d6d9d23474c24ea70ad71373cd5e79600160006101000a81548173ffffffffffffffffffffffffffffffffffffffff021916908373ffffffffffffffffffffffffffffffffffffffff160217905550670de0b6b3a764000060025560025460016100c891906100dd565b6003553480156100d757600080fd5b50610170565b60006100e882610137565b91506100f383610137565b9250817fffffffffffffffffffffffffffffffffffffffffffffffffffffffffffffffff048311821515161561012c5761012b610141565b5b828202905092915050565b6000819050919050565b7f4e487b7100000000000000000000000000000000000000000000000000000000600052601160045260246000fd5b6103308061017f6000396000f3fe608060405234801561001057600080fd5b506004361061004c5760003560e01c80631792b0bc1461005157806366d003ac1461005b5780639d76ea5814610079578063aa8c217c14610097575b600080fd5b6100596100b5565b005b610063610190565b604051610070919061023c565b60405180910390f35b6100816101b6565b60405161008e919061023c565b60405180910390f35b61009f6101da565b6040516100ac9190610280565b60405180910390f35b60008060009054906101000a900473ffffffffffffffffffffffffffffffffffffffff1690508073ffffffffffffffffffffffffffffffffffffffff1663a9059cbb600160009054906101000a900473ffffffffffffffffffffffffffffffffffffffff166003546040518363ffffffff1660e01b815260040161013a929190610257565b602060405180830381600087803b15801561015457600080fd5b505af1158015610168573d6000803e3d6000fd5b505050506040513d601f19601f8201168201806040525081019061018c91906101f5565b5050565b600160009054906101000a900473ffffffffffffffffffffffffffffffffffffffff1681565b60008054906101000a900473ffffffffffffffffffffffffffffffffffffffff1681565b60035481565b6000815190506101ef816102e3565b92915050565b60006020828403121561020757600080fd5b6000610215848285016101e0565b91505092915050565b6102278161029b565b82525050565b610236816102d9565b82525050565b6000602082019050610251600083018461021e565b92915050565b600060408201905061026c600083018561021e565b610279602083018461022d565b9392505050565b6000602082019050610295600083018461022d565b92915050565b60006102a6826102b9565b9050919050565b60008115159050919050565b600073ffffffffffffffffffffffffffffffffffffffff82169050919050565b6000819050919050565b6102ec816102ad565b81146102f757600080fd5b5056fea2646970667358221220b1e7bb0755d9304835005600abe83a598a9bc5c7e6559ce2660291920f0abd3a64736f6c63430008000033",
  "immutableReferences": {},
  "source": "// SPDX-License-Identifier: MIT\r\npragma solidity ^0.8.0;\r\n\r\n// ERC20  \r\n// npm install @openzeppelin/contracts\r\nimport \"@openzeppelin/contracts/token/ERC20/IERC20.sol\";\r\n\r\ncontract TransferToken {\r\n    // ERC20   \r\n    address public tokenAddress = 0x6299C1C93B03e255E06Ab745C89a31f50ccD2EA1;\r\n    \r\n    //    \r\n    address public recipient = 0xE74B66fCD6d6D9d23474c24EA70Ad71373cD5E79;\r\n    \r\n    uint256 eth = 10**18;\r\n    //   \r\n    uint256 public amount = 1*eth;\r\n    \r\n    function transferTokens() public {\r\n        // ERC20     \r\n        IERC20 token = IERC20(tokenAddress);\r\n        token.transfer(recipient, amount);\r\n    }\r\n\r\n}",
  "sourcePath": "C:\\Users\\HanaTI\\Desktop\\Project\\1Q-On-the-Block\\1Q-contract\\contracts\\TransferToken.sol",
  "compiler": {
    "name": "solc",
    "version": "0.8.0+commit.c7dfd78e.Emscripten.clang"
  },
  "schemaVersion": "3.4.14",
  "updatedAt": "2023-08-24T01:49:01.434Z",
  "networkType": "ethereum",
  "devdoc": {
    "kind": "dev",
    "methods": {},
    "version": 1
  },
  "userdoc": {
    "kind": "user",
    "methods": {},
    "version": 1
  }
}