{
  "contractName": "Blockcontract",
  "abi": [
    {
      "inputs": [],
      "stateMutability": "nonpayable",
      "type": "constructor"
    },
    {
      "inputs": [],
      "name": "_seed",
      "outputs": [
        {
          "internalType": "uint256",
          "name": "",
          "type": "uint256"
        }
      ],
      "stateMutability": "view",
      "type": "function",
      "constant": true
    },
    {
      "inputs": [
        {
          "internalType": "uint256",
          "name": "",
          "type": "uint256"
        }
      ],
      "name": "applicant",
      "outputs": [
        {
          "internalType": "address",
          "name": "",
          "type": "address"
        }
      ],
      "stateMutability": "view",
      "type": "function",
      "constant": true
    },
    {
      "inputs": [],
      "name": "owner",
      "outputs": [
        {
          "internalType": "address",
          "name": "",
          "type": "address"
        }
      ],
      "stateMutability": "view",
      "type": "function",
      "constant": true
    },
    {
      "inputs": [
        {
          "internalType": "uint256",
          "name": "",
          "type": "uint256"
        }
      ],
      "name": "randNumList",
      "outputs": [
        {
          "internalType": "uint256",
          "name": "",
          "type": "uint256"
        }
      ],
      "stateMutability": "view",
      "type": "function",
      "constant": true
    },
    {
      "inputs": [
        {
          "internalType": "uint256",
          "name": "nonce",
          "type": "uint256"
        }
      ],
      "name": "application",
      "outputs": [],
      "stateMutability": "nonpayable",
      "type": "function"
    },
    {
      "inputs": [],
      "name": "getSeed",
      "outputs": [
        {
          "internalType": "uint256",
          "name": "",
          "type": "uint256"
        }
      ],
      "stateMutability": "view",
      "type": "function",
      "constant": true
    },
    {
      "inputs": [],
      "name": "deleteApl",
      "outputs": [],
      "stateMutability": "nonpayable",
      "type": "function"
    },
    {
      "inputs": [],
      "name": "deleteRanList",
      "outputs": [],
      "stateMutability": "nonpayable",
      "type": "function"
    },
    {
      "inputs": [],
      "name": "deleteNonceList",
      "outputs": [],
      "stateMutability": "nonpayable",
      "type": "function"
    },
    {
      "inputs": [],
      "name": "setBlockInfo",
      "outputs": [],
      "stateMutability": "nonpayable",
      "type": "function"
    },
    {
      "inputs": [
        {
          "internalType": "uint256",
          "name": "num",
          "type": "uint256"
        }
      ],
      "name": "generateRandNum",
      "outputs": [],
      "stateMutability": "nonpayable",
      "type": "function"
    },
    {
      "inputs": [],
      "name": "getrandlist",
      "outputs": [
        {
          "internalType": "uint256[]",
          "name": "",
          "type": "uint256[]"
        }
      ],
      "stateMutability": "view",
      "type": "function",
      "constant": true
    },
    {
      "inputs": [],
      "name": "getNonce",
      "outputs": [
        {
          "internalType": "uint256[]",
          "name": "",
          "type": "uint256[]"
        }
      ],
      "stateMutability": "view",
      "type": "function",
      "constant": true
    },
    {
      "inputs": [],
      "name": "getFutureHash",
      "outputs": [
        {
          "internalType": "bytes32",
          "name": "",
          "type": "bytes32"
        }
      ],
      "stateMutability": "nonpayable",
      "type": "function"
    }
  ],
  "bytecode": "0x6080604052600060025534801561001557600080fd5b50336000806101000a81548173ffffffffffffffffffffffffffffffffffffffff021916908373ffffffffffffffffffffffffffffffffffffffff160217905550610d85806100656000396000f3fe608060405234801561001057600080fd5b50600436106100ea5760003560e01c8063778574be1161008c5780638da5cb5b116100665780638da5cb5b146101ff578063cc6233311461021d578063d087d28814610227578063f1ae282b14610245576100ea565b8063778574be146101835780637a301cc3146101b35780637e30a6f0146101cf576100ea565b80634b1a3f32116100c85780634b1a3f32146101335780634cdb3fd8146101515780635a34d3561461015b5780636a64c9ef14610179576100ea565b80630c72c3a1146100ef5780632c6a7fb1146100f957806339e7357c14610115575b600080fd5b6100f7610263565b005b610113600480360381019061010e919061089d565b610294565b005b61011d610482565b60405161012a9190610b21565b60405180910390f35b61013b61048c565b6040516101489190610aa4565b60405180910390f35b6101596104e4565b005b61016361055e565b6040516101709190610b21565b60405180910390f35b610181610564565b005b61019d6004803603810190610198919061089d565b6105de565b6040516101aa9190610b21565b60405180910390f35b6101cd60048036038101906101c8919061089d565b610602565b005b6101e960048036038101906101e4919061089d565b6106a9565b6040516101f69190610a89565b60405180910390f35b6102076106e8565b6040516102149190610a89565b60405180910390f35b61022561070c565b005b61022f6107a4565b60405161023c9190610aa4565b60405180910390f35b61024d6107fc565b60405161025a9190610ac6565b60405180910390f35b6000439050600580826102769190610ca9565b826102819190610b86565b61028b9190610b86565b60058190555050565b6000600254116102d9576040517f08c379a00000000000000000000000000000000000000000000000000000000081526004016102d090610b01565b60405180910390fd5b806002541161031d576040517f08c379a000000000000000000000000000000000000000000000000000000000815260040161031490610ae1565b60405180910390fd5b600554406006819055506000806000905060005b8381101561047c576000600254426006546003868154811061037c577f4e487b7100000000000000000000000000000000000000000000000000000000600052603260045260246000fd5b906000526020600020015460405160200161039993929190610a4c565b6040516020818303038152906040528051906020012060001c6103bc9190610ca9565b9050610418600480548060200260200160405190810160405280929190818152602001828054801561040d57602002820191906000526020600020905b8154815260200190600101908083116103f9575b505050505082610806565b1561043057818061042890610c22565b92505061045a565b60048190806001815401808255809150506001900390600052602060002001600090919091909150555b828061046590610c4c565b93505050808061047490610c4c565b915050610331565b50505050565b6000600254905090565b606060048054806020026020016040519081016040528092919081815260200182805480156104da57602002820191906000526020600020905b8154815260200190600101908083116104c6575b5050505050905090565b6000600480549050905060005b8181101561055a576004805480610531577f4e487b7100000000000000000000000000000000000000000000000000000000600052603160045260246000fd5b60019003818190600052602060002001600090559055808061055290610c4c565b9150506104f1565b5050565b60025481565b6000600380549050905060005b818110156105da5760038054806105b1577f4e487b7100000000000000000000000000000000000000000000000000000000600052603160045260246000fd5b6001900381819060005260206000200160009055905580806105d290610c4c565b915050610571565b5050565b600481815481106105ee57600080fd5b906000526020600020016000915090505481565b6001339080600181540180825580915050600190039060005260206000200160009091909190916101000a81548173ffffffffffffffffffffffffffffffffffffffff021916908373ffffffffffffffffffffffffffffffffffffffff1602179055506002600081548092919061067890610c4c565b9190505550600381908060018154018082558091505060019003906000526020600020016000909190919091505550565b600181815481106106b957600080fd5b906000526020600020016000915054906101000a900473ffffffffffffffffffffffffffffffffffffffff1681565b60008054906101000a900473ffffffffffffffffffffffffffffffffffffffff1681565b60005b600254811015610799576001805480610751577f4e487b7100000000000000000000000000000000000000000000000000000000600052603160045260246000fd5b6001900381819060005260206000200160006101000a81549073ffffffffffffffffffffffffffffffffffffffff02191690559055808061079190610c4c565b91505061070f565b506000600281905550565b606060038054806020026020016040519081016040528092919081815260200182805480156107f257602002820191906000526020600020905b8154815260200190600101908083116107de575b5050505050905090565b6000600654905090565b600080600090505b835181101561087c5782848281518110610851577f4e487b7100000000000000000000000000000000000000000000000000000000600052603260045260246000fd5b60200260200101511415610869576001915050610882565b808061087490610c4c565b91505061080e565b50600090505b92915050565b60008135905061089781610d38565b92915050565b6000602082840312156108af57600080fd5b60006108bd84828501610888565b91505092915050565b60006108d28383610a17565b60208301905092915050565b6108e781610bdc565b82525050565b60006108f882610b4c565b6109028185610b64565b935061090d83610b3c565b8060005b8381101561093e57815161092588826108c6565b975061093083610b57565b925050600181019050610911565b5085935050505092915050565b61095481610bee565b82525050565b61096b61096682610bee565b610c95565b82525050565b600061097e601983610b75565b91507f416c6c206170706c6963616e7473206172652077696e6e6572000000000000006000830152602082019050919050565b60006109be602a83610b75565b91507f6e6f206170706c6963616e742e2063616e27742067656e65726174652072616e60008301527f646f6d204e756d626572000000000000000000000000000000000000000000006020830152604082019050919050565b610a2081610c18565b82525050565b610a2f81610c18565b82525050565b610a46610a4182610c18565b610c9f565b82525050565b6000610a588286610a35565b602082019150610a68828561095a565b602082019150610a788284610a35565b602082019150819050949350505050565b6000602082019050610a9e60008301846108de565b92915050565b60006020820190508181036000830152610abe81846108ed565b905092915050565b6000602082019050610adb600083018461094b565b92915050565b60006020820190508181036000830152610afa81610971565b9050919050565b60006020820190508181036000830152610b1a816109b1565b9050919050565b6000602082019050610b366000830184610a26565b92915050565b6000819050602082019050919050565b600081519050919050565b6000602082019050919050565b600082825260208201905092915050565b600082825260208201905092915050565b6000610b9182610c18565b9150610b9c83610c18565b9250827fffffffffffffffffffffffffffffffffffffffffffffffffffffffffffffffff03821115610bd157610bd0610cda565b5b828201905092915050565b6000610be782610bf8565b9050919050565b6000819050919050565b600073ffffffffffffffffffffffffffffffffffffffff82169050919050565b6000819050919050565b6000610c2d82610c18565b91506000821415610c4157610c40610cda565b5b600182039050919050565b6000610c5782610c18565b91507fffffffffffffffffffffffffffffffffffffffffffffffffffffffffffffffff821415610c8a57610c89610cda565b5b600182019050919050565b6000819050919050565b6000819050919050565b6000610cb482610c18565b9150610cbf83610c18565b925082610ccf57610cce610d09565b5b828206905092915050565b7f4e487b7100000000000000000000000000000000000000000000000000000000600052601160045260246000fd5b7f4e487b7100000000000000000000000000000000000000000000000000000000600052601260045260246000fd5b610d4181610c18565b8114610d4c57600080fd5b5056fea26469706673582212203a3ce1fb4feb960d31f425d1e433e0b6154594d56d62094a3a6314df6e6730b164736f6c63430008000033",
  "immutableReferences": {},
  "source": "// SPDX-License-Identifier: MIT\r\npragma solidity 0.8.0;\r\n\r\ncontract Blockcontract {\r\n\r\n    constructor() public {\r\n        owner = msg.sender;\r\n    }\r\n\r\n    //  \r\n    address public owner;\r\n   \r\n    address[] public applicant; //   (index = _seed)\r\n    uint256 public _seed = 0; //   (  )\r\n\r\n    uint256[] private nonceList; //    \r\n    uint256[] public randNumList; //    ( ) \r\n\r\n    //   \r\n    uint256 futureBlockNum;\r\n    bytes32 futureBlockHash;\r\n\r\n    \r\n\r\n    // \r\n    function application(uint256 nonce) public {\r\n        applicant.push(msg.sender);\r\n        _seed++;\r\n        nonceList.push(nonce);\r\n    }\r\n\r\n\r\n    //   \r\n    function getSeed() public view returns (uint256) {\r\n        return _seed;\r\n    }\r\n\r\n    //   \r\n    function deleteApl() public {\r\n        for (uint256 i = 0; i < _seed; i++) {\r\n            applicant.pop();\r\n        }\r\n        _seed = 0;\r\n    }\r\n\r\n    //    \r\n    function deleteRanList() public {\r\n        uint256 _Loop = randNumList.length;\r\n        for (uint256 i = 0; i < _Loop ; i++) {\r\n            randNumList.pop();\r\n        }\r\n    }\r\n\r\n    //    \r\n    function deleteNonceList() public {\r\n        uint256 _Loop = nonceList.length;\r\n        for (uint256 i = 0; i < _Loop ; i++) {\r\n            nonceList.pop();\r\n        }\r\n    }\r\n\r\n    function resetUintList(uint256[] storage tempArray) private {\r\n        uint256 len = tempArray.length;\r\n        for (uint256 i = 0; i < len ; i++) {\r\n            tempArray.pop();\r\n        }\r\n    }\r\n\r\n    function resetAddrList(address[] storage tempArray) private {\r\n        uint256 len = tempArray.length;\r\n        for (uint256 i = 0; i < len ; i++) {\r\n            tempArray.pop();\r\n        }\r\n    }\r\n\r\n\r\n    //   \r\n    function setBlockInfo() public{\r\n        uint256 curBlockNum = block.number;\r\n        futureBlockNum = curBlockNum + (curBlockNum % 5) + 5;\r\n    }\r\n\r\n\r\n    function inArray(uint256[] memory tempArray ,uint256 value) private returns(bool){\r\n        for (uint256 i = 0 ; i < tempArray.length ; i++) {\r\n            if(tempArray[i] == value) {\r\n                return true;\r\n            }\r\n        }\r\n        return false;\r\n    }\r\n\r\n\r\n    //     \r\n    function generateRandNum(uint256 num) public{\r\n        if (_seed <= 0) { //     \r\n            revert(\"no applicant. can't generate random Number\");\r\n        }\r\n        else if (_seed <= num) { //        \r\n            revert(\"All applicants are winner\");\r\n        }\r\n\r\n        //    \r\n        futureBlockHash = blockhash(futureBlockNum);\r\n\r\n        uint256 j;\r\n        uint256 cnt = 0;\r\n\r\n        // num   \r\n        for (uint256 i = 0; i < num; i++) {\r\n            //  \r\n            uint256 randNum = uint256(keccak256(abi.encodePacked(block.timestamp, futureBlockHash, nonceList[cnt] ))) % _seed;\r\n            //      x\r\n            if(inArray(randNumList,randNum)) {\r\n                i--;\r\n            }\r\n            else {\r\n                randNumList.push(randNum);\r\n            }\r\n            cnt++;\r\n        }\r\n\r\n\r\n    }\r\n\r\n    function getrandlist() public view returns(uint256[] memory) {\r\n        return randNumList;\r\n\r\n    }\r\n\r\n    function getNonce() public view returns(uint256[] memory) {\r\n        return nonceList;\r\n\r\n    }\r\n\r\n    // function getBlockInfo() public view returns (uint256[] memory){\r\n    //     uint256[] memory blockInfo = new uint256[](2);\r\n    //     blockInfo[0] = curBlockNum;\r\n    //     blockInfo[1] = futureBlockNum;\r\n    //     return blockInfo;\r\n    // }\r\n\r\n    function getFutureHash() public returns(bytes32){\r\n        return futureBlockHash;\r\n    }\r\n\r\n}\r\n",
  "sourcePath": "C:\\Users\\HanaTI\\Desktop\\Project\\1Q-On-the-Block\\1Q-contract-ver2\\contracts\\Blockcontract.sol",
  "compiler": {
    "name": "solc",
    "version": "0.8.0+commit.c7dfd78e.Emscripten.clang"
  },
  "schemaVersion": "3.4.14",
  "updatedAt": "2023-08-22T06:18:16.123Z",
  "networkType": "ethereum",
  "devdoc": {
    "kind": "dev",
    "methods": {},
    "version": 1
  },
  "userdoc": {
    "kind": "user",
    "methods": {},
    "version": 1
  }
}