{
  "contractName": "Blockcontract",
  "abi": [
    {
      "inputs": [],
      "stateMutability": "nonpayable",
      "type": "constructor"
    },
    {
      "inputs": [
        {
          "internalType": "uint256",
          "name": "",
          "type": "uint256"
        }
      ],
      "name": "applicant",
      "outputs": [
        {
          "internalType": "address",
          "name": "",
          "type": "address"
        }
      ],
      "stateMutability": "view",
      "type": "function"
    },
    {
      "inputs": [],
      "name": "owner",
      "outputs": [
        {
          "internalType": "address",
          "name": "",
          "type": "address"
        }
      ],
      "stateMutability": "view",
      "type": "function"
    },
    {
      "inputs": [],
      "name": "application",
      "outputs": [],
      "stateMutability": "nonpayable",
      "type": "function"
    },
    {
      "inputs": [
        {
          "internalType": "uint256",
          "name": "seed",
          "type": "uint256"
        }
      ],
      "name": "getInfo",
      "outputs": [
        {
          "internalType": "address",
          "name": "",
          "type": "address"
        }
      ],
      "stateMutability": "view",
      "type": "function"
    },
    {
      "inputs": [],
      "name": "deleteApl",
      "outputs": [],
      "stateMutability": "nonpayable",
      "type": "function"
    },
    {
      "inputs": [],
      "name": "draw",
      "outputs": [],
      "stateMutability": "nonpayable",
      "type": "function"
    }
  ],
  "bytecode": "0x60806040526001600255600060035534801561001a57600080fd5b50336000806101000a81548173ffffffffffffffffffffffffffffffffffffffff021916908373ffffffffffffffffffffffffffffffffffffffff1602179055506105a88061006a6000396000f3fe608060405234801561001057600080fd5b50600436106100625760003560e01c80630eecae21146100675780631a3cd59a1461007157806326e4ca82146100a15780637e30a6f0146100ab5780638da5cb5b146100db578063cc623331146100f9575b600080fd5b61006f610103565b005b61008b600480360381019061008691906102e7565b61016b565b604051610098919061039b565b60405180910390f35b6100a96101a8565b005b6100c560048036038101906100c091906102e7565b610216565b6040516100d2919061039b565b60405180910390f35b6100e3610249565b6040516100f0919061039b565b60405180910390f35b61010161026d565b005b600043905060006005808361011891906104bf565b8361012391906103b6565b61012d91906103b6565b9050423360035483604051602001610148949392919061034d565b6040516020818303038152906040528051906020012060001c6004819055505050565b60006001600083815260200190815260200160002060009054906101000a900473ffffffffffffffffffffffffffffffffffffffff169050919050565b3360016000600254815260200190815260200160002060006101000a81548173ffffffffffffffffffffffffffffffffffffffff021916908373ffffffffffffffffffffffffffffffffffffffff1602179055506002600081548092919061020f90610448565b9190505550565b60016020528060005260406000206000915054906101000a900473ffffffffffffffffffffffffffffffffffffffff1681565b60008054906101000a900473ffffffffffffffffffffffffffffffffffffffff1681565b6000600190505b6002548110156102c7576001600082815260200190815260200160002060006101000a81549073ffffffffffffffffffffffffffffffffffffffff021916905580806102bf90610448565b915050610274565b506001600281905550565b6000813590506102e18161055b565b92915050565b6000602082840312156102f957600080fd5b6000610307848285016102d2565b91505092915050565b6103198161040c565b82525050565b61033061032b8261040c565b610491565b82525050565b6103476103428261043e565b6104b5565b82525050565b60006103598287610336565b602082019150610369828661031f565b6014820191506103798285610336565b6020820191506103898284610336565b60208201915081905095945050505050565b60006020820190506103b06000830184610310565b92915050565b60006103c18261043e565b91506103cc8361043e565b9250827fffffffffffffffffffffffffffffffffffffffffffffffffffffffffffffffff03821115610401576104006104f0565b5b828201905092915050565b60006104178261041e565b9050919050565b600073ffffffffffffffffffffffffffffffffffffffff82169050919050565b6000819050919050565b60006104538261043e565b91507fffffffffffffffffffffffffffffffffffffffffffffffffffffffffffffffff821415610486576104856104f0565b5b600182019050919050565b600061049c826104a3565b9050919050565b60006104ae8261054e565b9050919050565b6000819050919050565b60006104ca8261043e565b91506104d58361043e565b9250826104e5576104e461051f565b5b828206905092915050565b7f4e487b7100000000000000000000000000000000000000000000000000000000600052601160045260246000fd5b7f4e487b7100000000000000000000000000000000000000000000000000000000600052601260045260246000fd5b60008160601b9050919050565b6105648161043e565b811461056f57600080fd5b5056fea26469706673582212205aa3e6d556841061912cc74da1b24641dbfa0157847fa015dde850a18c23046e64736f6c63430008000033",
  "immutableReferences": {},
  "source": "// SPDX-License-Identifier: MIT\r\npragma solidity 0.8.0;\r\n\r\ncontract Blockcontract {\r\n\r\n    constructor() public {\r\n        owner = msg.sender;\r\n    }\r\n\r\n    address public owner;\r\n    //uint256 private curBlockNum; //       \r\n    //uint256 private futureBlockNum; //    =     + uint(curBlockNum) % 5\r\n\r\n    mapping (uint256 => address) public applicant; //    (  :  )\r\n    uint256 private _seed = 1; //   (  )\r\n\r\n    uint256 private randNonce = 0;\r\n    uint256 private randNum;\r\n\r\n    function application() public { // \r\n        applicant[_seed] = msg.sender;\r\n        _seed++;\r\n    }\r\n\r\n    function getInfo(uint256 seed) public view returns (address) {\r\n        return applicant[seed];\r\n    }\r\n\r\n    function deleteApl() public {\r\n        for (uint256 i = 1; i < _seed; i++) {\r\n            delete applicant[i];\r\n        }\r\n        _seed = 1;\r\n    }\r\n\r\n\r\n    //   \r\n    function draw() public{\r\n        uint256 curBlockNum = block.number;\r\n        uint256 futureBlockNum = curBlockNum + curBlockNum % 5 + 5;\r\n        randNum = uint256(keccak256(abi.encodePacked(block.timestamp,msg.sender,randNonce,futureBlockNum)));\r\n    }\r\n\r\n    // function confirmWin() public {\r\n\r\n    // }\r\n}\r\n",
  "sourcePath": "C:\\Users\\HanaTI\\Desktop\\Project\\1Q-On-the-Block\\1Q-contract\\contracts\\Blockcontract.sol",
  "compiler": {
    "name": "solc",
    "version": "0.8.0+commit.c7dfd78e.Emscripten.clang"
  },
  "schemaVersion": "3.4.14",
  "updatedAt": "2023-08-18T08:07:29.845Z",
  "devdoc": {
    "kind": "dev",
    "methods": {},
    "version": 1
  },
  "userdoc": {
    "kind": "user",
    "methods": {},
    "version": 1
  }
}