{
  "contractName": "Blockcontract",
  "abi": [
    {
      "inputs": [],
      "stateMutability": "nonpayable",
      "type": "constructor"
    },
    {
      "inputs": [],
      "name": "_seed",
      "outputs": [
        {
          "internalType": "uint256",
          "name": "",
          "type": "uint256"
        }
      ],
      "stateMutability": "view",
      "type": "function",
      "constant": true
    },
    {
      "inputs": [
        {
          "internalType": "uint256",
          "name": "",
          "type": "uint256"
        }
      ],
      "name": "applicant",
      "outputs": [
        {
          "internalType": "address",
          "name": "",
          "type": "address"
        }
      ],
      "stateMutability": "view",
      "type": "function",
      "constant": true
    },
    {
      "inputs": [],
      "name": "owner",
      "outputs": [
        {
          "internalType": "address",
          "name": "",
          "type": "address"
        }
      ],
      "stateMutability": "view",
      "type": "function",
      "constant": true
    },
    {
      "inputs": [],
      "name": "randNum",
      "outputs": [
        {
          "internalType": "uint256",
          "name": "",
          "type": "uint256"
        }
      ],
      "stateMutability": "view",
      "type": "function",
      "constant": true
    },
    {
      "inputs": [],
      "name": "application",
      "outputs": [
        {
          "internalType": "uint256",
          "name": "",
          "type": "uint256"
        }
      ],
      "stateMutability": "nonpayable",
      "type": "function"
    },
    {
      "inputs": [
        {
          "internalType": "uint256",
          "name": "seed",
          "type": "uint256"
        }
      ],
      "name": "getInfo",
      "outputs": [
        {
          "internalType": "address",
          "name": "",
          "type": "address"
        }
      ],
      "stateMutability": "view",
      "type": "function",
      "constant": true
    },
    {
      "inputs": [],
      "name": "getSeed",
      "outputs": [
        {
          "internalType": "uint256",
          "name": "",
          "type": "uint256"
        }
      ],
      "stateMutability": "view",
      "type": "function",
      "constant": true
    },
    {
      "inputs": [],
      "name": "deleteApl",
      "outputs": [],
      "stateMutability": "nonpayable",
      "type": "function"
    },
    {
      "inputs": [],
      "name": "draw",
      "outputs": [],
      "stateMutability": "nonpayable",
      "type": "function"
    },
    {
      "inputs": [],
      "name": "getRand",
      "outputs": [
        {
          "internalType": "uint256",
          "name": "",
          "type": "uint256"
        }
      ],
      "stateMutability": "view",
      "type": "function",
      "constant": true
    }
  ],
  "bytecode": "0x60806040526000600255600060035534801561001a57600080fd5b50336000806101000a81548173ffffffffffffffffffffffffffffffffffffffff021916908373ffffffffffffffffffffffffffffffffffffffff1602179055506106cb8061006a6000396000f3fe608060405234801561001057600080fd5b506004361061009e5760003560e01c8063600bc4ea11610066578063600bc4ea146101375780637e30a6f0146101555780638da5cb5b146101855780639ac8c0ef146101a3578063cc623331146101c15761009e565b80630eecae21146100a35780631a3cd59a146100ad57806326e4ca82146100dd57806339e7357c146100fb5780635a34d35614610119575b600080fd5b6100ab6101cb565b005b6100c760048036038101906100c291906103e0565b610240565b6040516100d491906104a3565b60405180910390f35b6100e561027d565b6040516100f291906104be565b60405180910390f35b6101036102f3565b60405161011091906104be565b60405180910390f35b6101216102fd565b60405161012e91906104be565b60405180910390f35b61013f610303565b60405161014c91906104be565b60405180910390f35b61016f600480360381019061016a91906103e0565b61030d565b60405161017c91906104a3565b60405180910390f35b61018d610340565b60405161019a91906104a3565b60405180910390f35b6101ab610364565b6040516101b891906104be565b60405180910390f35b6101c961036a565b005b60004390506000600580836101e091906105e2565b836101eb91906104d9565b6101f591906104d9565b90506002544233600354846040516020016102139493929190610455565b6040516020818303038152906040528051906020012060001c61023691906105e2565b6004819055505050565b60006001600083815260200190815260200160002060009054906101000a900473ffffffffffffffffffffffffffffffffffffffff169050919050565b60003360016000600254815260200190815260200160002060006101000a81548173ffffffffffffffffffffffffffffffffffffffff021916908373ffffffffffffffffffffffffffffffffffffffff160217905550600260008154809291906102e69061056b565b9190505550600254905090565b6000600254905090565b60025481565b6000600454905090565b60016020528060005260406000206000915054906101000a900473ffffffffffffffffffffffffffffffffffffffff1681565b60008054906101000a900473ffffffffffffffffffffffffffffffffffffffff1681565b60045481565b60005b6002548110156103c0576001600082815260200190815260200160002060006101000a81549073ffffffffffffffffffffffffffffffffffffffff021916905580806103b89061056b565b91505061036d565b506000600281905550565b6000813590506103da8161067e565b92915050565b6000602082840312156103f257600080fd5b6000610400848285016103cb565b91505092915050565b6104128161052f565b82525050565b6104296104248261052f565b6105b4565b82525050565b61043881610561565b82525050565b61044f61044a82610561565b6105d8565b82525050565b6000610461828761043e565b6020820191506104718286610418565b601482019150610481828561043e565b602082019150610491828461043e565b60208201915081905095945050505050565b60006020820190506104b86000830184610409565b92915050565b60006020820190506104d3600083018461042f565b92915050565b60006104e482610561565b91506104ef83610561565b9250827fffffffffffffffffffffffffffffffffffffffffffffffffffffffffffffffff0382111561052457610523610613565b5b828201905092915050565b600061053a82610541565b9050919050565b600073ffffffffffffffffffffffffffffffffffffffff82169050919050565b6000819050919050565b600061057682610561565b91507fffffffffffffffffffffffffffffffffffffffffffffffffffffffffffffffff8214156105a9576105a8610613565b5b600182019050919050565b60006105bf826105c6565b9050919050565b60006105d182610671565b9050919050565b6000819050919050565b60006105ed82610561565b91506105f883610561565b92508261060857610607610642565b5b828206905092915050565b7f4e487b7100000000000000000000000000000000000000000000000000000000600052601160045260246000fd5b7f4e487b7100000000000000000000000000000000000000000000000000000000600052601260045260246000fd5b60008160601b9050919050565b61068781610561565b811461069257600080fd5b5056fea264697066735822122082af2cfb0b313b81fd5fcf219bf9f01f2330fcb83e1612e36107a24860b25c6364736f6c63430008000033",
  "immutableReferences": {},
  "source": "// SPDX-License-Identifier: MIT\npragma solidity 0.8.0;\n\ncontract Blockcontract {\n\n    constructor() public {\n        owner = msg.sender;\n    }\n\n    address public owner;\n    //uint256 private curBlockNum; //       \n    //uint256 private futureBlockNum; //    =     + uint(curBlockNum) % 5\n\n    mapping (uint256 => address) public applicant; //    (  :  )\n    uint256 public _seed = 0; //   (  )\n\n    uint256 private randNonce = 0; //   \n    uint256 public randNum; //     ( )\n\n    // \n    function application() public returns(uint256){\n        applicant[_seed] = msg.sender;\n        _seed++;\n        return _seed;\n    }\n\n\n    //  seed      \n    function getInfo(uint256 seed) public view returns (address) {\n        return applicant[seed];\n    }\n\n    //   \n    function getSeed() public view returns (uint256) {\n        return _seed;\n    }\n\n    //   \n    function deleteApl() public {\n        for (uint256 i = 0; i < _seed; i++) {\n            delete applicant[i];\n        }\n        _seed = 0;\n    }\n\n\n    //   \n    function draw() public{\n        uint256 curBlockNum = block.number;\n        uint256 futureBlockNum = curBlockNum + (curBlockNum % 5) + 5;\n        randNum = uint256(keccak256(abi.encodePacked(block.timestamp,msg.sender,randNonce,futureBlockNum))) % _seed;\n    }\n\n    //    \n    function getRand() public view returns(uint256) {\n        return randNum;\n    }\n\n    // function confirmWin() public {\n\n    // }\n}\n",
  "sourcePath": "/Users/sonar0/Programfile/1Q-On-the-Block/1Q-contract-ver2/contracts/Blockcontract.sol",
  "compiler": {
    "name": "solc",
    "version": "0.8.0+commit.c7dfd78e.Emscripten.clang"
  },
  "schemaVersion": "3.4.15",
  "updatedAt": "2023-08-20T10:11:28.928Z",
  "networkType": "ethereum",
  "devdoc": {
    "kind": "dev",
    "methods": {},
    "version": 1
  },
  "userdoc": {
    "kind": "user",
    "methods": {},
    "version": 1
  }
}