{
  "contractName": "Agenda",
  "abi": [
    {
      "inputs": [
        {
          "internalType": "string",
          "name": "_Title",
          "type": "string"
        },
        {
          "internalType": "string",
          "name": "_AgendaType",
          "type": "string"
        },
        {
          "internalType": "uint256",
          "name": "_StartDateTime",
          "type": "uint256"
        },
        {
          "internalType": "uint256",
          "name": "_EndDateTime",
          "type": "uint256"
        }
      ],
      "stateMutability": "nonpayable",
      "type": "constructor"
    },
    {
      "anonymous": false,
      "inputs": [
        {
          "indexed": true,
          "internalType": "address",
          "name": "previousOwner",
          "type": "address"
        },
        {
          "indexed": true,
          "internalType": "address",
          "name": "newOwner",
          "type": "address"
        }
      ],
      "name": "OwnershipTransferred",
      "type": "event"
    },
    {
      "inputs": [],
      "name": "owner",
      "outputs": [
        {
          "internalType": "address",
          "name": "",
          "type": "address"
        }
      ],
      "stateMutability": "view",
      "type": "function",
      "constant": true
    },
    {
      "inputs": [],
      "name": "randomnumber",
      "outputs": [
        {
          "internalType": "contract RandomNumber",
          "name": "",
          "type": "address"
        }
      ],
      "stateMutability": "view",
      "type": "function",
      "constant": true
    },
    {
      "inputs": [],
      "name": "renounceOwnership",
      "outputs": [],
      "stateMutability": "nonpayable",
      "type": "function"
    },
    {
      "inputs": [
        {
          "internalType": "address",
          "name": "newOwner",
          "type": "address"
        }
      ],
      "name": "transferOwnership",
      "outputs": [],
      "stateMutability": "nonpayable",
      "type": "function"
    },
    {
      "inputs": [
        {
          "internalType": "string",
          "name": "newTitle",
          "type": "string"
        },
        {
          "internalType": "string",
          "name": "newAgendaType",
          "type": "string"
        },
        {
          "internalType": "uint256",
          "name": "newStartDateTime",
          "type": "uint256"
        },
        {
          "internalType": "uint256",
          "name": "newEndDateTime",
          "type": "uint256"
        }
      ],
      "name": "modifyInfo",
      "outputs": [],
      "stateMutability": "nonpayable",
      "type": "function"
    },
    {
      "inputs": [
        {
          "internalType": "uint256",
          "name": "num",
          "type": "uint256"
        }
      ],
      "name": "setWinnerCount",
      "outputs": [],
      "stateMutability": "nonpayable",
      "type": "function"
    },
    {
      "inputs": [
        {
          "internalType": "uint256",
          "name": "inpNum",
          "type": "uint256"
        }
      ],
      "name": "application",
      "outputs": [],
      "stateMutability": "nonpayable",
      "type": "function"
    },
    {
      "inputs": [],
      "name": "setBlockInfo",
      "outputs": [],
      "stateMutability": "nonpayable",
      "type": "function"
    },
    {
      "inputs": [
        {
          "internalType": "uint256",
          "name": "num",
          "type": "uint256"
        }
      ],
      "name": "draw",
      "outputs": [],
      "stateMutability": "nonpayable",
      "type": "function"
    },
    {
      "inputs": [],
      "name": "getInfo",
      "outputs": [
        {
          "internalType": "string",
          "name": "",
          "type": "string"
        },
        {
          "internalType": "string",
          "name": "",
          "type": "string"
        },
        {
          "internalType": "uint256",
          "name": "",
          "type": "uint256"
        },
        {
          "internalType": "uint256",
          "name": "",
          "type": "uint256"
        }
      ],
      "stateMutability": "view",
      "type": "function",
      "constant": true
    },
    {
      "inputs": [],
      "name": "getWinNum",
      "outputs": [
        {
          "internalType": "uint256[]",
          "name": "",
          "type": "uint256[]"
        }
      ],
      "stateMutability": "view",
      "type": "function",
      "constant": true
    },
    {
      "inputs": [],
      "name": "getWinners",
      "outputs": [
        {
          "internalType": "address[]",
          "name": "",
          "type": "address[]"
        }
      ],
      "stateMutability": "view",
      "type": "function",
      "constant": true
    },
    {
      "inputs": [],
      "name": "getRandInfo",
      "outputs": [
        {
          "internalType": "uint256",
          "name": "",
          "type": "uint256"
        },
        {
          "internalType": "uint256",
          "name": "",
          "type": "uint256"
        },
        {
          "internalType": "bytes32",
          "name": "",
          "type": "bytes32"
        },
        {
          "internalType": "uint256",
          "name": "",
          "type": "uint256"
        }
      ],
      "stateMutability": "view",
      "type": "function",
      "constant": true
    }
  ],
  "bytecode": "0x60806040526001600555604051806040016040528073e74b66fcd6d6d9d23474c24ea70ad71373cd5e7973ffffffffffffffffffffffffffffffffffffffff1673ffffffffffffffffffffffffffffffffffffffff16815260200173e74b66fcd6d6d9d23474c24ea70ad71373cd5e7973ffffffffffffffffffffffffffffffffffffffff1673ffffffffffffffffffffffffffffffffffffffff168152506006906002620000b0929190620003d6565b506000600755348015620000c357600080fd5b5060405162002089380380620020898339818101604052810190620000e991906200059e565b62000109620000fd620001b960201b60201c565b620001c160201b60201c565b6200011a336200028560201b60201c565b83600190805190602001906200013292919062000465565b5082600290805190602001906200014b92919062000465565b5081600381905550806004819055507393e8513e7c31e0172ee4ab49b9425a88474b95d6600a60006101000a81548173ffffffffffffffffffffffffffffffffffffffff021916908373ffffffffffffffffffffffffffffffffffffffff1602179055505050505062000890565b600033905090565b60008060009054906101000a900473ffffffffffffffffffffffffffffffffffffffff169050816000806101000a81548173ffffffffffffffffffffffffffffffffffffffff021916908373ffffffffffffffffffffffffffffffffffffffff1602179055508173ffffffffffffffffffffffffffffffffffffffff168173ffffffffffffffffffffffffffffffffffffffff167f8be0079c531659141344cd1fd0a4f28419497f9722a3daafe3b4186f6b6457e060405160405180910390a35050565b620002956200031c60201b60201c565b600073ffffffffffffffffffffffffffffffffffffffff168173ffffffffffffffffffffffffffffffffffffffff16141562000308576040517f08c379a0000000000000000000000000000000000000000000000000000000008152600401620002ff90620006e6565b60405180910390fd5b6200031981620001c160201b60201c565b50565b6200032c620001b960201b60201c565b73ffffffffffffffffffffffffffffffffffffffff1662000352620003ad60201b60201c565b73ffffffffffffffffffffffffffffffffffffffff1614620003ab576040517f08c379a0000000000000000000000000000000000000000000000000000000008152600401620003a29062000708565b60405180910390fd5b565b60008060009054906101000a900473ffffffffffffffffffffffffffffffffffffffff16905090565b82805482825590600052602060002090810192821562000452579160200282015b82811115620004515782518260006101000a81548173ffffffffffffffffffffffffffffffffffffffff021916908373ffffffffffffffffffffffffffffffffffffffff16021790555091602001919060010190620003f7565b5b509050620004619190620004f6565b5090565b8280546200047390620007e2565b90600052602060002090601f016020900481019282620004975760008555620004e3565b82601f10620004b257805160ff1916838001178555620004e3565b82800160010185558215620004e3579182015b82811115620004e2578251825591602001919060010190620004c5565b5b509050620004f29190620004f6565b5090565b5b8082111562000511576000816000905550600101620004f7565b5090565b60006200052c62000526846200075e565b6200072a565b9050828152602081018484840111156200054557600080fd5b62000552848285620007ac565b509392505050565b600082601f8301126200056c57600080fd5b81516200057e84826020860162000515565b91505092915050565b600081519050620005988162000876565b92915050565b60008060008060808587031215620005b557600080fd5b600085015167ffffffffffffffff811115620005d057600080fd5b620005de878288016200055a565b945050602085015167ffffffffffffffff811115620005fc57600080fd5b6200060a878288016200055a565b93505060406200061d8782880162000587565b9250506060620006308782880162000587565b91505092959194509250565b60006200064b60268362000791565b91507f4f776e61626c653a206e6577206f776e657220697320746865207a65726f206160008301527f64647265737300000000000000000000000000000000000000000000000000006020830152604082019050919050565b6000620006b360208362000791565b91507f4f776e61626c653a2063616c6c6572206973206e6f7420746865206f776e65726000830152602082019050919050565b6000602082019050818103600083015262000701816200063c565b9050919050565b600060208201905081810360008301526200072381620006a4565b9050919050565b6000604051905081810181811067ffffffffffffffff8211171562000754576200075362000847565b5b8060405250919050565b600067ffffffffffffffff8211156200077c576200077b62000847565b5b601f19601f8301169050602081019050919050565b600082825260208201905092915050565b6000819050919050565b60005b83811015620007cc578082015181840152602081019050620007af565b83811115620007dc576000848401525b50505050565b60006002820490506001821680620007fb57607f821691505b6020821081141562000812576200081162000818565b5b50919050565b7f4e487b7100000000000000000000000000000000000000000000000000000000600052602260045260246000fd5b7f4e487b7100000000000000000000000000000000000000000000000000000000600052604160045260246000fd5b6200088181620007a2565b81146200088d57600080fd5b50565b6117e980620008a06000396000f3fe608060405234801561001057600080fd5b50600436106100cf5760003560e01c80637a301cc31161008c578063c749713011610066578063c7497130146101b7578063df15c37e146101d8578063ee6f7927146101f6578063f2fde38b14610212576100cf565b80637a301cc3146101615780638da5cb5b1461017d5780639d811dca1461019b576100cf565b8063080d0de2146100d45780630c72c3a1146100f25780633b304147146100fc5780633c6d31b0146101185780635a9b0b8914610136578063715018a614610157575b600080fd5b6100dc61022e565b6040516100e99190611329565b60405180910390f35b6100fa610254565b005b61011660048036038101906101119190610fd9565b6102d8565b005b61012061056f565b60405161012d9190611307565b60405180910390f35b61013e6105c7565b60405161014e9493929190611344565b60405180910390f35b61015f6106fd565b005b61017b60048036038101906101769190610fd9565b610711565b005b610185610857565b60405161019291906112ca565b60405180910390f35b6101b560048036038101906101b09190610fd9565b610880565b005b6101bf610892565b6040516101cf9493929190611412565b60405180910390f35b6101e0610946565b6040516101ed91906112e5565b60405180910390f35b610210600480360381019061020b9190610f46565b6109d4565b005b61022c60048036038101906102279190610edc565b610a1e565b005b600a60009054906101000a900473ffffffffffffffffffffffffffffffffffffffff1681565b600a60009054906101000a900473ffffffffffffffffffffffffffffffffffffffff1673ffffffffffffffffffffffffffffffffffffffff16630c72c3a16040518163ffffffff1660e01b8152600401600060405180830381600087803b1580156102be57600080fd5b505af11580156102d2573d6000803e3d6000fd5b50505050565b6102e0610aa2565b600a60009054906101000a900473ffffffffffffffffffffffffffffffffffffffff1673ffffffffffffffffffffffffffffffffffffffff16630bec063d6005546006805490506007546040518463ffffffff1660e01b815260040161034893929190611457565b600060405180830381600087803b15801561036257600080fd5b505af1158015610376573d6000803e3d6000fd5b505050506040513d6000823e3d601f19601f8201168201806040525081019061039f9190610f05565b600890805190602001906103b4929190610c9a565b5060005b818110156104de5760096006600883815481106103fe577f4e487b7100000000000000000000000000000000000000000000000000000000600052603260045260246000fd5b906000526020600020015481548110610440577f4e487b7100000000000000000000000000000000000000000000000000000000600052603260045260246000fd5b9060005260206000200160009054906101000a900473ffffffffffffffffffffffffffffffffffffffff169080600181540180825580915050600190039060005260206000200160009091909190916101000a81548173ffffffffffffffffffffffffffffffffffffffff021916908373ffffffffffffffffffffffffffffffffffffffff16021790555080806104d690611687565b9150506103b8565b50600a60009054906101000a900473ffffffffffffffffffffffffffffffffffffffff1673ffffffffffffffffffffffffffffffffffffffff1663597ef66f826040518263ffffffff1660e01b815260040161053a91906113f7565b600060405180830381600087803b15801561055457600080fd5b505af1158015610568573d6000803e3d6000fd5b5050505050565b606060088054806020026020016040519081016040528092919081815260200182805480156105bd57602002820191906000526020600020905b8154815260200190600101908083116105a9575b5050505050905090565b606080600080600160026003546004548380546105e390611655565b80601f016020809104026020016040519081016040528092919081815260200182805461060f90611655565b801561065c5780601f106106315761010080835404028352916020019161065c565b820191906000526020600020905b81548152906001019060200180831161063f57829003601f168201915b5050505050935082805461066f90611655565b80601f016020809104026020016040519081016040528092919081815260200182805461069b90611655565b80156106e85780601f106106bd576101008083540402835291602001916106e8565b820191906000526020600020905b8154815290600101906020018083116106cb57829003601f168201915b50505050509250935093509350935090919293565b610705610aa2565b61070f6000610b20565b565b6107a1600680548060200260200160405190810160405280929190818152602001828054801561079657602002820191906000526020600020905b8160009054906101000a900473ffffffffffffffffffffffffffffffffffffffff1673ffffffffffffffffffffffffffffffffffffffff168152602001906001019080831161074c575b505050505033610be4565b156107e1576040517f08c379a00000000000000000000000000000000000000000000000000000000081526004016107d8906113d7565b60405180910390fd5b6006339080600181540180825580915050600190039060005260206000200160009091909190916101000a81548173ffffffffffffffffffffffffffffffffffffffff021916908373ffffffffffffffffffffffffffffffffffffffff1602179055508060076000828254189250508190555050565b60008060009054906101000a900473ffffffffffffffffffffffffffffffffffffffff16905090565b610888610aa2565b8060058190555050565b600080600080600a60009054906101000a900473ffffffffffffffffffffffffffffffffffffffff1673ffffffffffffffffffffffffffffffffffffffff1663c0cbe7bc6040518163ffffffff1660e01b815260040160806040518083038186803b15801561090057600080fd5b505afa158015610914573d6000803e3d6000fd5b505050506040513d601f19601f820116820180604052508101906109389190611002565b935093509350935090919293565b606060098054806020026020016040519081016040528092919081815260200182805480156109ca57602002820191906000526020600020905b8160009054906101000a900473ffffffffffffffffffffffffffffffffffffffff1673ffffffffffffffffffffffffffffffffffffffff1681526020019060010190808311610980575b5050505050905090565b6109dc610aa2565b83600190805190602001906109f2929190610ce7565b508260029080519060200190610a09929190610ce7565b50816003819055508060048190555050505050565b610a26610aa2565b600073ffffffffffffffffffffffffffffffffffffffff168173ffffffffffffffffffffffffffffffffffffffff161415610a96576040517f08c379a0000000000000000000000000000000000000000000000000000000008152600401610a8d90611397565b60405180910390fd5b610a9f81610b20565b50565b610aaa610c92565b73ffffffffffffffffffffffffffffffffffffffff16610ac8610857565b73ffffffffffffffffffffffffffffffffffffffff1614610b1e576040517f08c379a0000000000000000000000000000000000000000000000000000000008152600401610b15906113b7565b60405180910390fd5b565b60008060009054906101000a900473ffffffffffffffffffffffffffffffffffffffff169050816000806101000a81548173ffffffffffffffffffffffffffffffffffffffff021916908373ffffffffffffffffffffffffffffffffffffffff1602179055508173ffffffffffffffffffffffffffffffffffffffff168173ffffffffffffffffffffffffffffffffffffffff167f8be0079c531659141344cd1fd0a4f28419497f9722a3daafe3b4186f6b6457e060405160405180910390a35050565b600080600090505b8351811015610c86578273ffffffffffffffffffffffffffffffffffffffff16848281518110610c45577f4e487b7100000000000000000000000000000000000000000000000000000000600052603260045260246000fd5b602002602001015173ffffffffffffffffffffffffffffffffffffffff161415610c73576001915050610c8c565b8080610c7e90611687565b915050610bec565b50600090505b92915050565b600033905090565b828054828255906000526020600020908101928215610cd6579160200282015b82811115610cd5578251825591602001919060010190610cba565b5b509050610ce39190610d6d565b5090565b828054610cf390611655565b90600052602060002090601f016020900481019282610d155760008555610d5c565b82601f10610d2e57805160ff1916838001178555610d5c565b82800160010185558215610d5c579182015b82811115610d5b578251825591602001919060010190610d40565b5b509050610d699190610d6d565b5090565b5b80821115610d86576000816000905550600101610d6e565b5090565b6000610d9d610d98846114bf565b61148e565b90508083825260208201905082856020860282011115610dbc57600080fd5b60005b85811015610dec5781610dd28882610ec7565b845260208401935060208301925050600181019050610dbf565b5050509392505050565b6000610e09610e04846114eb565b61148e565b905082815260208101848484011115610e2157600080fd5b610e2c848285611613565b509392505050565b600081359050610e438161176e565b92915050565b600082601f830112610e5a57600080fd5b8151610e6a848260208601610d8a565b91505092915050565b600081519050610e8281611785565b92915050565b600082601f830112610e9957600080fd5b8135610ea9848260208601610df6565b91505092915050565b600081359050610ec18161179c565b92915050565b600081519050610ed68161179c565b92915050565b600060208284031215610eee57600080fd5b6000610efc84828501610e34565b91505092915050565b600060208284031215610f1757600080fd5b600082015167ffffffffffffffff811115610f3157600080fd5b610f3d84828501610e49565b91505092915050565b60008060008060808587031215610f5c57600080fd5b600085013567ffffffffffffffff811115610f7657600080fd5b610f8287828801610e88565b945050602085013567ffffffffffffffff811115610f9f57600080fd5b610fab87828801610e88565b9350506040610fbc87828801610eb2565b9250506060610fcd87828801610eb2565b91505092959194509250565b600060208284031215610feb57600080fd5b6000610ff984828501610eb2565b91505092915050565b6000806000806080858703121561101857600080fd5b600061102687828801610ec7565b945050602061103787828801610ec7565b935050604061104887828801610e73565b925050606061105987828801610ec7565b91505092959194509250565b60006110718383611095565b60208301905092915050565b600061108983836112ac565b60208301905092915050565b61109e816115a9565b82525050565b6110ad816115a9565b82525050565b60006110be8261153b565b6110c88185611576565b93506110d38361151b565b8060005b838110156111045781516110eb8882611065565b97506110f68361155c565b9250506001810190506110d7565b5085935050505092915050565b600061111c82611546565b6111268185611587565b93506111318361152b565b8060005b83811015611162578151611149888261107d565b975061115483611569565b925050600181019050611135565b5085935050505092915050565b611178816115bb565b82525050565b611187816115ef565b82525050565b600061119882611551565b6111a28185611598565b93506111b2818560208601611622565b6111bb8161175d565b840191505092915050565b60006111d3602683611598565b91507f4f776e61626c653a206e6577206f776e657220697320746865207a65726f206160008301527f64647265737300000000000000000000000000000000000000000000000000006020830152604082019050919050565b6000611239602083611598565b91507f4f776e61626c653a2063616c6c6572206973206e6f7420746865206f776e65726000830152602082019050919050565b6000611279601383611598565b91507f616c7265616479206170706c69636174696f6e000000000000000000000000006000830152602082019050919050565b6112b5816115e5565b82525050565b6112c4816115e5565b82525050565b60006020820190506112df60008301846110a4565b92915050565b600060208201905081810360008301526112ff81846110b3565b905092915050565b600060208201905081810360008301526113218184611111565b905092915050565b600060208201905061133e600083018461117e565b92915050565b6000608082019050818103600083015261135e818761118d565b90508181036020830152611372818661118d565b905061138160408301856112bb565b61138e60608301846112bb565b95945050505050565b600060208201905081810360008301526113b0816111c6565b9050919050565b600060208201905081810360008301526113d08161122c565b9050919050565b600060208201905081810360008301526113f08161126c565b9050919050565b600060208201905061140c60008301846112bb565b92915050565b600060808201905061142760008301876112bb565b61143460208301866112bb565b611441604083018561116f565b61144e60608301846112bb565b95945050505050565b600060608201905061146c60008301866112bb565b61147960208301856112bb565b61148660408301846112bb565b949350505050565b6000604051905081810181811067ffffffffffffffff821117156114b5576114b461172e565b5b8060405250919050565b600067ffffffffffffffff8211156114da576114d961172e565b5b602082029050602081019050919050565b600067ffffffffffffffff8211156115065761150561172e565b5b601f19601f8301169050602081019050919050565b6000819050602082019050919050565b6000819050602082019050919050565b600081519050919050565b600081519050919050565b600081519050919050565b6000602082019050919050565b6000602082019050919050565b600082825260208201905092915050565b600082825260208201905092915050565b600082825260208201905092915050565b60006115b4826115c5565b9050919050565b6000819050919050565b600073ffffffffffffffffffffffffffffffffffffffff82169050919050565b6000819050919050565b60006115fa82611601565b9050919050565b600061160c826115c5565b9050919050565b82818337600083830152505050565b60005b83811015611640578082015181840152602081019050611625565b8381111561164f576000848401525b50505050565b6000600282049050600182168061166d57607f821691505b60208210811415611681576116806116ff565b5b50919050565b6000611692826115e5565b91507fffffffffffffffffffffffffffffffffffffffffffffffffffffffffffffffff8214156116c5576116c46116d0565b5b600182019050919050565b7f4e487b7100000000000000000000000000000000000000000000000000000000600052601160045260246000fd5b7f4e487b7100000000000000000000000000000000000000000000000000000000600052602260045260246000fd5b7f4e487b7100000000000000000000000000000000000000000000000000000000600052604160045260246000fd5b6000601f19601f8301169050919050565b611777816115a9565b811461178257600080fd5b50565b61178e816115bb565b811461179957600080fd5b50565b6117a5816115e5565b81146117b057600080fd5b5056fea2646970667358221220500d3cdd2b2a0ac208fd40b6f8e7f856c1f9e9c32a337aadbf8b4aff983b3dda64736f6c63430008000033",
  "immutableReferences": {},
  "source": "// SPDX-License-Identifier: MIT\r\npragma solidity 0.8.0;\r\n\r\nimport \"@openzeppelin/contracts/access/Ownable.sol\";\r\nimport \"./RandomNumber.sol\";\r\n\r\ncontract Agenda is Ownable{\r\n    string private TITLE; // \r\n    string private AGENDA_TYPE; //  \r\n    uint256 private START_DATETIME; // TIMESTAMP\r\n    uint256 private END_DATETIME; // TIMESTAMP\r\n\r\n    uint256 private WINNERS_COUNT = 1; //  \r\n \r\n    address[] private applicants = [0xE74B66fCD6d6D9d23474c24EA70Ad71373cD5E79, 0xE74B66fCD6d6D9d23474c24EA70Ad71373cD5E79];\r\n    uint256 resultXOR = 0;\r\n\r\n    uint256[] private winNum;\r\n    address[] private winners;\r\n\r\n    RandomNumber public randomnumber;\r\n\r\n    constructor (string memory _Title, string memory _AgendaType, uint256 _StartDateTime, uint256 _EndDateTime) {\r\n        transferOwnership(msg.sender);\r\n        TITLE = _Title;\r\n        AGENDA_TYPE = _AgendaType;\r\n        START_DATETIME = _StartDateTime;\r\n        END_DATETIME = _EndDateTime;\r\n        randomnumber = RandomNumber(0x93e8513e7c31e0172ee4Ab49B9425A88474b95D6);\r\n    }\r\n\r\n    //      \r\n    function inArray(address[] memory tempArray ,address applicant) private returns(bool){\r\n        for (uint256 i = 0 ; i < tempArray.length ; i++) {\r\n            if(tempArray[i] == applicant) {\r\n                return true;\r\n            }\r\n        }\r\n        return false;\r\n    }\r\n\r\n    function modifyInfo(string memory newTitle, string memory newAgendaType, uint256 newStartDateTime, uint256 newEndDateTime) public onlyOwner{\r\n        TITLE = newTitle;\r\n        AGENDA_TYPE = newAgendaType;\r\n        START_DATETIME = newStartDateTime;\r\n        END_DATETIME = newEndDateTime;\r\n    }\r\n\r\n    function setWinnerCount(uint256 num) public onlyOwner{\r\n        WINNERS_COUNT = num;\r\n    }\r\n\r\n    function application(uint256 inpNum) public {\r\n        if(inArray(applicants,msg.sender)) {\r\n            revert(\"already application\");\r\n        }\r\n        else {\r\n            applicants.push(msg.sender);\r\n            resultXOR ^= inpNum;\r\n        }\r\n    }\r\n\r\n    function setBlockInfo() public{\r\n        randomnumber.setBlockInfo();\r\n    }\r\n\r\n        \r\n\r\n    function draw(uint256 num) public onlyOwner{\r\n        // num    \r\n        winNum = randomnumber.generateRandNum(WINNERS_COUNT, applicants.length, resultXOR);\r\n\r\n        //     \r\n        for (uint256 i = 0 ; i < num ; i++) {\r\n            winners.push(applicants[winNum[i]]);\r\n        }\r\n\r\n        randomnumber.optAll(num);\r\n    }\r\n\r\n    function getInfo() public view returns(string memory, string memory, uint256, uint256) {\r\n        return (TITLE, AGENDA_TYPE, START_DATETIME, END_DATETIME);\r\n    }\r\n\r\n\r\n    // \r\n    function getWinNum() public view returns(uint256[] memory) {\r\n        return winNum;\r\n    }\r\n\r\n    \r\n    function getWinners() public view returns(address[] memory) {\r\n        return winners;\r\n    }\r\n\r\n    function getRandInfo() public view returns(uint256, uint256, bytes32, uint256) {\r\n        return randomnumber.getInfoo();\r\n    }\r\n\r\n\r\n}",
  "sourcePath": "C:\\Users\\HanaTI\\Desktop\\Project\\1Q-On-the-Block\\1Q-contract-ver3\\contracts\\Agenda.sol",
  "compiler": {
    "name": "solc",
    "version": "0.8.0+commit.c7dfd78e.Emscripten.clang"
  },
  "schemaVersion": "3.4.14",
  "updatedAt": "2023-09-11T08:40:43.356Z",
  "networkType": "ethereum",
  "devdoc": {
    "kind": "dev",
    "methods": {
      "owner()": {
        "details": "Returns the address of the current owner."
      },
      "renounceOwnership()": {
        "details": "Leaves the contract without owner. It will not be possible to call `onlyOwner` functions. Can only be called by the current owner. NOTE: Renouncing ownership will leave the contract without an owner, thereby disabling any functionality that is only available to the owner."
      },
      "transferOwnership(address)": {
        "details": "Transfers ownership of the contract to a new account (`newOwner`). Can only be called by the current owner."
      }
    },
    "version": 1
  },
  "userdoc": {
    "kind": "user",
    "methods": {},
    "version": 1
  }
}