{
  "contractName": "Agenda",
  "abi": [
    {
      "inputs": [
        {
          "internalType": "string",
          "name": "_Title",
          "type": "string"
        },
        {
          "internalType": "string",
          "name": "_AgendaType",
          "type": "string"
        },
        {
          "internalType": "uint256",
          "name": "_StartDateTime",
          "type": "uint256"
        },
        {
          "internalType": "uint256",
          "name": "_EndDateTime",
          "type": "uint256"
        },
        {
          "internalType": "address",
          "name": "_randAddr",
          "type": "address"
        },
        {
          "internalType": "address",
          "name": "_pudAddr",
          "type": "address"
        },
        {
          "internalType": "address",
          "name": "_nftAddr",
          "type": "address"
        }
      ],
      "stateMutability": "nonpayable",
      "type": "constructor"
    },
    {
      "anonymous": false,
      "inputs": [
        {
          "indexed": true,
          "internalType": "address",
          "name": "previousOwner",
          "type": "address"
        },
        {
          "indexed": true,
          "internalType": "address",
          "name": "newOwner",
          "type": "address"
        }
      ],
      "name": "OwnershipTransferred",
      "type": "event"
    },
    {
      "inputs": [],
      "name": "owner",
      "outputs": [
        {
          "internalType": "address",
          "name": "",
          "type": "address"
        }
      ],
      "stateMutability": "view",
      "type": "function",
      "constant": true
    },
    {
      "inputs": [],
      "name": "pudingtoken",
      "outputs": [
        {
          "internalType": "contract PudingToken",
          "name": "",
          "type": "address"
        }
      ],
      "stateMutability": "view",
      "type": "function",
      "constant": true
    },
    {
      "inputs": [],
      "name": "randomnumber",
      "outputs": [
        {
          "internalType": "contract RandomNumber",
          "name": "",
          "type": "address"
        }
      ],
      "stateMutability": "view",
      "type": "function",
      "constant": true
    },
    {
      "inputs": [],
      "name": "renounceOwnership",
      "outputs": [],
      "stateMutability": "nonpayable",
      "type": "function"
    },
    {
      "inputs": [
        {
          "internalType": "address",
          "name": "newOwner",
          "type": "address"
        }
      ],
      "name": "transferOwnership",
      "outputs": [],
      "stateMutability": "nonpayable",
      "type": "function"
    },
    {
      "inputs": [],
      "name": "trophytoken",
      "outputs": [
        {
          "internalType": "contract TrophyToken",
          "name": "",
          "type": "address"
        }
      ],
      "stateMutability": "view",
      "type": "function",
      "constant": true
    },
    {
      "inputs": [
        {
          "internalType": "string",
          "name": "newTitle",
          "type": "string"
        },
        {
          "internalType": "string",
          "name": "newAgendaType",
          "type": "string"
        },
        {
          "internalType": "uint256",
          "name": "newStartDateTime",
          "type": "uint256"
        },
        {
          "internalType": "uint256",
          "name": "newEndDateTime",
          "type": "uint256"
        }
      ],
      "name": "modifyInfo",
      "outputs": [],
      "stateMutability": "nonpayable",
      "type": "function"
    },
    {
      "inputs": [
        {
          "internalType": "uint256",
          "name": "num",
          "type": "uint256"
        }
      ],
      "name": "setWinnerCount",
      "outputs": [],
      "stateMutability": "nonpayable",
      "type": "function"
    },
    {
      "inputs": [
        {
          "internalType": "address",
          "name": "to",
          "type": "address"
        }
      ],
      "name": "mintPDK",
      "outputs": [],
      "stateMutability": "nonpayable",
      "type": "function"
    },
    {
      "inputs": [],
      "name": "draw",
      "outputs": [],
      "stateMutability": "nonpayable",
      "type": "function"
    },
    {
      "inputs": [],
      "name": "getInfo",
      "outputs": [
        {
          "internalType": "string",
          "name": "",
          "type": "string"
        },
        {
          "internalType": "string",
          "name": "",
          "type": "string"
        },
        {
          "internalType": "uint256",
          "name": "",
          "type": "uint256"
        },
        {
          "internalType": "uint256",
          "name": "",
          "type": "uint256"
        }
      ],
      "stateMutability": "view",
      "type": "function",
      "constant": true
    },
    {
      "inputs": [],
      "name": "getWinNum",
      "outputs": [
        {
          "internalType": "uint256[]",
          "name": "",
          "type": "uint256[]"
        }
      ],
      "stateMutability": "view",
      "type": "function",
      "constant": true
    },
    {
      "inputs": [],
      "name": "getWinners",
      "outputs": [
        {
          "internalType": "address[]",
          "name": "",
          "type": "address[]"
        }
      ],
      "stateMutability": "view",
      "type": "function",
      "constant": true
    },
    {
      "inputs": [],
      "name": "getRandInfo",
      "outputs": [
        {
          "internalType": "uint256",
          "name": "",
          "type": "uint256"
        },
        {
          "internalType": "uint256",
          "name": "",
          "type": "uint256"
        },
        {
          "internalType": "bytes32",
          "name": "",
          "type": "bytes32"
        },
        {
          "internalType": "uint256",
          "name": "",
          "type": "uint256"
        }
      ],
      "stateMutability": "view",
      "type": "function",
      "constant": true
    },
    {
      "inputs": [],
      "name": "getAppInfo",
      "outputs": [
        {
          "internalType": "address[]",
          "name": "",
          "type": "address[]"
        },
        {
          "internalType": "uint256",
          "name": "",
          "type": "uint256"
        }
      ],
      "stateMutability": "view",
      "type": "function",
      "constant": true
    },
    {
      "inputs": [],
      "name": "setBlockInfo",
      "outputs": [],
      "stateMutability": "nonpayable",
      "type": "function"
    },
    {
      "inputs": [
        {
          "internalType": "uint256",
          "name": "inpNum",
          "type": "uint256"
        }
      ],
      "name": "application",
      "outputs": [],
      "stateMutability": "nonpayable",
      "type": "function"
    }
  ],
  "bytecode": "0x6080604052670de0b6b3a76400006001556001600655604051806060016040528073e74b66fcd6d6d9d23474c24ea70ad71373cd5e7973ffffffffffffffffffffffffffffffffffffffff1673ffffffffffffffffffffffffffffffffffffffff16815260200173e74b66fcd6d6d9d23474c24ea70ad71373cd5e7973ffffffffffffffffffffffffffffffffffffffff1673ffffffffffffffffffffffffffffffffffffffff16815260200173e74b66fcd6d6d9d23474c24ea70ad71373cd5e7973ffffffffffffffffffffffffffffffffffffffff1673ffffffffffffffffffffffffffffffffffffffff1681525060079060036200010292919062000499565b5060006008553480156200011557600080fd5b506040516200258c3803806200258c83398181016040528101906200013b919062000678565b6200015b6200014f6200027c60201b60201c565b6200028460201b60201c565b6200016c336200034860201b60201c565b86600290805190602001906200018492919062000528565b5085600390805190602001906200019d92919062000528565b50846004819055508360058190555082600b60006101000a81548173ffffffffffffffffffffffffffffffffffffffff021916908373ffffffffffffffffffffffffffffffffffffffff16021790555081600c60006101000a81548173ffffffffffffffffffffffffffffffffffffffff021916908373ffffffffffffffffffffffffffffffffffffffff16021790555080600d60006101000a81548173ffffffffffffffffffffffffffffffffffffffff021916908373ffffffffffffffffffffffffffffffffffffffff1602179055505050505050505062000a54565b600033905090565b60008060009054906101000a900473ffffffffffffffffffffffffffffffffffffffff169050816000806101000a81548173ffffffffffffffffffffffffffffffffffffffff021916908373ffffffffffffffffffffffffffffffffffffffff1602179055508173ffffffffffffffffffffffffffffffffffffffff168173ffffffffffffffffffffffffffffffffffffffff167f8be0079c531659141344cd1fd0a4f28419497f9722a3daafe3b4186f6b6457e060405160405180910390a35050565b62000358620003df60201b60201c565b600073ffffffffffffffffffffffffffffffffffffffff168173ffffffffffffffffffffffffffffffffffffffff161415620003cb576040517f08c379a0000000000000000000000000000000000000000000000000000000008152600401620003c290620007a5565b60405180910390fd5b620003dc816200028460201b60201c565b50565b620003ef6200027c60201b60201c565b73ffffffffffffffffffffffffffffffffffffffff16620004156200047060201b60201c565b73ffffffffffffffffffffffffffffffffffffffff16146200046e576040517f08c379a00000000000000000000000000000000000000000000000000000000081526004016200046590620007c7565b60405180910390fd5b565b60008060009054906101000a900473ffffffffffffffffffffffffffffffffffffffff16905090565b82805482825590600052602060002090810192821562000515579160200282015b82811115620005145782518260006101000a81548173ffffffffffffffffffffffffffffffffffffffff021916908373ffffffffffffffffffffffffffffffffffffffff16021790555091602001919060010190620004ba565b5b509050620005249190620005b9565b5090565b8280546200053690620008cd565b90600052602060002090601f0160209004810192826200055a5760008555620005a6565b82601f106200057557805160ff1916838001178555620005a6565b82800160010185558215620005a6579182015b82811115620005a557825182559160200191906001019062000588565b5b509050620005b59190620005b9565b5090565b5b80821115620005d4576000816000905550600101620005ba565b5090565b6000620005ef620005e98462000812565b620007e9565b9050828152602081018484840111156200060857600080fd5b6200061584828562000897565b509392505050565b6000815190506200062e8162000a20565b92915050565b600082601f8301126200064657600080fd5b815162000658848260208601620005d8565b91505092915050565b600081519050620006728162000a3a565b92915050565b600080600080600080600060e0888a0312156200069457600080fd5b600088015167ffffffffffffffff811115620006af57600080fd5b620006bd8a828b0162000634565b975050602088015167ffffffffffffffff811115620006db57600080fd5b620006e98a828b0162000634565b9650506040620006fc8a828b0162000661565b95505060606200070f8a828b0162000661565b9450506080620007228a828b016200061d565b93505060a0620007358a828b016200061d565b92505060c0620007488a828b016200061d565b91505092959891949750929550565b60006200076660268362000848565b91506200077382620009a8565b604082019050919050565b60006200078d60208362000848565b91506200079a82620009f7565b602082019050919050565b60006020820190508181036000830152620007c08162000757565b9050919050565b60006020820190508181036000830152620007e2816200077e565b9050919050565b6000620007f562000808565b905062000803828262000903565b919050565b6000604051905090565b600067ffffffffffffffff82111562000830576200082f62000968565b5b6200083b8262000997565b9050602081019050919050565b600082825260208201905092915050565b600062000866826200086d565b9050919050565b600073ffffffffffffffffffffffffffffffffffffffff82169050919050565b6000819050919050565b60005b83811015620008b75780820151818401526020810190506200089a565b83811115620008c7576000848401525b50505050565b60006002820490506001821680620008e657607f821691505b60208210811415620008fd57620008fc62000939565b5b50919050565b6200090e8262000997565b810181811067ffffffffffffffff8211171562000930576200092f62000968565b5b80604052505050565b7f4e487b7100000000000000000000000000000000000000000000000000000000600052602260045260246000fd5b7f4e487b7100000000000000000000000000000000000000000000000000000000600052604160045260246000fd5b6000601f19601f8301169050919050565b7f4f776e61626c653a206e6577206f776e657220697320746865207a65726f206160008201527f6464726573730000000000000000000000000000000000000000000000000000602082015250565b7f4f776e61626c653a2063616c6c6572206973206e6f7420746865206f776e6572600082015250565b62000a2b8162000859565b811462000a3757600080fd5b50565b62000a45816200088d565b811462000a5157600080fd5b50565b611b288062000a646000396000f3fe608060405234801561001057600080fd5b506004361061010b5760003560e01c80637a301cc3116100a2578063c749713011610071578063c749713014610239578063df15c37e1461025a578063e26799ff14610278578063ee6f792714610297578063f2fde38b146102b35761010b565b80637a301cc3146101c557806387d81231146101e15780638da5cb5b146101ff5780639d811dca1461021d5761010b565b80633c6d31b0116100de5780633c6d31b0146101605780635a9b0b891461017e57806366fec6e11461019f578063715018a6146101bb5761010b565b8063080d0de2146101105780630c72c3a11461012e5780630eecae211461013857806325f0860c14610142575b600080fd5b6101186102cf565b60405161012591906114b8565b60405180910390f35b6101366102f5565b005b610140610379565b005b61014a6106ac565b604051610157919061149d565b60405180910390f35b6101686106d2565b604051610175919061147b565b60405180910390f35b61018661072a565b60405161019694939291906114ee565b60405180910390f35b6101b960048036038101906101b49190611028565b610860565b005b6101c3610908565b005b6101df60048036038101906101da9190611125565b61091c565b005b6101e9610992565b6040516101f691906114d3565b60405180910390f35b6102076109b8565b60405161021491906113b7565b60405180910390f35b61023760048036038101906102329190611125565b6109e1565b005b6102416109f3565b604051610251949392919061159c565b60405180910390f35b610262610aa7565b60405161026f9190611429565b60405180910390f35b610280610b35565b60405161028e92919061144b565b60405180910390f35b6102b160048036038101906102ac9190611092565b610bce565b005b6102cd60048036038101906102c89190611028565b610c18565b005b600b60009054906101000a900473ffffffffffffffffffffffffffffffffffffffff1681565b600b60009054906101000a900473ffffffffffffffffffffffffffffffffffffffff1673ffffffffffffffffffffffffffffffffffffffff16630c72c3a16040518163ffffffff1660e01b8152600401600060405180830381600087803b15801561035f57600080fd5b505af1158015610373573d6000803e3d6000fd5b50505050565b600b60009054906101000a900473ffffffffffffffffffffffffffffffffffffffff1673ffffffffffffffffffffffffffffffffffffffff16630bec063d6006546007805490506008546040518463ffffffff1660e01b81526004016103e1939291906115e1565b600060405180830381600087803b1580156103fb57600080fd5b505af115801561040f573d6000803e3d6000fd5b505050506040513d6000823e3d601f19601f820116820180604052508101906104389190611051565b6009908051906020019061044d929190610de6565b5060005b60065481101561061a57600a600760098381548110610499577f4e487b7100000000000000000000000000000000000000000000000000000000600052603260045260246000fd5b9060005260206000200154815481106104db577f4e487b7100000000000000000000000000000000000000000000000000000000600052603260045260246000fd5b9060005260206000200160009054906101000a900473ffffffffffffffffffffffffffffffffffffffff169080600181540180825580915050600190039060005260206000200160009091909190916101000a81548173ffffffffffffffffffffffffffffffffffffffff021916908373ffffffffffffffffffffffffffffffffffffffff160217905550600d60009054906101000a900473ffffffffffffffffffffffffffffffffffffffff1673ffffffffffffffffffffffffffffffffffffffff1663d204c45e73e74b66fcd6d6d9d23474c24ea70ad71373cd5e796040518263ffffffff1660e01b81526004016105d591906113d2565b600060405180830381600087803b1580156105ef57600080fd5b505af1158015610603573d6000803e3d6000fd5b505050508080610612906118d9565b915050610451565b50600b60009054906101000a900473ffffffffffffffffffffffffffffffffffffffff1673ffffffffffffffffffffffffffffffffffffffff1663597ef66f6006546040518263ffffffff1660e01b81526004016106789190611581565b600060405180830381600087803b15801561069257600080fd5b505af11580156106a6573d6000803e3d6000fd5b50505050565b600c60009054906101000a900473ffffffffffffffffffffffffffffffffffffffff1681565b6060600980548060200260200160405190810160405280929190818152602001828054801561072057602002820191906000526020600020905b81548152602001906001019080831161070c575b5050505050905090565b6060806000806002600360045460055483805461074690611876565b80601f016020809104026020016040519081016040528092919081815260200182805461077290611876565b80156107bf5780601f10610794576101008083540402835291602001916107bf565b820191906000526020600020905b8154815290600101906020018083116107a257829003601f168201915b505050505093508280546107d290611876565b80601f01602080910402602001604051908101604052809291908181526020018280546107fe90611876565b801561084b5780601f106108205761010080835404028352916020019161084b565b820191906000526020600020905b81548152906001019060200180831161082e57829003601f168201915b50505050509250935093509350935090919293565b610868610c9c565b600c60009054906101000a900473ffffffffffffffffffffffffffffffffffffffff1673ffffffffffffffffffffffffffffffffffffffff166340c10f198260015460016108b69190611728565b6040518363ffffffff1660e01b81526004016108d3929190611400565b600060405180830381600087803b1580156108ed57600080fd5b505af1158015610901573d6000803e3d6000fd5b5050505050565b610910610c9c565b61091a6000610d1a565b565b6007339080600181540180825580915050600190039060005260206000200160009091909190916101000a81548173ffffffffffffffffffffffffffffffffffffffff021916908373ffffffffffffffffffffffffffffffffffffffff1602179055508060086000828254189250508190555050565b600d60009054906101000a900473ffffffffffffffffffffffffffffffffffffffff1681565b60008060009054906101000a900473ffffffffffffffffffffffffffffffffffffffff16905090565b6109e9610c9c565b8060068190555050565b600080600080600b60009054906101000a900473ffffffffffffffffffffffffffffffffffffffff1673ffffffffffffffffffffffffffffffffffffffff16635a9b0b896040518163ffffffff1660e01b815260040160806040518083038186803b158015610a6157600080fd5b505afa158015610a75573d6000803e3d6000fd5b505050506040513d601f19601f82011682018060405250810190610a99919061114e565b935093509350935090919293565b6060600a805480602002602001604051908101604052809291908181526020018280548015610b2b57602002820191906000526020600020905b8160009054906101000a900473ffffffffffffffffffffffffffffffffffffffff1673ffffffffffffffffffffffffffffffffffffffff1681526020019060010190808311610ae1575b5050505050905090565b60606000600760085481805480602002602001604051908101604052809291908181526020018280548015610bbf57602002820191906000526020600020905b8160009054906101000a900473ffffffffffffffffffffffffffffffffffffffff1673ffffffffffffffffffffffffffffffffffffffff1681526020019060010190808311610b75575b50505050509150915091509091565b610bd6610c9c565b8360029080519060200190610bec929190610e33565b508260039080519060200190610c03929190610e33565b50816004819055508060058190555050505050565b610c20610c9c565b600073ffffffffffffffffffffffffffffffffffffffff168173ffffffffffffffffffffffffffffffffffffffff161415610c90576040517f08c379a0000000000000000000000000000000000000000000000000000000008152600401610c8790611541565b60405180910390fd5b610c9981610d1a565b50565b610ca4610dde565b73ffffffffffffffffffffffffffffffffffffffff16610cc26109b8565b73ffffffffffffffffffffffffffffffffffffffff1614610d18576040517f08c379a0000000000000000000000000000000000000000000000000000000008152600401610d0f90611561565b60405180910390fd5b565b60008060009054906101000a900473ffffffffffffffffffffffffffffffffffffffff169050816000806101000a81548173ffffffffffffffffffffffffffffffffffffffff021916908373ffffffffffffffffffffffffffffffffffffffff1602179055508173ffffffffffffffffffffffffffffffffffffffff168173ffffffffffffffffffffffffffffffffffffffff167f8be0079c531659141344cd1fd0a4f28419497f9722a3daafe3b4186f6b6457e060405160405180910390a35050565b600033905090565b828054828255906000526020600020908101928215610e22579160200282015b82811115610e21578251825591602001919060010190610e06565b5b509050610e2f9190610eb9565b5090565b828054610e3f90611876565b90600052602060002090601f016020900481019282610e615760008555610ea8565b82601f10610e7a57805160ff1916838001178555610ea8565b82800160010185558215610ea8579182015b82811115610ea7578251825591602001919060010190610e8c565b5b509050610eb59190610eb9565b5090565b5b80821115610ed2576000816000905550600101610eba565b5090565b6000610ee9610ee48461163d565b611618565b90508083825260208201905082856020860282011115610f0857600080fd5b60005b85811015610f385781610f1e8882611013565b845260208401935060208301925050600181019050610f0b565b5050509392505050565b6000610f55610f5084611669565b611618565b905082815260208101848484011115610f6d57600080fd5b610f78848285611834565b509392505050565b600081359050610f8f81611aad565b92915050565b600082601f830112610fa657600080fd5b8151610fb6848260208601610ed6565b91505092915050565b600081519050610fce81611ac4565b92915050565b600082601f830112610fe557600080fd5b8135610ff5848260208601610f42565b91505092915050565b60008135905061100d81611adb565b92915050565b60008151905061102281611adb565b92915050565b60006020828403121561103a57600080fd5b600061104884828501610f80565b91505092915050565b60006020828403121561106357600080fd5b600082015167ffffffffffffffff81111561107d57600080fd5b61108984828501610f95565b91505092915050565b600080600080608085870312156110a857600080fd5b600085013567ffffffffffffffff8111156110c257600080fd5b6110ce87828801610fd4565b945050602085013567ffffffffffffffff8111156110eb57600080fd5b6110f787828801610fd4565b935050604061110887828801610ffe565b925050606061111987828801610ffe565b91505092959194509250565b60006020828403121561113757600080fd5b600061114584828501610ffe565b91505092915050565b6000806000806080858703121561116457600080fd5b600061117287828801611013565b945050602061118387828801611013565b935050604061119487828801610fbf565b92505060606111a587828801611013565b91505092959194509250565b60006111bd83836111e1565b60208301905092915050565b60006111d58383611399565b60208301905092915050565b6111ea81611782565b82525050565b6111f981611782565b82525050565b600061120a826116ba565b61121481856116f5565b935061121f8361169a565b8060005b8381101561125057815161123788826111b1565b9750611242836116db565b925050600181019050611223565b5085935050505092915050565b6000611268826116c5565b6112728185611706565b935061127d836116aa565b8060005b838110156112ae57815161129588826111c9565b97506112a0836116e8565b925050600181019050611281565b5085935050505092915050565b6112c481611794565b82525050565b6112d3816117c8565b82525050565b6112e2816117ec565b82525050565b6112f181611810565b82525050565b6000611302826116d0565b61130c8185611717565b935061131c818560208601611843565b611325816119af565b840191505092915050565b600061133d602683611717565b9150611348826119c0565b604082019050919050565b6000611360602083611717565b915061136b82611a0f565b602082019050919050565b6000611383605383611717565b915061138e82611a38565b606082019050919050565b6113a2816117be565b82525050565b6113b1816117be565b82525050565b60006020820190506113cc60008301846111f0565b92915050565b60006040820190506113e760008301846111f0565b81810360208301526113f881611376565b905092915050565b600060408201905061141560008301856111f0565b61142260208301846113a8565b9392505050565b6000602082019050818103600083015261144381846111ff565b905092915050565b6000604082019050818103600083015261146581856111ff565b905061147460208301846113a8565b9392505050565b60006020820190508181036000830152611495818461125d565b905092915050565b60006020820190506114b260008301846112ca565b92915050565b60006020820190506114cd60008301846112d9565b92915050565b60006020820190506114e860008301846112e8565b92915050565b6000608082019050818103600083015261150881876112f7565b9050818103602083015261151c81866112f7565b905061152b60408301856113a8565b61153860608301846113a8565b95945050505050565b6000602082019050818103600083015261155a81611330565b9050919050565b6000602082019050818103600083015261157a81611353565b9050919050565b600060208201905061159660008301846113a8565b92915050565b60006080820190506115b160008301876113a8565b6115be60208301866113a8565b6115cb60408301856112bb565b6115d860608301846113a8565b95945050505050565b60006060820190506115f660008301866113a8565b61160360208301856113a8565b61161060408301846113a8565b949350505050565b6000611622611633565b905061162e82826118a8565b919050565b6000604051905090565b600067ffffffffffffffff82111561165857611657611980565b5b602082029050602081019050919050565b600067ffffffffffffffff82111561168457611683611980565b5b61168d826119af565b9050602081019050919050565b6000819050602082019050919050565b6000819050602082019050919050565b600081519050919050565b600081519050919050565b600081519050919050565b6000602082019050919050565b6000602082019050919050565b600082825260208201905092915050565b600082825260208201905092915050565b600082825260208201905092915050565b6000611733826117be565b915061173e836117be565b9250817fffffffffffffffffffffffffffffffffffffffffffffffffffffffffffffffff048311821515161561177757611776611922565b5b828202905092915050565b600061178d8261179e565b9050919050565b6000819050919050565b600073ffffffffffffffffffffffffffffffffffffffff82169050919050565b6000819050919050565b60006117d3826117da565b9050919050565b60006117e58261179e565b9050919050565b60006117f7826117fe565b9050919050565b60006118098261179e565b9050919050565b600061181b82611822565b9050919050565b600061182d8261179e565b9050919050565b82818337600083830152505050565b60005b83811015611861578082015181840152602081019050611846565b83811115611870576000848401525b50505050565b6000600282049050600182168061188e57607f821691505b602082108114156118a2576118a1611951565b5b50919050565b6118b1826119af565b810181811067ffffffffffffffff821117156118d0576118cf611980565b5b80604052505050565b60006118e4826117be565b91507fffffffffffffffffffffffffffffffffffffffffffffffffffffffffffffffff82141561191757611916611922565b5b600182019050919050565b7f4e487b7100000000000000000000000000000000000000000000000000000000600052601160045260246000fd5b7f4e487b7100000000000000000000000000000000000000000000000000000000600052602260045260246000fd5b7f4e487b7100000000000000000000000000000000000000000000000000000000600052604160045260246000fd5b6000601f19601f8301169050919050565b7f4f776e61626c653a206e6577206f776e657220697320746865207a65726f206160008201527f6464726573730000000000000000000000000000000000000000000000000000602082015250565b7f4f776e61626c653a2063616c6c6572206973206e6f7420746865206f776e6572600082015250565b7f68747470733a2f2f6d6574612d6e65742e68616e6174692e636f2e6b723a333060008201527f30302f7374756d702f7374617469632f6a736f6e2f5374756d705f4e46545f4d60208201527f657461646174615f6465765f30312e6a736f6e00000000000000000000000000604082015250565b611ab681611782565b8114611ac157600080fd5b50565b611acd81611794565b8114611ad857600080fd5b50565b611ae4816117be565b8114611aef57600080fd5b5056fea264697066735822122001eeea0a5cab67e982b6b22f8e6b9675c07d6b4d56a14029f9f89e688cb4557d64736f6c63430008010033",
  "immutableReferences": {},
  "source": "// SPDX-License-Identifier: MIT\r\npragma solidity 0.8.1;\r\n\r\nimport \"@openzeppelin/contracts/access/Ownable.sol\";\r\nimport \"./RandomNumber.sol\";\r\nimport \"./TrophyToken.sol\";\r\nimport \"./PudingToken.sol\";\r\nimport \"./myToken.sol\";\r\n\r\ncontract Agenda is Ownable{\r\n    uint256 eth = 10**18;\r\n    string private TITLE; // \r\n    string private AGENDA_TYPE; //  \r\n    uint256 private START_DATETIME; // TIMESTAMP\r\n    uint256 private END_DATETIME; // TIMESTAMP\r\n\r\n    uint256 private WINNERS_COUNT = 1; //  \r\n \r\n    address[] private applicants = [0xE74B66fCD6d6D9d23474c24EA70Ad71373cD5E79, 0xE74B66fCD6d6D9d23474c24EA70Ad71373cD5E79, 0xE74B66fCD6d6D9d23474c24EA70Ad71373cD5E79];\r\n    uint256 resultXOR = 0;\r\n\r\n    uint256[] private winNum;\r\n    address[] private winners;\r\n    \r\n    RandomNumber public randomnumber;\r\n    PudingToken public pudingtoken;\r\n    TrophyToken public trophytoken;\r\n    // MyToken public mytoken; // for test\r\n\r\n    constructor (string memory _Title, string memory _AgendaType, uint256 _StartDateTime, uint256 _EndDateTime, address _randAddr, address _pudAddr, address _nftAddr) {\r\n        transferOwnership(msg.sender);\r\n        TITLE = _Title;\r\n        AGENDA_TYPE = _AgendaType;\r\n        START_DATETIME = _StartDateTime;\r\n        END_DATETIME = _EndDateTime;\r\n        randomnumber = RandomNumber(_randAddr);\r\n        pudingtoken = PudingToken(_pudAddr);\r\n        trophytoken = TrophyToken(_nftAddr); // for test\r\n        // mytoken = MyToken(_nftAddr); // for test\r\n    }\r\n\r\n    //      \r\n    function inArray(address[] memory tempArray ,address applicant) private returns(bool){\r\n        for (uint256 i = 0 ; i < tempArray.length ; i++) {\r\n            if(tempArray[i] == applicant) {\r\n                return true;\r\n            }\r\n        }\r\n        return false;\r\n\r\n    }\r\n\r\n    //   \r\n    function modifyInfo(string memory newTitle, string memory newAgendaType, uint256 newStartDateTime, uint256 newEndDateTime) public onlyOwner{\r\n        TITLE = newTitle;\r\n        AGENDA_TYPE = newAgendaType;\r\n        START_DATETIME = newStartDateTime;\r\n        END_DATETIME = newEndDateTime;\r\n    }\r\n\r\n    //   \r\n    function setWinnerCount(uint256 num) public onlyOwner{\r\n        WINNERS_COUNT = num;\r\n    }\r\n\r\n    //   \r\n    function mintPDK(address to) public onlyOwner{\r\n        pudingtoken.mint(to, 1*eth);\r\n    }\r\n\r\n    // //\r\n    // function application(uint256 inpNum) public {\r\n    //     if(inArray(applicants,msg.sender)) {\r\n    //         revert(\"already application\");\r\n    //     }\r\n    //     else {\r\n    //         if(pudingtoken.balanceOf(msg.sender) < 1*eth) {\r\n    //             revert(\"not enough token\");\r\n    //         }\r\n    //         applicants.push(msg.sender);\r\n    //         resultXOR ^= inpNum;\r\n    //         pudingtoken.burn(msg.sender,1*eth);\r\n    //     }\r\n    // }\r\n\r\n    // \r\n    function draw() public{\r\n        // num    \r\n        winNum = randomnumber.generateRandNum(WINNERS_COUNT, applicants.length, resultXOR);\r\n\r\n        //     \r\n        for (uint256 i = 0 ; i < WINNERS_COUNT; i++) {\r\n            winners.push(applicants[winNum[i]]);\r\n            // Sample image url\r\n            trophytoken.safeMint(0xE74B66fCD6d6D9d23474c24EA70Ad71373cD5E79,\"https://meta-net.hanati.co.kr:3000/stump/static/json/Stump_NFT_Metadata_dev_01.json\"); // for test\r\n        }\r\n\r\n        randomnumber.optAll(WINNERS_COUNT);\r\n    }\r\n\r\n    //   \r\n    function getInfo() public view returns(string memory, string memory, uint256, uint256) {\r\n        return (TITLE, AGENDA_TYPE, START_DATETIME, END_DATETIME);\r\n    }\r\n\r\n\r\n    //  ////////////\r\n\r\n    //    \r\n    function getWinNum() public view returns(uint256[] memory) {\r\n        return winNum;\r\n    }\r\n\r\n    //   \r\n    function getWinners() public view returns(address[] memory) {\r\n        return winners;\r\n    }\r\n\r\n    //      \r\n    function getRandInfo() public view returns(uint256, uint256, bytes32, uint256) {\r\n        return randomnumber.getInfo();\r\n    }\r\n\r\n    function getAppInfo() public view returns(address[] memory, uint256) {\r\n        return (applicants,resultXOR);\r\n    }\r\n\r\n    //   \r\n    function setBlockInfo() public{\r\n        randomnumber.setBlockInfo();\r\n    }\r\n\r\n    \r\n\r\n    //  \r\n    function application(uint256 inpNum) public {\r\n        // if(inArray(applicants,msg.sender)) {\r\n        //     revert(\"already application\");\r\n        // }\r\n        // else {\r\n        //     if(pudingtoken.balanceOf(msg.sender) < 1*eth) {\r\n        //         revert(\"not enough token\");\r\n        //     }\r\n        applicants.push(msg.sender);\r\n        resultXOR ^= inpNum;\r\n        //pudingtoken.burn(msg.sender,1*eth);\r\n        \r\n    }    \r\n\r\n}",
  "sourcePath": "C:\\Users\\HanaTI\\Desktop\\Project\\1Q-On-the-Block\\1Q-contract-ver3\\contracts\\Agenda.sol",
  "compiler": {
    "name": "solc",
    "version": "0.8.1+commit.df193b15.Emscripten.clang"
  },
  "schemaVersion": "3.4.14",
  "updatedAt": "2023-09-12T09:03:47.226Z",
  "networkType": "ethereum",
  "devdoc": {
    "kind": "dev",
    "methods": {
      "owner()": {
        "details": "Returns the address of the current owner."
      },
      "renounceOwnership()": {
        "details": "Leaves the contract without owner. It will not be possible to call `onlyOwner` functions. Can only be called by the current owner. NOTE: Renouncing ownership will leave the contract without an owner, thereby disabling any functionality that is only available to the owner."
      },
      "transferOwnership(address)": {
        "details": "Transfers ownership of the contract to a new account (`newOwner`). Can only be called by the current owner."
      }
    },
    "version": 1
  },
  "userdoc": {
    "kind": "user",
    "methods": {},
    "version": 1
  }
}