{
  "contractName": "Agenda",
  "abi": [
    {
      "inputs": [
        {
          "internalType": "string",
          "name": "_Title",
          "type": "string"
        },
        {
          "internalType": "string",
          "name": "_AgendaType",
          "type": "string"
        },
        {
          "internalType": "uint256",
          "name": "_StartDateTime",
          "type": "uint256"
        },
        {
          "internalType": "uint256",
          "name": "_EndDateTime",
          "type": "uint256"
        },
        {
          "internalType": "address",
          "name": "_randAddr",
          "type": "address"
        },
        {
          "internalType": "address",
          "name": "_pudAddr",
          "type": "address"
        },
        {
          "internalType": "address",
          "name": "_nftAddr",
          "type": "address"
        },
        {
          "internalType": "string",
          "name": "_imageURI",
          "type": "string"
        }
      ],
      "stateMutability": "nonpayable",
      "type": "constructor"
    },
    {
      "anonymous": false,
      "inputs": [
        {
          "indexed": true,
          "internalType": "address",
          "name": "previousOwner",
          "type": "address"
        },
        {
          "indexed": true,
          "internalType": "address",
          "name": "newOwner",
          "type": "address"
        }
      ],
      "name": "OwnershipTransferred",
      "type": "event"
    },
    {
      "inputs": [],
      "name": "owner",
      "outputs": [
        {
          "internalType": "address",
          "name": "",
          "type": "address"
        }
      ],
      "stateMutability": "view",
      "type": "function"
    },
    {
      "inputs": [],
      "name": "pudingtoken",
      "outputs": [
        {
          "internalType": "contract PudingToken",
          "name": "",
          "type": "address"
        }
      ],
      "stateMutability": "view",
      "type": "function"
    },
    {
      "inputs": [],
      "name": "randomnumber",
      "outputs": [
        {
          "internalType": "contract RandomNumber",
          "name": "",
          "type": "address"
        }
      ],
      "stateMutability": "view",
      "type": "function"
    },
    {
      "inputs": [],
      "name": "renounceOwnership",
      "outputs": [],
      "stateMutability": "nonpayable",
      "type": "function"
    },
    {
      "inputs": [
        {
          "internalType": "address",
          "name": "newOwner",
          "type": "address"
        }
      ],
      "name": "transferOwnership",
      "outputs": [],
      "stateMutability": "nonpayable",
      "type": "function"
    },
    {
      "inputs": [],
      "name": "trophytoken",
      "outputs": [
        {
          "internalType": "contract TrophyToken",
          "name": "",
          "type": "address"
        }
      ],
      "stateMutability": "view",
      "type": "function"
    },
    {
      "inputs": [
        {
          "internalType": "string",
          "name": "newTitle",
          "type": "string"
        },
        {
          "internalType": "string",
          "name": "newAgendaType",
          "type": "string"
        },
        {
          "internalType": "uint256",
          "name": "newStartDateTime",
          "type": "uint256"
        },
        {
          "internalType": "uint256",
          "name": "newEndDateTime",
          "type": "uint256"
        }
      ],
      "name": "modifyInfo",
      "outputs": [],
      "stateMutability": "nonpayable",
      "type": "function"
    },
    {
      "inputs": [
        {
          "internalType": "uint256",
          "name": "num",
          "type": "uint256"
        }
      ],
      "name": "setWinnerCount",
      "outputs": [],
      "stateMutability": "nonpayable",
      "type": "function"
    },
    {
      "inputs": [
        {
          "internalType": "address",
          "name": "to",
          "type": "address"
        }
      ],
      "name": "mintPDK",
      "outputs": [],
      "stateMutability": "nonpayable",
      "type": "function"
    },
    {
      "inputs": [
        {
          "internalType": "uint256",
          "name": "inpNum",
          "type": "uint256"
        }
      ],
      "name": "application",
      "outputs": [],
      "stateMutability": "nonpayable",
      "type": "function"
    },
    {
      "inputs": [],
      "name": "setBlockInfo",
      "outputs": [],
      "stateMutability": "nonpayable",
      "type": "function"
    },
    {
      "inputs": [],
      "name": "draw",
      "outputs": [],
      "stateMutability": "nonpayable",
      "type": "function"
    },
    {
      "inputs": [],
      "name": "getInfo",
      "outputs": [
        {
          "internalType": "string",
          "name": "",
          "type": "string"
        },
        {
          "internalType": "string",
          "name": "",
          "type": "string"
        },
        {
          "internalType": "uint256",
          "name": "",
          "type": "uint256"
        },
        {
          "internalType": "uint256",
          "name": "",
          "type": "uint256"
        }
      ],
      "stateMutability": "view",
      "type": "function"
    },
    {
      "inputs": [],
      "name": "getWinNum",
      "outputs": [
        {
          "internalType": "uint256[]",
          "name": "",
          "type": "uint256[]"
        }
      ],
      "stateMutability": "view",
      "type": "function"
    },
    {
      "inputs": [],
      "name": "getWinners",
      "outputs": [
        {
          "internalType": "address[]",
          "name": "",
          "type": "address[]"
        }
      ],
      "stateMutability": "view",
      "type": "function"
    },
    {
      "inputs": [],
      "name": "getRandInfo",
      "outputs": [
        {
          "internalType": "uint256",
          "name": "",
          "type": "uint256"
        },
        {
          "internalType": "uint256",
          "name": "",
          "type": "uint256"
        },
        {
          "internalType": "bytes32",
          "name": "",
          "type": "bytes32"
        },
        {
          "internalType": "uint256",
          "name": "",
          "type": "uint256"
        }
      ],
      "stateMutability": "view",
      "type": "function"
    },
    {
      "inputs": [],
      "name": "getAppInfo",
      "outputs": [
        {
          "internalType": "address[]",
          "name": "",
          "type": "address[]"
        },
        {
          "internalType": "uint256",
          "name": "",
          "type": "uint256"
        }
      ],
      "stateMutability": "view",
      "type": "function"
    }
  ],
  "bytecode": "0x6080604052670de0b6b3a76400006001556000600655604051806060016040528073e74b66fcd6d6d9d23474c24ea70ad71373cd5e7973ffffffffffffffffffffffffffffffffffffffff1673ffffffffffffffffffffffffffffffffffffffff16815260200173e74b66fcd6d6d9d23474c24ea70ad71373cd5e7973ffffffffffffffffffffffffffffffffffffffff1673ffffffffffffffffffffffffffffffffffffffff16815260200173e74b66fcd6d6d9d23474c24ea70ad71373cd5e7973ffffffffffffffffffffffffffffffffffffffff1673ffffffffffffffffffffffffffffffffffffffff16815250600d9060036200010292919062000351565b506001600e553480156200011557600080fd5b50604051620027d1380380620027d183398181016040528101906200013b919062000530565b6200015b6200014f6200028560201b60201c565b6200028d60201b60201c565b876002908051906020019062000173929190620003e0565b5086600390805190602001906200018c929190620003e0565b50856004819055508460058190555083600960006101000a81548173ffffffffffffffffffffffffffffffffffffffff021916908373ffffffffffffffffffffffffffffffffffffffff16021790555082600a60006101000a81548173ffffffffffffffffffffffffffffffffffffffff021916908373ffffffffffffffffffffffffffffffffffffffff16021790555081600b60006101000a81548173ffffffffffffffffffffffffffffffffffffffff021916908373ffffffffffffffffffffffffffffffffffffffff16021790555080600c908051906020019062000276929190620003e0565b50505050505050505062000820565b600033905090565b60008060009054906101000a900473ffffffffffffffffffffffffffffffffffffffff169050816000806101000a81548173ffffffffffffffffffffffffffffffffffffffff021916908373ffffffffffffffffffffffffffffffffffffffff1602179055508173ffffffffffffffffffffffffffffffffffffffff168173ffffffffffffffffffffffffffffffffffffffff167f8be0079c531659141344cd1fd0a4f28419497f9722a3daafe3b4186f6b6457e060405160405180910390a35050565b828054828255906000526020600020908101928215620003cd579160200282015b82811115620003cc5782518260006101000a81548173ffffffffffffffffffffffffffffffffffffffff021916908373ffffffffffffffffffffffffffffffffffffffff1602179055509160200191906001019062000372565b5b509050620003dc919062000471565b5090565b828054620003ee9062000711565b90600052602060002090601f0160209004810192826200041257600085556200045e565b82601f106200042d57805160ff19168380011785556200045e565b828001600101855582156200045e579182015b828111156200045d57825182559160200191906001019062000440565b5b5090506200046d919062000471565b5090565b5b808211156200048c57600081600090555060010162000472565b5090565b6000620004a7620004a18462000667565b6200063e565b905082815260208101848484011115620004c057600080fd5b620004cd848285620006db565b509392505050565b600081519050620004e681620007ec565b92915050565b600082601f830112620004fe57600080fd5b81516200051084826020860162000490565b91505092915050565b6000815190506200052a8162000806565b92915050565b600080600080600080600080610100898b0312156200054e57600080fd5b600089015167ffffffffffffffff8111156200056957600080fd5b620005778b828c01620004ec565b985050602089015167ffffffffffffffff8111156200059557600080fd5b620005a38b828c01620004ec565b9750506040620005b68b828c0162000519565b9650506060620005c98b828c0162000519565b9550506080620005dc8b828c01620004d5565b94505060a0620005ef8b828c01620004d5565b93505060c0620006028b828c01620004d5565b92505060e089015167ffffffffffffffff8111156200062057600080fd5b6200062e8b828c01620004ec565b9150509295985092959890939650565b60006200064a6200065d565b905062000658828262000747565b919050565b6000604051905090565b600067ffffffffffffffff821115620006855762000684620007ac565b5b6200069082620007db565b9050602081019050919050565b6000620006aa82620006b1565b9050919050565b600073ffffffffffffffffffffffffffffffffffffffff82169050919050565b6000819050919050565b60005b83811015620006fb578082015181840152602081019050620006de565b838111156200070b576000848401525b50505050565b600060028204905060018216806200072a57607f821691505b602082108114156200074157620007406200077d565b5b50919050565b6200075282620007db565b810181811067ffffffffffffffff82111715620007745762000773620007ac565b5b80604052505050565b7f4e487b7100000000000000000000000000000000000000000000000000000000600052602260045260246000fd5b7f4e487b7100000000000000000000000000000000000000000000000000000000600052604160045260246000fd5b6000601f19601f8301169050919050565b620007f7816200069d565b81146200080357600080fd5b50565b6200081181620006d1565b81146200081d57600080fd5b50565b611fa180620008306000396000f3fe608060405234801561001057600080fd5b506004361061010b5760003560e01c80637a301cc3116100a2578063c749713011610071578063c749713014610239578063df15c37e1461025a578063e26799ff14610278578063ee6f792714610297578063f2fde38b146102b35761010b565b80637a301cc3146101c557806387d81231146101e15780638da5cb5b146101ff5780639d811dca1461021d5761010b565b80633c6d31b0116100de5780633c6d31b0146101605780635a9b0b891461017e57806366fec6e11461019f578063715018a6146101bb5761010b565b8063080d0de2146101105780630c72c3a11461012e5780630eecae211461013857806325f0860c14610142575b600080fd5b6101186102cf565b60405161012591906118ff565b60405180910390f35b6101366102f5565b005b610140610381565b005b61014a61070f565b60405161015791906118e4565b60405180910390f35b610168610735565b60405161017591906118c2565b60405180910390f35b61018661078d565b6040516101969493929190611935565b60405180910390f35b6101b960048036038101906101b491906113a1565b6108c3565b005b6101c361096b565b005b6101df60048036038101906101da919061149e565b61097f565b005b6101e9610c5d565b6040516101f6919061191a565b60405180910390f35b610207610c83565b60405161021491906117fc565b60405180910390f35b6102376004803603810190610232919061149e565b610cac565b005b610241610cbe565b6040516102519493929190611a23565b60405180910390f35b610262610d72565b60405161026f9190611870565b60405180910390f35b610280610e00565b60405161028e929190611892565b60405180910390f35b6102b160048036038101906102ac919061140b565b610e99565b005b6102cd60048036038101906102c891906113a1565b610ee3565b005b600960009054906101000a900473ffffffffffffffffffffffffffffffffffffffff1681565b6102fd610f67565b600960009054906101000a900473ffffffffffffffffffffffffffffffffffffffff1673ffffffffffffffffffffffffffffffffffffffff16630c72c3a16040518163ffffffff1660e01b8152600401600060405180830381600087803b15801561036757600080fd5b505af115801561037b573d6000803e3d6000fd5b50505050565b610389610f67565b600960009054906101000a900473ffffffffffffffffffffffffffffffffffffffff1673ffffffffffffffffffffffffffffffffffffffff16630bec063d600e54600d805490506006546040518463ffffffff1660e01b81526004016103f193929190611a68565b600060405180830381600087803b15801561040b57600080fd5b505af115801561041f573d6000803e3d6000fd5b505050506040513d6000823e3d601f19601f8201168201806040525081019061044891906113ca565b6007908051906020019061045d92919061115f565b5060005b600e5481101561067d576008600d600783815481106104a9577f4e487b7100000000000000000000000000000000000000000000000000000000600052603260045260246000fd5b9060005260206000200154815481106104eb577f4e487b7100000000000000000000000000000000000000000000000000000000600052603260045260246000fd5b9060005260206000200160009054906101000a900473ffffffffffffffffffffffffffffffffffffffff169080600181540180825580915050600190039060005260206000200160009091909190916101000a81548173ffffffffffffffffffffffffffffffffffffffff021916908373ffffffffffffffffffffffffffffffffffffffff160217905550600b60009054906101000a900473ffffffffffffffffffffffffffffffffffffffff1673ffffffffffffffffffffffffffffffffffffffff1663d204c45e600883815481106105ee577f4e487b7100000000000000000000000000000000000000000000000000000000600052603260045260246000fd5b9060005260206000200160009054906101000a900473ffffffffffffffffffffffffffffffffffffffff16600c6040518363ffffffff1660e01b8152600401610638929190611817565b600060405180830381600087803b15801561065257600080fd5b505af1158015610666573d6000803e3d6000fd5b50505050808061067590611d75565b915050610461565b50600960009054906101000a900473ffffffffffffffffffffffffffffffffffffffff1673ffffffffffffffffffffffffffffffffffffffff1663597ef66f600e546040518263ffffffff1660e01b81526004016106db9190611a08565b600060405180830381600087803b1580156106f557600080fd5b505af1158015610709573d6000803e3d6000fd5b50505050565b600a60009054906101000a900473ffffffffffffffffffffffffffffffffffffffff1681565b6060600780548060200260200160405190810160405280929190818152602001828054801561078357602002820191906000526020600020905b81548152602001906001019080831161076f575b5050505050905090565b606080600080600260036004546005548380546107a990611d12565b80601f01602080910402602001604051908101604052809291908181526020018280546107d590611d12565b80156108225780601f106107f757610100808354040283529160200191610822565b820191906000526020600020905b81548152906001019060200180831161080557829003601f168201915b5050505050935082805461083590611d12565b80601f016020809104026020016040519081016040528092919081815260200182805461086190611d12565b80156108ae5780601f10610883576101008083540402835291602001916108ae565b820191906000526020600020905b81548152906001019060200180831161089157829003601f168201915b50505050509250935093509350935090919293565b6108cb610f67565b600a60009054906101000a900473ffffffffffffffffffffffffffffffffffffffff1673ffffffffffffffffffffffffffffffffffffffff166340c10f198260015460016109199190611bc4565b6040518363ffffffff1660e01b8152600401610936929190611847565b600060405180830381600087803b15801561095057600080fd5b505af1158015610964573d6000803e3d6000fd5b5050505050565b610973610f67565b61097d6000610fe5565b565b610a0f600d805480602002602001604051908101604052809291908181526020018280548015610a0457602002820191906000526020600020905b8160009054906101000a900473ffffffffffffffffffffffffffffffffffffffff1673ffffffffffffffffffffffffffffffffffffffff16815260200190600101908083116109ba575b5050505050336110a9565b15610a4f576040517f08c379a0000000000000000000000000000000000000000000000000000000008152600401610a46906119e8565b60405180910390fd5b6001546001610a5e9190611bc4565b600a60009054906101000a900473ffffffffffffffffffffffffffffffffffffffff1673ffffffffffffffffffffffffffffffffffffffff166370a08231336040518263ffffffff1660e01b8152600401610ab991906117fc565b60206040518083038186803b158015610ad157600080fd5b505afa158015610ae5573d6000803e3d6000fd5b505050506040513d601f19601f82011682018060405250810190610b0991906114c7565b1015610b4a576040517f08c379a0000000000000000000000000000000000000000000000000000000008152600401610b41906119a8565b60405180910390fd5b600d339080600181540180825580915050600190039060005260206000200160009091909190916101000a81548173ffffffffffffffffffffffffffffffffffffffff021916908373ffffffffffffffffffffffffffffffffffffffff16021790555080600660008282541892505081905550600a60009054906101000a900473ffffffffffffffffffffffffffffffffffffffff1673ffffffffffffffffffffffffffffffffffffffff16639dc29fac336001546001610c0b9190611bc4565b6040518363ffffffff1660e01b8152600401610c28929190611847565b600060405180830381600087803b158015610c4257600080fd5b505af1158015610c56573d6000803e3d6000fd5b5050505050565b600b60009054906101000a900473ffffffffffffffffffffffffffffffffffffffff1681565b60008060009054906101000a900473ffffffffffffffffffffffffffffffffffffffff16905090565b610cb4610f67565b80600e8190555050565b600080600080600960009054906101000a900473ffffffffffffffffffffffffffffffffffffffff1673ffffffffffffffffffffffffffffffffffffffff16635a9b0b896040518163ffffffff1660e01b815260040160806040518083038186803b158015610d2c57600080fd5b505afa158015610d40573d6000803e3d6000fd5b505050506040513d601f19601f82011682018060405250810190610d6491906114f0565b935093509350935090919293565b60606008805480602002602001604051908101604052809291908181526020018280548015610df657602002820191906000526020600020905b8160009054906101000a900473ffffffffffffffffffffffffffffffffffffffff1673ffffffffffffffffffffffffffffffffffffffff1681526020019060010190808311610dac575b5050505050905090565b60606000600d60065481805480602002602001604051908101604052809291908181526020018280548015610e8a57602002820191906000526020600020905b8160009054906101000a900473ffffffffffffffffffffffffffffffffffffffff1673ffffffffffffffffffffffffffffffffffffffff1681526020019060010190808311610e40575b50505050509150915091509091565b610ea1610f67565b8360029080519060200190610eb79291906111ac565b508260039080519060200190610ece9291906111ac565b50816004819055508060058190555050505050565b610eeb610f67565b600073ffffffffffffffffffffffffffffffffffffffff168173ffffffffffffffffffffffffffffffffffffffff161415610f5b576040517f08c379a0000000000000000000000000000000000000000000000000000000008152600401610f5290611988565b60405180910390fd5b610f6481610fe5565b50565b610f6f611157565b73ffffffffffffffffffffffffffffffffffffffff16610f8d610c83565b73ffffffffffffffffffffffffffffffffffffffff1614610fe3576040517f08c379a0000000000000000000000000000000000000000000000000000000008152600401610fda906119c8565b60405180910390fd5b565b60008060009054906101000a900473ffffffffffffffffffffffffffffffffffffffff169050816000806101000a81548173ffffffffffffffffffffffffffffffffffffffff021916908373ffffffffffffffffffffffffffffffffffffffff1602179055508173ffffffffffffffffffffffffffffffffffffffff168173ffffffffffffffffffffffffffffffffffffffff167f8be0079c531659141344cd1fd0a4f28419497f9722a3daafe3b4186f6b6457e060405160405180910390a35050565b600080600090505b835181101561114b578273ffffffffffffffffffffffffffffffffffffffff1684828151811061110a577f4e487b7100000000000000000000000000000000000000000000000000000000600052603260045260246000fd5b602002602001015173ffffffffffffffffffffffffffffffffffffffff161415611138576001915050611151565b808061114390611d75565b9150506110b1565b50600090505b92915050565b600033905090565b82805482825590600052602060002090810192821561119b579160200282015b8281111561119a57825182559160200191906001019061117f565b5b5090506111a89190611232565b5090565b8280546111b890611d12565b90600052602060002090601f0160209004810192826111da5760008555611221565b82601f106111f357805160ff1916838001178555611221565b82800160010185558215611221579182015b82811115611220578251825591602001919060010190611205565b5b50905061122e9190611232565b5090565b5b8082111561124b576000816000905550600101611233565b5090565b600061126261125d84611ac4565b611a9f565b9050808382526020820190508285602086028201111561128157600080fd5b60005b858110156112b15781611297888261138c565b845260208401935060208301925050600181019050611284565b5050509392505050565b60006112ce6112c984611af0565b611a9f565b9050828152602081018484840111156112e657600080fd5b6112f1848285611cd0565b509392505050565b60008135905061130881611f26565b92915050565b600082601f83011261131f57600080fd5b815161132f84826020860161124f565b91505092915050565b60008151905061134781611f3d565b92915050565b600082601f83011261135e57600080fd5b813561136e8482602086016112bb565b91505092915050565b60008135905061138681611f54565b92915050565b60008151905061139b81611f54565b92915050565b6000602082840312156113b357600080fd5b60006113c1848285016112f9565b91505092915050565b6000602082840312156113dc57600080fd5b600082015167ffffffffffffffff8111156113f657600080fd5b6114028482850161130e565b91505092915050565b6000806000806080858703121561142157600080fd5b600085013567ffffffffffffffff81111561143b57600080fd5b6114478782880161134d565b945050602085013567ffffffffffffffff81111561146457600080fd5b6114708782880161134d565b935050604061148187828801611377565b925050606061149287828801611377565b91505092959194509250565b6000602082840312156114b057600080fd5b60006114be84828501611377565b91505092915050565b6000602082840312156114d957600080fd5b60006114e78482850161138c565b91505092915050565b6000806000806080858703121561150657600080fd5b60006115148782880161138c565b94505060206115258782880161138c565b935050604061153687828801611338565b92505060606115478782880161138c565b91505092959194509250565b600061155f8383611583565b60208301905092915050565b600061157783836117de565b60208301905092915050565b61158c81611c1e565b82525050565b61159b81611c1e565b82525050565b60006115ac82611b56565b6115b68185611b91565b93506115c183611b21565b8060005b838110156115f25781516115d98882611553565b97506115e483611b77565b9250506001810190506115c5565b5085935050505092915050565b600061160a82611b61565b6116148185611ba2565b935061161f83611b31565b8060005b83811015611650578151611637888261156b565b975061164283611b84565b925050600181019050611623565b5085935050505092915050565b61166681611c30565b82525050565b61167581611c64565b82525050565b61168481611c88565b82525050565b61169381611cac565b82525050565b60006116a482611b6c565b6116ae8185611bb3565b93506116be818560208601611cdf565b6116c781611e4b565b840191505092915050565b600081546116df81611d12565b6116e98186611bb3565b94506001821660008114611704576001811461171657611749565b60ff1983168652602086019350611749565b61171f85611b41565b60005b8381101561174157815481890152600182019150602081019050611722565b808801955050505b50505092915050565b600061175f602683611bb3565b915061176a82611e5c565b604082019050919050565b6000611782601083611bb3565b915061178d82611eab565b602082019050919050565b60006117a5602083611bb3565b91506117b082611ed4565b602082019050919050565b60006117c8601383611bb3565b91506117d382611efd565b602082019050919050565b6117e781611c5a565b82525050565b6117f681611c5a565b82525050565b60006020820190506118116000830184611592565b92915050565b600060408201905061182c6000830185611592565b818103602083015261183e81846116d2565b90509392505050565b600060408201905061185c6000830185611592565b61186960208301846117ed565b9392505050565b6000602082019050818103600083015261188a81846115a1565b905092915050565b600060408201905081810360008301526118ac81856115a1565b90506118bb60208301846117ed565b9392505050565b600060208201905081810360008301526118dc81846115ff565b905092915050565b60006020820190506118f9600083018461166c565b92915050565b6000602082019050611914600083018461167b565b92915050565b600060208201905061192f600083018461168a565b92915050565b6000608082019050818103600083015261194f8187611699565b905081810360208301526119638186611699565b905061197260408301856117ed565b61197f60608301846117ed565b95945050505050565b600060208201905081810360008301526119a181611752565b9050919050565b600060208201905081810360008301526119c181611775565b9050919050565b600060208201905081810360008301526119e181611798565b9050919050565b60006020820190508181036000830152611a01816117bb565b9050919050565b6000602082019050611a1d60008301846117ed565b92915050565b6000608082019050611a3860008301876117ed565b611a4560208301866117ed565b611a52604083018561165d565b611a5f60608301846117ed565b95945050505050565b6000606082019050611a7d60008301866117ed565b611a8a60208301856117ed565b611a9760408301846117ed565b949350505050565b6000611aa9611aba565b9050611ab58282611d44565b919050565b6000604051905090565b600067ffffffffffffffff821115611adf57611ade611e1c565b5b602082029050602081019050919050565b600067ffffffffffffffff821115611b0b57611b0a611e1c565b5b611b1482611e4b565b9050602081019050919050565b6000819050602082019050919050565b6000819050602082019050919050565b60008190508160005260206000209050919050565b600081519050919050565b600081519050919050565b600081519050919050565b6000602082019050919050565b6000602082019050919050565b600082825260208201905092915050565b600082825260208201905092915050565b600082825260208201905092915050565b6000611bcf82611c5a565b9150611bda83611c5a565b9250817fffffffffffffffffffffffffffffffffffffffffffffffffffffffffffffffff0483118215151615611c1357611c12611dbe565b5b828202905092915050565b6000611c2982611c3a565b9050919050565b6000819050919050565b600073ffffffffffffffffffffffffffffffffffffffff82169050919050565b6000819050919050565b6000611c6f82611c76565b9050919050565b6000611c8182611c3a565b9050919050565b6000611c9382611c9a565b9050919050565b6000611ca582611c3a565b9050919050565b6000611cb782611cbe565b9050919050565b6000611cc982611c3a565b9050919050565b82818337600083830152505050565b60005b83811015611cfd578082015181840152602081019050611ce2565b83811115611d0c576000848401525b50505050565b60006002820490506001821680611d2a57607f821691505b60208210811415611d3e57611d3d611ded565b5b50919050565b611d4d82611e4b565b810181811067ffffffffffffffff82111715611d6c57611d6b611e1c565b5b80604052505050565b6000611d8082611c5a565b91507fffffffffffffffffffffffffffffffffffffffffffffffffffffffffffffffff821415611db357611db2611dbe565b5b600182019050919050565b7f4e487b7100000000000000000000000000000000000000000000000000000000600052601160045260246000fd5b7f4e487b7100000000000000000000000000000000000000000000000000000000600052602260045260246000fd5b7f4e487b7100000000000000000000000000000000000000000000000000000000600052604160045260246000fd5b6000601f19601f8301169050919050565b7f4f776e61626c653a206e6577206f776e657220697320746865207a65726f206160008201527f6464726573730000000000000000000000000000000000000000000000000000602082015250565b7f6e6f7420656e6f75676820746f6b656e00000000000000000000000000000000600082015250565b7f4f776e61626c653a2063616c6c6572206973206e6f7420746865206f776e6572600082015250565b7f616c7265616479206170706c69636174696f6e00000000000000000000000000600082015250565b611f2f81611c1e565b8114611f3a57600080fd5b50565b611f4681611c30565b8114611f5157600080fd5b50565b611f5d81611c5a565b8114611f6857600080fd5b5056fea2646970667358221220cc6484420fb9a26be8e96c9c00a47e4d6b002dc87e8919cda2ce300c9a2463de64736f6c63430008010033",
  "immutableReferences": {},
  "source": "// SPDX-License-Identifier: MIT\r\npragma solidity 0.8.1;\r\n\r\nimport \"@openzeppelin/contracts/access/Ownable.sol\";\r\nimport \"./RandomNumber.sol\";\r\nimport \"./PudingToken.sol\";\r\nimport \"./TrophyToken.sol\";\r\n\r\ncontract Agenda is Ownable{\r\n    uint256 eth = 10**18;\r\n    string private TITLE; // \r\n    string private AGENDA_TYPE; //  \r\n    uint256 private START_DATETIME; // TIMESTAMP\r\n    uint256 private END_DATETIME; // TIMESTAMP\r\n\r\n    // uint256 private WINNERS_COUNT; //  \r\n \r\n    // address[] private applicants;\r\n    uint256 resultXOR = 0;\r\n\r\n    uint256[] private winNum;\r\n    address[] private winners;\r\n    \r\n    RandomNumber public randomnumber;\r\n    PudingToken public pudingtoken;\r\n    TrophyToken public trophytoken;\r\n\r\n    string imageURI; // NFT Image URL\r\n    \r\n\r\n    // for test\r\n    address[] private applicants = [0xE74B66fCD6d6D9d23474c24EA70Ad71373cD5E79,0xE74B66fCD6d6D9d23474c24EA70Ad71373cD5E79,0xE74B66fCD6d6D9d23474c24EA70Ad71373cD5E79];\r\n    uint256 private WINNERS_COUNT = 1; //  \r\n\r\n\r\n    //  \r\n    //  , , , ,   ,   , NFT , NFT  URI\r\n    constructor (string memory _Title, string memory _AgendaType, uint256 _StartDateTime, uint256 _EndDateTime, address _randAddr, address _pudAddr, address _nftAddr, string memory _imageURI) {\r\n        TITLE = _Title;\r\n        AGENDA_TYPE = _AgendaType;\r\n        START_DATETIME = _StartDateTime;\r\n        END_DATETIME = _EndDateTime;\r\n        randomnumber = RandomNumber(_randAddr);\r\n        pudingtoken = PudingToken(_pudAddr);\r\n        trophytoken = TrophyToken(_nftAddr);\r\n        imageURI = _imageURI;\r\n    }\r\n\r\n    //      \r\n    function inArray(address[] memory tempArray ,address applicant) private returns(bool){\r\n        for (uint256 i = 0 ; i < tempArray.length ; i++) {\r\n            if(tempArray[i] == applicant) {\r\n                return true;\r\n            }\r\n        }\r\n        return false;\r\n\r\n    }\r\n\r\n    //   \r\n    function modifyInfo(string memory newTitle, string memory newAgendaType, uint256 newStartDateTime, uint256 newEndDateTime) public onlyOwner{\r\n        TITLE = newTitle;\r\n        AGENDA_TYPE = newAgendaType;\r\n        START_DATETIME = newStartDateTime;\r\n        END_DATETIME = newEndDateTime;\r\n    }\r\n\r\n    //   \r\n    function setWinnerCount(uint256 num) public onlyOwner{\r\n        WINNERS_COUNT = num;\r\n    }\r\n\r\n    //   \r\n    function mintPDK(address to) public onlyOwner{\r\n        pudingtoken.mint(to, 1*eth);\r\n    }\r\n\r\n    //\r\n    function application(uint256 inpNum) public {\r\n        if(inArray(applicants,msg.sender)) {\r\n            revert(\"already application\");\r\n        }\r\n        else {\r\n            if(pudingtoken.balanceOf(msg.sender) < 1*eth) {\r\n                revert(\"not enough token\");\r\n            }\r\n            applicants.push(msg.sender);\r\n            resultXOR ^= inpNum;\r\n            pudingtoken.burn(msg.sender,1*eth);\r\n        }\r\n    }\r\n\r\n    //  \r\n    function setBlockInfo() public onlyOwner{\r\n        randomnumber.setBlockInfo();\r\n    }\r\n\r\n    // \r\n    function draw() public onlyOwner{\r\n        // num    \r\n        winNum = randomnumber.generateRandNum(WINNERS_COUNT, applicants.length, resultXOR);\r\n\r\n        //     \r\n        for (uint256 i = 0 ; i < WINNERS_COUNT; i++) {\r\n            winners.push(applicants[winNum[i]]);\r\n            trophytoken.safeMint(winners[i], imageURI);\r\n        }\r\n\r\n        randomnumber.optAll(WINNERS_COUNT);\r\n    }\r\n\r\n    //   \r\n    function getInfo() public view returns(string memory, string memory, uint256, uint256) {\r\n        return (TITLE, AGENDA_TYPE, START_DATETIME, END_DATETIME);\r\n    }\r\n\r\n\r\n    //  ////////////\r\n\r\n    //    \r\n    function getWinNum() public view returns(uint256[] memory) {\r\n        return winNum;\r\n    }\r\n\r\n    //   \r\n    function getWinners() public view returns(address[] memory) {\r\n        return winners;\r\n    }\r\n\r\n    //      \r\n    function getRandInfo() public view returns(uint256, uint256, bytes32, uint256) {\r\n        return randomnumber.getInfo();\r\n    }\r\n\r\n    //  , XOR   \r\n    function getAppInfo() public view returns(address[] memory, uint256) {\r\n        return (applicants,resultXOR);\r\n    }\r\n\r\n}",
  "sourcePath": "C:\\Users\\HanaTI\\Desktop\\Project\\1Q-On-the-Block\\1Q-contract-ver3\\contracts\\Agenda.sol",
  "compiler": {
    "name": "solc",
    "version": "0.8.1+commit.df193b15.Emscripten.clang"
  },
  "schemaVersion": "3.4.14",
  "updatedAt": "2023-09-13T06:50:51.592Z",
  "devdoc": {
    "kind": "dev",
    "methods": {
      "owner()": {
        "details": "Returns the address of the current owner."
      },
      "renounceOwnership()": {
        "details": "Leaves the contract without owner. It will not be possible to call `onlyOwner` functions. Can only be called by the current owner. NOTE: Renouncing ownership will leave the contract without an owner, thereby disabling any functionality that is only available to the owner."
      },
      "transferOwnership(address)": {
        "details": "Transfers ownership of the contract to a new account (`newOwner`). Can only be called by the current owner."
      }
    },
    "version": 1
  },
  "userdoc": {
    "kind": "user",
    "methods": {},
    "version": 1
  }
}