{
  "contractName": "Agenda",
  "abi": [
    {
      "inputs": [
        {
          "internalType": "string",
          "name": "_newTitle",
          "type": "string"
        }
      ],
      "name": "updateTitle",
      "outputs": [],
      "stateMutability": "nonpayable",
      "type": "function"
    },
    {
      "inputs": [
        {
          "internalType": "uint256",
          "name": "_newStartDate",
          "type": "uint256"
        }
      ],
      "name": "updateStartDate",
      "outputs": [],
      "stateMutability": "nonpayable",
      "type": "function"
    },
    {
      "inputs": [
        {
          "internalType": "uint256",
          "name": "_newEndDate",
          "type": "uint256"
        }
      ],
      "name": "updateEndDate",
      "outputs": [],
      "stateMutability": "nonpayable",
      "type": "function"
    },
    {
      "inputs": [
        {
          "internalType": "uint256",
          "name": "_newWCnt",
          "type": "uint256"
        }
      ],
      "name": "updateWinnerCnt",
      "outputs": [],
      "stateMutability": "nonpayable",
      "type": "function"
    },
    {
      "inputs": [
        {
          "internalType": "uint256",
          "name": "_ModifiedDate",
          "type": "uint256"
        }
      ],
      "name": "ModifiedInfo",
      "outputs": [],
      "stateMutability": "nonpayable",
      "type": "function"
    }
  ],
  "bytecode": "0x608060405234801561001057600080fd5b50610490806100206000396000f3fe608060405234801561001057600080fd5b50600436106100575760003560e01c806318d947931461005c5780632a761d021461007857806337fb13b0146100945780636d4505f7146100b0578063ef2bbbdf146100cc575b600080fd5b61007660048036038101906100719190610310565b6100e8565b005b610092600480360381019061008d9190610310565b6100f2565b005b6100ae60048036038101906100a991906102cf565b610181565b005b6100ca60048036038101906100c59190610310565b61019b565b005b6100e660048036038101906100e19190610310565b6101a5565b005b8060038190555050565b6009339080600181540180825580915050600190039060005260206000200160009091909190916101000a81548173ffffffffffffffffffffffffffffffffffffffff021916908373ffffffffffffffffffffffffffffffffffffffff160217905550600a81908060018154018082558091505060019003906000526020600020016000909190919091505550565b80600190805190602001906101979291906101af565b5050565b8060058190555050565b8060038190555050565b8280546101bb906103b3565b90600052602060002090601f0160209004810192826101dd5760008555610224565b82601f106101f657805160ff1916838001178555610224565b82800160010185558215610224579182015b82811115610223578251825591602001919060010190610208565b5b5090506102319190610235565b5090565b5b8082111561024e576000816000905550600101610236565b5090565b60006102656102608461036a565b610339565b90508281526020810184848401111561027d57600080fd5b6102888482856103a4565b509392505050565b600082601f8301126102a157600080fd5b81356102b1848260208601610252565b91505092915050565b6000813590506102c981610443565b92915050565b6000602082840312156102e157600080fd5b600082013567ffffffffffffffff8111156102fb57600080fd5b61030784828501610290565b91505092915050565b60006020828403121561032257600080fd5b6000610330848285016102ba565b91505092915050565b6000604051905081810181811067ffffffffffffffff821117156103605761035f610414565b5b8060405250919050565b600067ffffffffffffffff82111561038557610384610414565b5b601f19601f8301169050602081019050919050565b6000819050919050565b82818337600083830152505050565b600060028204905060018216806103cb57607f821691505b602082108114156103df576103de6103e5565b5b50919050565b7f4e487b7100000000000000000000000000000000000000000000000000000000600052602260045260246000fd5b7f4e487b7100000000000000000000000000000000000000000000000000000000600052604160045260246000fd5b61044c8161039a565b811461045757600080fd5b5056fea2646970667358221220ecc9e4112fec1add51c76a48a0ccb8b90a5f74d9b05c8b08f9222727824a9c4a64736f6c63430008000033",
  "immutableReferences": {},
  "source": "// SPDX-License-Identifier: MIT\r\npragma solidity 0.8.0;\r\n\r\ncontract Agenda {\r\n    uint256 ID;\r\n    string TITLE; // \r\n    string AGENDA_TYPE; //  \r\n    uint256 START_DATE; // TIMESTAMP\r\n    uint256 END_DATE; // TIMESTAMP\r\n    uint256 WINNERS_COUNT; //  \r\n    uint256 TARGET_AUDIENCE; //  \r\n    uint256 CREATED_BY; // \r\n    uint256 CREATED_DATE; // \r\n    address[] LAST_MODIFIED_BY; // \r\n    uint256[] MODIFIED_DATE; // \r\n    uint256 PARTICIPATING_INDIVIDUALS; // \r\n    address Owner;\r\n\r\n\r\n\r\n    function updateTitle(string memory _newTitle) public {\r\n        TITLE = _newTitle;\r\n    }\r\n\r\n    function updateStartDate(uint256 _newStartDate) public {\r\n        START_DATE = _newStartDate;\r\n    }\r\n\r\n    function updateEndDate(uint256 _newEndDate) public {\r\n        START_DATE = _newEndDate;\r\n    }\r\n\r\n    function updateWinnerCnt(uint256 _newWCnt) public {\r\n        WINNERS_COUNT = _newWCnt;\r\n    }   \r\n\r\n    function ModifiedInfo(uint256 _ModifiedDate) public {\r\n        LAST_MODIFIED_BY.push(msg.sender);\r\n        MODIFIED_DATE.push(_ModifiedDate);\r\n    }\r\n\r\n}",
  "sourcePath": "C:\\Users\\HanaTI\\Desktop\\Project\\1Q-On-the-Block\\1Q-contract-ver3\\contracts\\Agenda.sol",
  "compiler": {
    "name": "solc",
    "version": "0.8.0+commit.c7dfd78e.Emscripten.clang"
  },
  "schemaVersion": "3.4.14",
  "updatedAt": "2023-08-31T06:37:55.825Z",
  "devdoc": {
    "kind": "dev",
    "methods": {},
    "version": 1
  },
  "userdoc": {
    "kind": "user",
    "methods": {},
    "version": 1
  }
}