{
  "contractName": "Blockcontract",
  "abi": [
    {
      "inputs": [],
      "stateMutability": "nonpayable",
      "type": "constructor"
    },
    {
      "inputs": [],
      "name": "owner",
      "outputs": [
        {
          "internalType": "address",
          "name": "",
          "type": "address"
        }
      ],
      "stateMutability": "view",
      "type": "function",
      "constant": true
    },
    {
      "inputs": [
        {
          "internalType": "uint256",
          "name": "inpNum",
          "type": "uint256"
        }
      ],
      "name": "application",
      "outputs": [],
      "stateMutability": "nonpayable",
      "type": "function"
    },
    {
      "inputs": [],
      "name": "setBlockInfo",
      "outputs": [],
      "stateMutability": "nonpayable",
      "type": "function"
    },
    {
      "inputs": [
        {
          "internalType": "uint256",
          "name": "num",
          "type": "uint256"
        }
      ],
      "name": "generateRandNum",
      "outputs": [],
      "stateMutability": "nonpayable",
      "type": "function"
    },
    {
      "inputs": [],
      "name": "getrandlist",
      "outputs": [
        {
          "internalType": "uint256[]",
          "name": "",
          "type": "uint256[]"
        }
      ],
      "stateMutability": "view",
      "type": "function",
      "constant": true
    },
    {
      "inputs": [],
      "name": "optAll",
      "outputs": [],
      "stateMutability": "nonpayable",
      "type": "function"
    },
    {
      "inputs": [],
      "name": "optAllExceptAppl",
      "outputs": [],
      "stateMutability": "nonpayable",
      "type": "function"
    }
  ],
  "bytecode": "0x6080604052600060025534801561001557600080fd5b50336000806101000a81548173ffffffffffffffffffffffffffffffffffffffff021916908373ffffffffffffffffffffffffffffffffffffffff160217905550610ab8806100656000396000f3fe608060405234801561001057600080fd5b506004361061007d5760003560e01c80634b1a3f321161005b5780634b1a3f32146100b25780637a301cc3146100d057806386b3b53b146100ec5780638da5cb5b146100f65761007d565b80630c72c3a1146100825780631bdd07881461008c5780632c6a7fb114610096575b600080fd5b61008a610114565b005b610094610145565b005b6100b060048036038101906100ab9190610624565b61025b565b005b6100ba610411565b6040516100c7919061080d565b60405180910390f35b6100ea60048036038101906100e59190610624565b610469565b005b6100f46104df565b005b6100fe610569565b60405161010b91906107f2565b60405180910390f35b60004390506005808261012791906109dc565b8261013291906108b9565b61013c91906108b9565b60048190555050565b6000600180549050905060005b818110156101da576001805480610192577f4e487b7100000000000000000000000000000000000000000000000000000000600052603160045260246000fd5b6001900381819060005260206000200160006101000a81549073ffffffffffffffffffffffffffffffffffffffff0219169055905580806101d29061097f565b915050610152565b50600380549050905060005b8181101561024f576003805480610226577f4e487b7100000000000000000000000000000000000000000000000000000000600052603160045260246000fd5b6001900381819060005260206000200160009055905580806102479061097f565b9150506101e6565b50600060028190555050565b6000600180549050905060018110156102a9576040517f08c379a00000000000000000000000000000000000000000000000000000000081526004016102a09061084f565b60405180910390fd5b8181116102eb576040517f08c379a00000000000000000000000000000000000000000000000000000000081526004016102e29061082f565b60405180910390fd5b600454406005819055506000805b8381101561040b57600083426005548560025461031691906108b9565b604051602001610328939291906107b5565b6040516020818303038152906040528051906020012060001c61034b91906109dc565b90506103a7600380548060200260200160405190810160405280929190818152602001828054801561039c57602002820191906000526020600020905b815481526020019060010190808311610388575b50505050508261058d565b156103bf5781806103b790610955565b9250506103e9565b60038190806001815401808255809150506001900390600052602060002001600090919091909150555b82806103f49061097f565b9350505080806104039061097f565b9150506102f9565b50505050565b6060600380548060200260200160405190810160405280929190818152602001828054801561045f57602002820191906000526020600020905b81548152602001906001019080831161044b575b5050505050905090565b6001339080600181540180825580915050600190039060005260206000200160009091909190916101000a81548173ffffffffffffffffffffffffffffffffffffffff021916908373ffffffffffffffffffffffffffffffffffffffff1602179055508060026000828254189250508190555050565b60006001805490509050600380549050905060005b8181101561055d576003805480610534577f4e487b7100000000000000000000000000000000000000000000000000000000600052603160045260246000fd5b6001900381819060005260206000200160009055905580806105559061097f565b9150506104f4565b50600060028190555050565b60008054906101000a900473ffffffffffffffffffffffffffffffffffffffff1681565b600080600090505b835181101561060357828482815181106105d8577f4e487b7100000000000000000000000000000000000000000000000000000000600052603260045260246000fd5b602002602001015114156105f0576001915050610609565b80806105fb9061097f565b915050610595565b50600090505b92915050565b60008135905061061e81610a6b565b92915050565b60006020828403121561063657600080fd5b60006106448482850161060f565b91505092915050565b6000610659838361078f565b60208301905092915050565b61066e8161090f565b82525050565b600061067f8261087f565b6106898185610897565b93506106948361086f565b8060005b838110156106c55781516106ac888261064d565b97506106b78361088a565b925050600181019050610698565b5085935050505092915050565b6106e36106de82610921565b6109c8565b82525050565b60006106f66019836108a8565b91507f416c6c206170706c6963616e7473206172652077696e6e6572000000000000006000830152602082019050919050565b6000610736602a836108a8565b91507f6e6f206170706c6963616e742e2063616e27742067656e65726174652072616e60008301527f646f6d204e756d626572000000000000000000000000000000000000000000006020830152604082019050919050565b6107988161094b565b82525050565b6107af6107aa8261094b565b6109d2565b82525050565b60006107c1828661079e565b6020820191506107d182856106d2565b6020820191506107e1828461079e565b602082019150819050949350505050565b60006020820190506108076000830184610665565b92915050565b600060208201905081810360008301526108278184610674565b905092915050565b60006020820190508181036000830152610848816106e9565b9050919050565b6000602082019050818103600083015261086881610729565b9050919050565b6000819050602082019050919050565b600081519050919050565b6000602082019050919050565b600082825260208201905092915050565b600082825260208201905092915050565b60006108c48261094b565b91506108cf8361094b565b9250827fffffffffffffffffffffffffffffffffffffffffffffffffffffffffffffffff0382111561090457610903610a0d565b5b828201905092915050565b600061091a8261092b565b9050919050565b6000819050919050565b600073ffffffffffffffffffffffffffffffffffffffff82169050919050565b6000819050919050565b60006109608261094b565b9150600082141561097457610973610a0d565b5b600182039050919050565b600061098a8261094b565b91507fffffffffffffffffffffffffffffffffffffffffffffffffffffffffffffffff8214156109bd576109bc610a0d565b5b600182019050919050565b6000819050919050565b6000819050919050565b60006109e78261094b565b91506109f28361094b565b925082610a0257610a01610a3c565b5b828206905092915050565b7f4e487b7100000000000000000000000000000000000000000000000000000000600052601160045260246000fd5b7f4e487b7100000000000000000000000000000000000000000000000000000000600052601260045260246000fd5b610a748161094b565b8114610a7f57600080fd5b5056fea2646970667358221220a1b4e8f3c9cd857ef9fe72336b664b82534674a5cdbe8ec839f745c323b382a564736f6c63430008000033",
  "immutableReferences": {},
  "source": "// SPDX-License-Identifier: MIT\r\npragma solidity 0.8.0;\r\n\r\ncontract Blockcontract {\r\n\r\n    address public owner;\r\n\r\n    constructor () public {\r\n        owner = msg.sender;\r\n    }\r\n\r\n    address[] private applicants; //  \r\n    uint256 private resultXOR = 0; //    XOR   \r\n    uint256[] private randNumList; //   \r\n\r\n    uint256 futureBlockNum;\r\n    bytes32 futureBlockHash;\r\n\r\n    // \r\n    function application(uint256 inpNum) public {\r\n        applicants.push(msg.sender);\r\n        resultXOR ^= inpNum;\r\n    }    \r\n\r\n    //  \r\n    function setBlockInfo() public{\r\n        uint256 curBlockNum = block.number;\r\n        futureBlockNum = curBlockNum + (curBlockNum % 5) + 5;\r\n    }\r\n\r\n\r\n    //      \r\n    function inArray(uint256[] memory tempArray ,uint256 value) private returns(bool){\r\n        for (uint256 i = 0 ; i < tempArray.length ; i++) {\r\n            if(tempArray[i] == value) {\r\n                return true;\r\n            }\r\n        }\r\n        return false;\r\n    }\r\n\r\n    function generateRandNum(uint256 num) public{\r\n        uint256 _lenAppli = applicants.length;\r\n        if (_lenAppli < 1) { //     \r\n            revert(\"no applicant. can't generate random Number\");\r\n        }\r\n        else if (_lenAppli <= num) { //         \r\n            revert(\"All applicants are winner\");\r\n        }\r\n\r\n        //    \r\n        futureBlockHash = blockhash(futureBlockNum);\r\n        \r\n        uint256 cnt = 0;\r\n        // num   \r\n        for (uint256 i = 0; i < num; i++) {\r\n            //  \r\n            uint256 randNum = uint256(keccak256(abi.encodePacked(block.timestamp, futureBlockHash, resultXOR + cnt ))) % _lenAppli;\r\n            //      x\r\n            if(inArray(randNumList,randNum)) {\r\n                i--;\r\n            }\r\n            else {\r\n                randNumList.push(randNum);\r\n            }\r\n            cnt++;\r\n        }                   \r\n    }\r\n\r\n    function getrandlist() public view returns(uint256[] memory) {\r\n        return randNumList;\r\n    }\r\n\r\n    function optAll() public{\r\n        uint256 _len = applicants.length;\r\n        for(uint256 i = 0 ; i < _len ; i++) {\r\n            applicants.pop();\r\n        }\r\n        \r\n        _len = randNumList.length;\r\n        for(uint256 i = 0 ; i < _len ; i++) {\r\n            randNumList.pop();\r\n        }\r\n\r\n        resultXOR = 0;\r\n    }\r\n\r\n    function optAllExceptAppl() public{\r\n        uint256 _len = applicants.length;\r\n\r\n        // uint256 _len = applicants.length;\r\n        // for(uint256 i = 0 ; i < _len ; i++) {\r\n        //     applicants.pop();\r\n        // }\r\n\r\n        _len = randNumList.length;\r\n        for(uint256 i = 0 ; i < _len ; i++) {\r\n            randNumList.pop();\r\n        }\r\n\r\n        resultXOR = 0;\r\n    }\r\n\r\n\r\n}\r\n",
  "sourcePath": "C:\\Users\\HanaTI\\Desktop\\Project\\1Q-On-the-Block\\1Q-contract-ver3\\contracts\\Blockcontract.sol",
  "compiler": {
    "name": "solc",
    "version": "0.8.0+commit.c7dfd78e.Emscripten.clang"
  },
  "schemaVersion": "3.4.14",
  "updatedAt": "2023-08-30T04:33:53.201Z",
  "networkType": "ethereum",
  "devdoc": {
    "kind": "dev",
    "methods": {},
    "version": 1
  },
  "userdoc": {
    "kind": "user",
    "methods": {},
    "version": 1
  }
}