{
  "contractName": "RandomNumber",
  "abi": [
    {
      "inputs": [],
      "stateMutability": "nonpayable",
      "type": "constructor"
    },
    {
      "inputs": [],
      "name": "owner",
      "outputs": [
        {
          "internalType": "address",
          "name": "",
          "type": "address"
        }
      ],
      "stateMutability": "view",
      "type": "function",
      "constant": true
    },
    {
      "inputs": [
        {
          "internalType": "uint256",
          "name": "inpNum",
          "type": "uint256"
        }
      ],
      "name": "application",
      "outputs": [],
      "stateMutability": "nonpayable",
      "type": "function"
    },
    {
      "inputs": [],
      "name": "setBlockInfo",
      "outputs": [],
      "stateMutability": "nonpayable",
      "type": "function"
    },
    {
      "inputs": [
        {
          "internalType": "uint256",
          "name": "num",
          "type": "uint256"
        }
      ],
      "name": "generateRandNum",
      "outputs": [],
      "stateMutability": "nonpayable",
      "type": "function"
    },
    {
      "inputs": [],
      "name": "getrandlist",
      "outputs": [
        {
          "internalType": "uint256[]",
          "name": "",
          "type": "uint256[]"
        }
      ],
      "stateMutability": "view",
      "type": "function",
      "constant": true
    },
    {
      "inputs": [],
      "name": "getAllInfo",
      "outputs": [
        {
          "internalType": "address[]",
          "name": "",
          "type": "address[]"
        },
        {
          "internalType": "uint256",
          "name": "",
          "type": "uint256"
        },
        {
          "internalType": "uint256",
          "name": "",
          "type": "uint256"
        },
        {
          "internalType": "uint256",
          "name": "",
          "type": "uint256"
        },
        {
          "internalType": "bytes32",
          "name": "",
          "type": "bytes32"
        },
        {
          "internalType": "uint256[]",
          "name": "",
          "type": "uint256[]"
        }
      ],
      "stateMutability": "view",
      "type": "function",
      "constant": true
    },
    {
      "inputs": [],
      "name": "optAll",
      "outputs": [],
      "stateMutability": "nonpayable",
      "type": "function"
    },
    {
      "inputs": [],
      "name": "optAllExceptAppl",
      "outputs": [],
      "stateMutability": "nonpayable",
      "type": "function"
    }
  ],
  "bytecode": "0x6080604052600060025534801561001557600080fd5b50336000806101000a81548173ffffffffffffffffffffffffffffffffffffffff021916908373ffffffffffffffffffffffffffffffffffffffff160217905550610d3e806100656000396000f3fe608060405234801561001057600080fd5b50600436106100885760003560e01c80637a301cc31161005b5780637a301cc3146100db57806386b3b53b146100f75780638da5cb5b14610101578063b18e15bd1461011f57610088565b80630c72c3a11461008d5780631bdd0788146100975780632c6a7fb1146100a15780634b1a3f32146100bd575b600080fd5b610095610142565b005b61009f610178565b005b6100bb60048036038101906100b6919061075f565b61028e565b005b6100c5610444565b6040516100d29190610a5a565b60405180910390f35b6100f560048036038101906100f0919061075f565b61049c565b005b6100ff610512565b005b61010961059c565b60405161011691906109d0565b60405180910390f35b6101276105c0565b604051610139969594939291906109eb565b60405180910390f35b436004819055506005806004546101599190610c62565b6004546101669190610b3f565b6101709190610b3f565b600581905550565b6000600180549050905060005b8181101561020d5760018054806101c5577f4e487b7100000000000000000000000000000000000000000000000000000000600052603160045260246000fd5b6001900381819060005260206000200160006101000a81549073ffffffffffffffffffffffffffffffffffffffff02191690559055808061020590610c05565b915050610185565b50600380549050905060005b81811015610282576003805480610259577f4e487b7100000000000000000000000000000000000000000000000000000000600052603160045260246000fd5b60019003818190600052602060002001600090559055808061027a90610c05565b915050610219565b50600060028190555050565b6000600180549050905060018110156102dc576040517f08c379a00000000000000000000000000000000000000000000000000000000081526004016102d390610a9c565b60405180910390fd5b81811161031e576040517f08c379a000000000000000000000000000000000000000000000000000000000815260040161031590610a7c565b60405180910390fd5b600554406006819055506000805b8381101561043e5760008342600654856002546103499190610b3f565b60405160200161035b93929190610993565b6040516020818303038152906040528051906020012060001c61037e9190610c62565b90506103da60038054806020026020016040519081016040528092919081815260200182805480156103cf57602002820191906000526020600020905b8154815260200190600101908083116103bb575b5050505050826106c8565b156103f25781806103ea90610bdb565b92505061041c565b60038190806001815401808255809150506001900390600052602060002001600090919091909150555b828061042790610c05565b93505050808061043690610c05565b91505061032c565b50505050565b6060600380548060200260200160405190810160405280929190818152602001828054801561049257602002820191906000526020600020905b81548152602001906001019080831161047e575b5050505050905090565b6001339080600181540180825580915050600190039060005260206000200160009091909190916101000a81548173ffffffffffffffffffffffffffffffffffffffff021916908373ffffffffffffffffffffffffffffffffffffffff1602179055508060026000828254189250508190555050565b60006001805490509050600380549050905060005b81811015610590576003805480610567577f4e487b7100000000000000000000000000000000000000000000000000000000600052603160045260246000fd5b60019003818190600052602060002001600090559055808061058890610c05565b915050610527565b50600060028190555050565b60008054906101000a900473ffffffffffffffffffffffffffffffffffffffff1681565b60606000806000806060600160025460045460055460065460038580548060200260200160405190810160405280929190818152602001828054801561065b57602002820191906000526020600020905b8160009054906101000a900473ffffffffffffffffffffffffffffffffffffffff1673ffffffffffffffffffffffffffffffffffffffff1681526020019060010190808311610611575b50505050509550808054806020026020016040519081016040528092919081815260200182805480156106ad57602002820191906000526020600020905b815481526020019060010190808311610699575b50505050509050955095509550955095509550909192939495565b600080600090505b835181101561073e5782848281518110610713577f4e487b7100000000000000000000000000000000000000000000000000000000600052603260045260246000fd5b6020026020010151141561072b576001915050610744565b808061073690610c05565b9150506106d0565b50600090505b92915050565b60008135905061075981610cf1565b92915050565b60006020828403121561077157600080fd5b600061077f8482850161074a565b91505092915050565b600061079483836107b8565b60208301905092915050565b60006107ac838361095e565b60208301905092915050565b6107c181610b95565b82525050565b6107d081610b95565b82525050565b60006107e182610adc565b6107eb8185610b0c565b93506107f683610abc565b8060005b8381101561082757815161080e8882610788565b975061081983610af2565b9250506001810190506107fa565b5085935050505092915050565b600061083f82610ae7565b6108498185610b1d565b935061085483610acc565b8060005b8381101561088557815161086c88826107a0565b975061087783610aff565b925050600181019050610858565b5085935050505092915050565b61089b81610ba7565b82525050565b6108b26108ad82610ba7565b610c4e565b82525050565b60006108c5601983610b2e565b91507f416c6c206170706c6963616e7473206172652077696e6e6572000000000000006000830152602082019050919050565b6000610905602a83610b2e565b91507f6e6f206170706c6963616e742e2063616e27742067656e65726174652072616e60008301527f646f6d204e756d626572000000000000000000000000000000000000000000006020830152604082019050919050565b61096781610bd1565b82525050565b61097681610bd1565b82525050565b61098d61098882610bd1565b610c58565b82525050565b600061099f828661097c565b6020820191506109af82856108a1565b6020820191506109bf828461097c565b602082019150819050949350505050565b60006020820190506109e560008301846107c7565b92915050565b600060c0820190508181036000830152610a0581896107d6565b9050610a14602083018861096d565b610a21604083018761096d565b610a2e606083018661096d565b610a3b6080830185610892565b81810360a0830152610a4d8184610834565b9050979650505050505050565b60006020820190508181036000830152610a748184610834565b905092915050565b60006020820190508181036000830152610a95816108b8565b9050919050565b60006020820190508181036000830152610ab5816108f8565b9050919050565b6000819050602082019050919050565b6000819050602082019050919050565b600081519050919050565b600081519050919050565b6000602082019050919050565b6000602082019050919050565b600082825260208201905092915050565b600082825260208201905092915050565b600082825260208201905092915050565b6000610b4a82610bd1565b9150610b5583610bd1565b9250827fffffffffffffffffffffffffffffffffffffffffffffffffffffffffffffffff03821115610b8a57610b89610c93565b5b828201905092915050565b6000610ba082610bb1565b9050919050565b6000819050919050565b600073ffffffffffffffffffffffffffffffffffffffff82169050919050565b6000819050919050565b6000610be682610bd1565b91506000821415610bfa57610bf9610c93565b5b600182039050919050565b6000610c1082610bd1565b91507fffffffffffffffffffffffffffffffffffffffffffffffffffffffffffffffff821415610c4357610c42610c93565b5b600182019050919050565b6000819050919050565b6000819050919050565b6000610c6d82610bd1565b9150610c7883610bd1565b925082610c8857610c87610cc2565b5b828206905092915050565b7f4e487b7100000000000000000000000000000000000000000000000000000000600052601160045260246000fd5b7f4e487b7100000000000000000000000000000000000000000000000000000000600052601260045260246000fd5b610cfa81610bd1565b8114610d0557600080fd5b5056fea264697066735822122081a58789ba4402ecb7becd1e50b6f7630e90403764f8ef316d9671ac00f7d60764736f6c63430008000033",
  "immutableReferences": {},
  "source": "// SPDX-License-Identifier: MIT\r\npragma solidity 0.8.0;\r\n\r\ncontract RandomNumber {\r\n\r\n    address public owner;\r\n\r\n    constructor () public {\r\n        owner = msg.sender;\r\n    }\r\n\r\n    address[] private applicants; //  \r\n    uint256 private resultXOR = 0; //    XOR   \r\n    uint256[] private randNumList; //   \r\n\r\n    uint256 curBlockNum;\r\n    uint256 futureBlockNum;\r\n    bytes32 futureBlockHash;\r\n\r\n    // \r\n    function application(uint256 inpNum) public {\r\n        applicants.push(msg.sender);\r\n        resultXOR ^= inpNum;\r\n    }    \r\n\r\n    //  \r\n    function setBlockInfo() public{\r\n        curBlockNum = block.number;\r\n        futureBlockNum = curBlockNum + (curBlockNum % 5) + 5;\r\n    }\r\n\r\n\r\n    //      \r\n    function inArray(uint256[] memory tempArray ,uint256 value) private returns(bool){\r\n        for (uint256 i = 0 ; i < tempArray.length ; i++) {\r\n            if(tempArray[i] == value) {\r\n                return true;\r\n            }\r\n        }\r\n        return false;\r\n    }\r\n\r\n\r\n    function generateRandNum(uint256 num) public {\r\n        uint256 _lenAppli = applicants.length;\r\n        if (_lenAppli < 1) { //     \r\n            revert(\"no applicant. can't generate random Number\");\r\n        }\r\n        else if (_lenAppli <= num) { //         \r\n            revert(\"All applicants are winner\");\r\n        }\r\n\r\n        //    \r\n        futureBlockHash = blockhash(futureBlockNum);\r\n        \r\n        uint256 cnt = 0;\r\n        // num   \r\n        for (uint256 i = 0; i < num; i++) {\r\n            //  \r\n            uint256 randNum = uint256(keccak256(abi.encodePacked(block.timestamp, futureBlockHash, resultXOR + cnt ))) % _lenAppli;\r\n            //      x\r\n            if(inArray(randNumList,randNum)) {\r\n                i--;\r\n            }\r\n            else {\r\n                randNumList.push(randNum);\r\n            }\r\n            cnt++;\r\n        }                   \r\n    }\r\n\r\n    //    \r\n    function getrandlist() public view returns(uint256[] memory) {\r\n        return randNumList;\r\n    }\r\n\r\n    function getAllInfo() public view returns(address[] memory, uint256, uint256, uint256, bytes32, uint256[] memory) {\r\n        \r\n        return (applicants, resultXOR, curBlockNum, futureBlockNum, futureBlockHash, randNumList);\r\n    }\r\n\r\n\r\n\r\n\r\n    //   \r\n    function optAll() public{\r\n        uint256 _len = applicants.length;\r\n        for(uint256 i = 0 ; i < _len ; i++) {\r\n            applicants.pop();\r\n        }\r\n        \r\n        _len = randNumList.length;\r\n        for(uint256 i = 0 ; i < _len ; i++) {\r\n            randNumList.pop();\r\n        }\r\n\r\n        resultXOR = 0;\r\n    }\r\n\r\n    //    ()\r\n    function optAllExceptAppl() public{\r\n        uint256 _len = applicants.length;\r\n\r\n        // uint256 _len = applicants.length;\r\n        // for(uint256 i = 0 ; i < _len ; i++) {\r\n        //     applicants.pop();\r\n        // }\r\n\r\n        _len = randNumList.length;\r\n        for(uint256 i = 0 ; i < _len ; i++) {\r\n            randNumList.pop();\r\n        }\r\n\r\n        resultXOR = 0;\r\n    }\r\n\r\n\r\n}\r\n",
  "sourcePath": "C:\\Users\\HanaTI\\Desktop\\Project\\1Q-On-the-Block\\1Q-contract-ver3\\contracts\\RandomNumber.sol",
  "compiler": {
    "name": "solc",
    "version": "0.8.0+commit.c7dfd78e.Emscripten.clang"
  },
  "schemaVersion": "3.4.14",
  "updatedAt": "2023-08-31T06:38:03.542Z",
  "networkType": "ethereum",
  "devdoc": {
    "kind": "dev",
    "methods": {},
    "version": 1
  },
  "userdoc": {
    "kind": "user",
    "methods": {},
    "version": 1
  }
}