{
  "contractName": "RandomNumber",
  "abi": [
    {
      "inputs": [],
      "name": "curBlockNum",
      "outputs": [
        {
          "internalType": "uint256",
          "name": "",
          "type": "uint256"
        }
      ],
      "stateMutability": "view",
      "type": "function"
    },
    {
      "inputs": [],
      "name": "curTimestamp",
      "outputs": [
        {
          "internalType": "uint256",
          "name": "",
          "type": "uint256"
        }
      ],
      "stateMutability": "view",
      "type": "function"
    },
    {
      "inputs": [],
      "name": "futureBlockHash",
      "outputs": [
        {
          "internalType": "bytes32",
          "name": "",
          "type": "bytes32"
        }
      ],
      "stateMutability": "view",
      "type": "function"
    },
    {
      "inputs": [],
      "name": "futureBlockNum",
      "outputs": [
        {
          "internalType": "uint256",
          "name": "",
          "type": "uint256"
        }
      ],
      "stateMutability": "view",
      "type": "function"
    },
    {
      "inputs": [
        {
          "internalType": "uint256",
          "name": "",
          "type": "uint256"
        }
      ],
      "name": "randNumList",
      "outputs": [
        {
          "internalType": "uint256",
          "name": "",
          "type": "uint256"
        }
      ],
      "stateMutability": "view",
      "type": "function"
    },
    {
      "inputs": [],
      "name": "setBlockInfo",
      "outputs": [],
      "stateMutability": "nonpayable",
      "type": "function"
    },
    {
      "inputs": [
        {
          "internalType": "uint256",
          "name": "num",
          "type": "uint256"
        },
        {
          "internalType": "uint256",
          "name": "numOfApp",
          "type": "uint256"
        },
        {
          "internalType": "uint256",
          "name": "resultXOR",
          "type": "uint256"
        }
      ],
      "name": "generateRandNum",
      "outputs": [
        {
          "internalType": "uint256[]",
          "name": "",
          "type": "uint256[]"
        }
      ],
      "stateMutability": "nonpayable",
      "type": "function"
    },
    {
      "inputs": [
        {
          "internalType": "uint256",
          "name": "num",
          "type": "uint256"
        }
      ],
      "name": "optAll",
      "outputs": [],
      "stateMutability": "nonpayable",
      "type": "function"
    },
    {
      "inputs": [],
      "name": "getInfo",
      "outputs": [
        {
          "internalType": "uint256",
          "name": "",
          "type": "uint256"
        },
        {
          "internalType": "uint256",
          "name": "",
          "type": "uint256"
        },
        {
          "internalType": "bytes32",
          "name": "",
          "type": "bytes32"
        },
        {
          "internalType": "uint256",
          "name": "",
          "type": "uint256"
        }
      ],
      "stateMutability": "view",
      "type": "function"
    }
  ],
  "bytecode": "0x608060405234801561001057600080fd5b50610ab6806100206000396000f3fe608060405234801561001057600080fd5b50600436106100935760003560e01c80635147dce3116100665780635147dce31461010e578063597ef66f1461012c5780635a9b0b8914610148578063778574be14610169578063ceabdd5d1461019957610093565b8063075fe20d146100985780630bec063d146100b65780630c72c3a1146100e65780634f4a62e9146100f0575b600080fd5b6100a06101b7565b6040516100ad91906107c7565b60405180910390f35b6100d060048036038101906100cb91906105a7565b6101bd565b6040516100dd919061074a565b60405180910390f35b6100ee6103c1565b005b6100f86103ff565b604051610105919061076c565b60405180910390f35b610116610405565b60405161012391906107c7565b60405180910390f35b6101466004803603810190610141919061057e565b61040b565b005b61015061049d565b60405161016094939291906107e2565b60405180910390f35b610183600480360381019061017e919061057e565b6104bd565b60405161019091906107c7565b60405180910390f35b6101a16104e1565b6040516101ae91906107c7565b60405180910390f35b60015481565b60606001831015610203576040517f08c379a00000000000000000000000000000000000000000000000000000000081526004016101fa906107a7565b60405180910390fd5b838311610245576040517f08c379a000000000000000000000000000000000000000000000000000000000815260040161023c90610787565b60405180910390fd5b600254406003819055506000805b858110156103655760008560045460035485886102709190610871565b6040516020016102829392919061070d565b6040516020818303038152906040528051906020012060001c6102a59190610962565b905061030160008054806020026020016040519081016040528092919081815260200182805480156102f657602002820191906000526020600020905b8154815260200190600101908083116102e2575b5050505050826104e7565b15610319578180610311906108db565b925050610343565b60008190806001815401808255809150506001900390600052602060002001600090919091909150555b828061034e90610905565b93505050808061035d90610905565b915050610253565b5060008054806020026020016040519081016040528092919081815260200182805480156103b257602002820191906000526020600020905b81548152602001906001019080831161039e575b50505050509150509392505050565b43600181905550600160056001546103d99190610962565b6001546103e69190610871565b6103f09190610871565b60028190555042600481905550565b60035481565b60025481565b60005b8181101561047757600080548061044e577f4e487b7100000000000000000000000000000000000000000000000000000000600052603160045260246000fd5b60019003818190600052602060002001600090559055808061046f90610905565b91505061040e565b50600060018190555060006002819055506000801b600381905550600060048190555050565b600080600080600154600254600354600454935093509350935090919293565b600081815481106104cd57600080fd5b906000526020600020016000915090505481565b60045481565b600080600090505b835181101561055d5782848281518110610532577f4e487b7100000000000000000000000000000000000000000000000000000000600052603260045260246000fd5b6020026020010151141561054a576001915050610563565b808061055590610905565b9150506104ef565b50600090505b92915050565b60008135905061057881610a69565b92915050565b60006020828403121561059057600080fd5b600061059e84828501610569565b91505092915050565b6000806000606084860312156105bc57600080fd5b60006105ca86828701610569565b93505060206105db86828701610569565b92505060406105ec86828701610569565b9150509250925092565b600061060283836106d8565b60208301905092915050565b600061061982610837565b610623818561084f565b935061062e83610827565b8060005b8381101561065f57815161064688826105f6565b975061065183610842565b925050600181019050610632565b5085935050505092915050565b610675816108c7565b82525050565b61068c610687826108c7565b61094e565b82525050565b600061069f601983610860565b91506106aa826109f1565b602082019050919050565b60006106c2602a83610860565b91506106cd82610a1a565b604082019050919050565b6106e1816108d1565b82525050565b6106f0816108d1565b82525050565b610707610702826108d1565b610958565b82525050565b600061071982866106f6565b602082019150610729828561067b565b60208201915061073982846106f6565b602082019150819050949350505050565b60006020820190508181036000830152610764818461060e565b905092915050565b6000602082019050610781600083018461066c565b92915050565b600060208201905081810360008301526107a081610692565b9050919050565b600060208201905081810360008301526107c0816106b5565b9050919050565b60006020820190506107dc60008301846106e7565b92915050565b60006080820190506107f760008301876106e7565b61080460208301866106e7565b610811604083018561066c565b61081e60608301846106e7565b95945050505050565b6000819050602082019050919050565b600081519050919050565b6000602082019050919050565b600082825260208201905092915050565b600082825260208201905092915050565b600061087c826108d1565b9150610887836108d1565b9250827fffffffffffffffffffffffffffffffffffffffffffffffffffffffffffffffff038211156108bc576108bb610993565b5b828201905092915050565b6000819050919050565b6000819050919050565b60006108e6826108d1565b915060008214156108fa576108f9610993565b5b600182039050919050565b6000610910826108d1565b91507fffffffffffffffffffffffffffffffffffffffffffffffffffffffffffffffff82141561094357610942610993565b5b600182019050919050565b6000819050919050565b6000819050919050565b600061096d826108d1565b9150610978836108d1565b925082610988576109876109c2565b5b828206905092915050565b7f4e487b7100000000000000000000000000000000000000000000000000000000600052601160045260246000fd5b7f4e487b7100000000000000000000000000000000000000000000000000000000600052601260045260246000fd5b7f416c6c206170706c6963616e7473206172652077696e6e657200000000000000600082015250565b7f6e6f206170706c6963616e742e2063616e27742067656e65726174652072616e60008201527f646f6d204e756d62657200000000000000000000000000000000000000000000602082015250565b610a72816108d1565b8114610a7d57600080fd5b5056fea264697066735822122033989d9cb8130b7cf627b4343b2fb1d994655f210b51d9278df8853d3bef526e64736f6c63430008010033",
  "immutableReferences": {},
  "source": "// SPDX-License-Identifier: MIT\r\npragma solidity 0.8.1;\r\n\r\ncontract RandomNumber {\r\n\r\n    uint256[] public randNumList; //   \r\n\r\n    uint256 public curBlockNum;\r\n    uint256 public futureBlockNum;\r\n    bytes32 public futureBlockHash;\r\n    uint256 public curTimestamp;\r\n\r\n    //      \r\n    function inArray(uint256[] memory tempArray ,uint256 value) private returns(bool){\r\n        for (uint256 i = 0 ; i < tempArray.length ; i++) {\r\n            if(tempArray[i] == value) {\r\n                return true;\r\n            }\r\n        }\r\n        return false;\r\n    }\r\n\r\n    //  \r\n    function setBlockInfo() public{\r\n        curBlockNum = block.number;\r\n        futureBlockNum = curBlockNum + (curBlockNum % 5) + 1;\r\n        curTimestamp = block.timestamp;\r\n    }\r\n\r\n    //   \r\n    function generateRandNum(uint256 num, uint256 numOfApp, uint256 resultXOR) public returns(uint256[] memory){\r\n        if (numOfApp < 1) { //     \r\n            revert(\"no applicant. can't generate random Number\");\r\n        }\r\n        else if (numOfApp <= num) { //         \r\n            revert(\"All applicants are winner\");\r\n        }\r\n\r\n        //    \r\n        futureBlockHash = blockhash(futureBlockNum);\r\n        \r\n        uint256 cnt = 0;\r\n        // num   \r\n        for (uint256 i = 0; i < num; i++) {\r\n            //  \r\n            uint256 randNum = uint256(keccak256(abi.encodePacked(curTimestamp, futureBlockHash, resultXOR + cnt ))) % numOfApp;\r\n            //      x\r\n            if(inArray(randNumList,randNum)) {\r\n                i--;\r\n            }\r\n            else {\r\n                randNumList.push(randNum);\r\n            }\r\n            cnt++;\r\n        }\r\n\r\n        return randNumList;                   \r\n    }\r\n\r\n    //   \r\n    function optAll(uint256 num) public{\r\n        for(uint256 i = 0 ; i < num ; i++) {\r\n            randNumList.pop();\r\n        }\r\n\r\n        curBlockNum = 0;\r\n        futureBlockNum = 0;\r\n        futureBlockHash = 0;\r\n        curTimestamp = 0;\r\n    }\r\n\r\n    //  \r\n    function getInfo() public view returns(uint256, uint256, bytes32, uint256) {\r\n        return (curBlockNum, futureBlockNum, futureBlockHash, curTimestamp);\r\n    }\r\n}\r\n",
  "sourcePath": "C:\\Users\\HanaTI\\Desktop\\Project\\1Q-On-the-Block\\1Q-contract-ver3\\contracts\\RandomNumber.sol",
  "compiler": {
    "name": "solc",
    "version": "0.8.1+commit.df193b15.Emscripten.clang"
  },
  "schemaVersion": "3.4.14",
  "updatedAt": "2023-09-13T06:50:51.610Z",
  "devdoc": {
    "kind": "dev",
    "methods": {},
    "version": 1
  },
  "userdoc": {
    "kind": "user",
    "methods": {},
    "version": 1
  }
}