{
  "contractName": "RandomNumber",
  "abi": [
    {
      "inputs": [],
      "name": "curBlockNum",
      "outputs": [
        {
          "internalType": "uint256",
          "name": "",
          "type": "uint256"
        }
      ],
      "stateMutability": "view",
      "type": "function",
      "constant": true
    },
    {
      "inputs": [],
      "name": "curTimestamp",
      "outputs": [
        {
          "internalType": "uint256",
          "name": "",
          "type": "uint256"
        }
      ],
      "stateMutability": "view",
      "type": "function",
      "constant": true
    },
    {
      "inputs": [],
      "name": "futureBlockHash",
      "outputs": [
        {
          "internalType": "bytes32",
          "name": "",
          "type": "bytes32"
        }
      ],
      "stateMutability": "view",
      "type": "function",
      "constant": true
    },
    {
      "inputs": [],
      "name": "futureBlockNum",
      "outputs": [
        {
          "internalType": "uint256",
          "name": "",
          "type": "uint256"
        }
      ],
      "stateMutability": "view",
      "type": "function",
      "constant": true
    },
    {
      "inputs": [
        {
          "internalType": "uint256",
          "name": "",
          "type": "uint256"
        }
      ],
      "name": "randNumList",
      "outputs": [
        {
          "internalType": "uint256",
          "name": "",
          "type": "uint256"
        }
      ],
      "stateMutability": "view",
      "type": "function",
      "constant": true
    },
    {
      "inputs": [],
      "name": "setBlockInfo",
      "outputs": [],
      "stateMutability": "nonpayable",
      "type": "function"
    },
    {
      "inputs": [
        {
          "internalType": "uint256",
          "name": "num",
          "type": "uint256"
        },
        {
          "internalType": "uint256",
          "name": "numOfApp",
          "type": "uint256"
        },
        {
          "internalType": "uint256",
          "name": "resultXOR",
          "type": "uint256"
        }
      ],
      "name": "generateRandNum",
      "outputs": [
        {
          "internalType": "uint256[]",
          "name": "",
          "type": "uint256[]"
        }
      ],
      "stateMutability": "nonpayable",
      "type": "function"
    },
    {
      "inputs": [
        {
          "internalType": "uint256",
          "name": "num",
          "type": "uint256"
        }
      ],
      "name": "optAll",
      "outputs": [],
      "stateMutability": "nonpayable",
      "type": "function"
    },
    {
      "inputs": [],
      "name": "getInfoo",
      "outputs": [
        {
          "internalType": "uint256",
          "name": "",
          "type": "uint256"
        },
        {
          "internalType": "uint256",
          "name": "",
          "type": "uint256"
        },
        {
          "internalType": "bytes32",
          "name": "",
          "type": "bytes32"
        },
        {
          "internalType": "uint256",
          "name": "",
          "type": "uint256"
        }
      ],
      "stateMutability": "view",
      "type": "function",
      "constant": true
    }
  ],
  "bytecode": "0x608060405234801561001057600080fd5b50610a9e806100206000396000f3fe608060405234801561001057600080fd5b50600436106100935760003560e01c80635147dce3116100665780635147dce31461010e578063597ef66f1461012c578063778574be14610148578063c0cbe7bc14610178578063ceabdd5d1461019957610093565b8063075fe20d146100985780630bec063d146100b65780630c72c3a1146100e65780634f4a62e9146100f0575b600080fd5b6100a06101b7565b6040516100ad9190610827565b60405180910390f35b6100d060048036038101906100cb91906105a7565b6101bd565b6040516100dd91906107aa565b60405180910390f35b6100ee6103c1565b005b6100f86103ff565b60405161010591906107cc565b60405180910390f35b610116610405565b6040516101239190610827565b60405180910390f35b6101466004803603810190610141919061057e565b61040b565b005b610162600480360381019061015d919061057e565b61049d565b60405161016f9190610827565b60405180910390f35b6101806104c1565b6040516101909493929190610842565b60405180910390f35b6101a16104e1565b6040516101ae9190610827565b60405180910390f35b60015481565b60606001831015610203576040517f08c379a00000000000000000000000000000000000000000000000000000000081526004016101fa90610807565b60405180910390fd5b838311610245576040517f08c379a000000000000000000000000000000000000000000000000000000000815260040161023c906107e7565b60405180910390fd5b600254406003819055506000805b8581101561036557600085600454600354858861027091906108d1565b6040516020016102829392919061076d565b6040516020818303038152906040528051906020012060001c6102a591906109c2565b905061030160008054806020026020016040519081016040528092919081815260200182805480156102f657602002820191906000526020600020905b8154815260200190600101908083116102e2575b5050505050826104e7565b156103195781806103119061093b565b925050610343565b60008190806001815401808255809150506001900390600052602060002001600090919091909150555b828061034e90610965565b93505050808061035d90610965565b915050610253565b5060008054806020026020016040519081016040528092919081815260200182805480156103b257602002820191906000526020600020905b81548152602001906001019080831161039e575b50505050509150509392505050565b43600181905550600160056001546103d991906109c2565b6001546103e691906108d1565b6103f091906108d1565b60028190555042600481905550565b60035481565b60025481565b60005b8181101561047757600080548061044e577f4e487b7100000000000000000000000000000000000000000000000000000000600052603160045260246000fd5b60019003818190600052602060002001600090559055808061046f90610965565b91505061040e565b50600060018190555060006002819055506000801b600381905550600060048190555050565b600081815481106104ad57600080fd5b906000526020600020016000915090505481565b600080600080600154600254600354600454935093509350935090919293565b60045481565b600080600090505b835181101561055d5782848281518110610532577f4e487b7100000000000000000000000000000000000000000000000000000000600052603260045260246000fd5b6020026020010151141561054a576001915050610563565b808061055590610965565b9150506104ef565b50600090505b92915050565b60008135905061057881610a51565b92915050565b60006020828403121561059057600080fd5b600061059e84828501610569565b91505092915050565b6000806000606084860312156105bc57600080fd5b60006105ca86828701610569565b93505060206105db86828701610569565b92505060406105ec86828701610569565b9150509250925092565b60006106028383610738565b60208301905092915050565b600061061982610897565b61062381856108af565b935061062e83610887565b8060005b8381101561065f57815161064688826105f6565b9750610651836108a2565b925050600181019050610632565b5085935050505092915050565b61067581610927565b82525050565b61068c61068782610927565b6109ae565b82525050565b600061069f6019836108c0565b91507f416c6c206170706c6963616e7473206172652077696e6e6572000000000000006000830152602082019050919050565b60006106df602a836108c0565b91507f6e6f206170706c6963616e742e2063616e27742067656e65726174652072616e60008301527f646f6d204e756d626572000000000000000000000000000000000000000000006020830152604082019050919050565b61074181610931565b82525050565b61075081610931565b82525050565b61076761076282610931565b6109b8565b82525050565b60006107798286610756565b602082019150610789828561067b565b6020820191506107998284610756565b602082019150819050949350505050565b600060208201905081810360008301526107c4818461060e565b905092915050565b60006020820190506107e1600083018461066c565b92915050565b6000602082019050818103600083015261080081610692565b9050919050565b60006020820190508181036000830152610820816106d2565b9050919050565b600060208201905061083c6000830184610747565b92915050565b60006080820190506108576000830187610747565b6108646020830186610747565b610871604083018561066c565b61087e6060830184610747565b95945050505050565b6000819050602082019050919050565b600081519050919050565b6000602082019050919050565b600082825260208201905092915050565b600082825260208201905092915050565b60006108dc82610931565b91506108e783610931565b9250827fffffffffffffffffffffffffffffffffffffffffffffffffffffffffffffffff0382111561091c5761091b6109f3565b5b828201905092915050565b6000819050919050565b6000819050919050565b600061094682610931565b9150600082141561095a576109596109f3565b5b600182039050919050565b600061097082610931565b91507fffffffffffffffffffffffffffffffffffffffffffffffffffffffffffffffff8214156109a3576109a26109f3565b5b600182019050919050565b6000819050919050565b6000819050919050565b60006109cd82610931565b91506109d883610931565b9250826109e8576109e7610a22565b5b828206905092915050565b7f4e487b7100000000000000000000000000000000000000000000000000000000600052601160045260246000fd5b7f4e487b7100000000000000000000000000000000000000000000000000000000600052601260045260246000fd5b610a5a81610931565b8114610a6557600080fd5b5056fea26469706673582212209b156b5ce0267ae252c5920baa8c4aa8d734b1480b04bf8ca6e279f9d937734264736f6c63430008000033",
  "immutableReferences": {},
  "source": "// SPDX-License-Identifier: MIT\r\npragma solidity 0.8.0;\r\n\r\ncontract RandomNumber {\r\n\r\n    uint256[] public randNumList; //   \r\n\r\n    uint256 public curBlockNum;\r\n    uint256 public futureBlockNum;\r\n    bytes32 public futureBlockHash;\r\n    uint256 public curTimestamp;\r\n\r\n    //      \r\n    function inArray(uint256[] memory tempArray ,uint256 value) private returns(bool){\r\n        for (uint256 i = 0 ; i < tempArray.length ; i++) {\r\n            if(tempArray[i] == value) {\r\n                return true;\r\n            }\r\n        }\r\n        return false;\r\n    }\r\n\r\n    //  \r\n    function setBlockInfo() public{\r\n        curBlockNum = block.number;\r\n        futureBlockNum = curBlockNum + (curBlockNum % 5) + 1;\r\n        curTimestamp = block.timestamp;\r\n    }\r\n\r\n    //   \r\n    function generateRandNum(uint256 num, uint256 numOfApp, uint256 resultXOR) public returns(uint256[] memory){\r\n        if (numOfApp < 1) { //     \r\n            revert(\"no applicant. can't generate random Number\");\r\n        }\r\n        else if (numOfApp <= num) { //         \r\n            revert(\"All applicants are winner\");\r\n        }\r\n\r\n        //    \r\n        futureBlockHash = blockhash(futureBlockNum);\r\n        \r\n        uint256 cnt = 0;\r\n        // num   \r\n        for (uint256 i = 0; i < num; i++) {\r\n            //  \r\n            uint256 randNum = uint256(keccak256(abi.encodePacked(curTimestamp, futureBlockHash, resultXOR + cnt ))) % numOfApp;\r\n            //      x\r\n            if(inArray(randNumList,randNum)) {\r\n                i--;\r\n            }\r\n            else {\r\n                randNumList.push(randNum);\r\n            }\r\n            cnt++;\r\n        }\r\n\r\n        return randNumList;                   \r\n    }\r\n\r\n    //   \r\n    function optAll(uint256 num) public{\r\n        for(uint256 i = 0 ; i < num ; i++) {\r\n            randNumList.pop();\r\n        }\r\n\r\n        curBlockNum = 0;\r\n        futureBlockNum = 0;\r\n        futureBlockHash = 0;\r\n        curTimestamp = 0;\r\n    }\r\n\r\n    // \r\n\r\n    function getInfoo() public view returns(uint256, uint256, bytes32, uint256) {\r\n        return (curBlockNum, futureBlockNum, futureBlockHash, curTimestamp);\r\n    }\r\n}\r\n",
  "sourcePath": "C:\\Users\\HanaTI\\Desktop\\Project\\1Q-On-the-Block\\1Q-contract-ver3\\contracts\\RandomNumber.sol",
  "compiler": {
    "name": "solc",
    "version": "0.8.0+commit.c7dfd78e.Emscripten.clang"
  },
  "schemaVersion": "3.4.14",
  "updatedAt": "2023-09-11T08:40:38.794Z",
  "networkType": "ethereum",
  "devdoc": {
    "kind": "dev",
    "methods": {},
    "version": 1
  },
  "userdoc": {
    "kind": "user",
    "methods": {},
    "version": 1
  }
}