{
  "contractName": "TrophyToken",
  "abi": [
    {
      "inputs": [],
      "stateMutability": "nonpayable",
      "type": "constructor"
    },
    {
      "anonymous": false,
      "inputs": [
        {
          "indexed": true,
          "internalType": "address",
          "name": "owner",
          "type": "address"
        },
        {
          "indexed": true,
          "internalType": "address",
          "name": "approved",
          "type": "address"
        },
        {
          "indexed": true,
          "internalType": "uint256",
          "name": "tokenId",
          "type": "uint256"
        }
      ],
      "name": "Approval",
      "type": "event"
    },
    {
      "anonymous": false,
      "inputs": [
        {
          "indexed": true,
          "internalType": "address",
          "name": "owner",
          "type": "address"
        },
        {
          "indexed": true,
          "internalType": "address",
          "name": "operator",
          "type": "address"
        },
        {
          "indexed": false,
          "internalType": "bool",
          "name": "approved",
          "type": "bool"
        }
      ],
      "name": "ApprovalForAll",
      "type": "event"
    },
    {
      "anonymous": false,
      "inputs": [
        {
          "indexed": false,
          "internalType": "uint256",
          "name": "_fromTokenId",
          "type": "uint256"
        },
        {
          "indexed": false,
          "internalType": "uint256",
          "name": "_toTokenId",
          "type": "uint256"
        }
      ],
      "name": "BatchMetadataUpdate",
      "type": "event"
    },
    {
      "anonymous": false,
      "inputs": [
        {
          "indexed": false,
          "internalType": "uint256",
          "name": "_tokenId",
          "type": "uint256"
        }
      ],
      "name": "MetadataUpdate",
      "type": "event"
    },
    {
      "anonymous": false,
      "inputs": [
        {
          "indexed": true,
          "internalType": "address",
          "name": "from",
          "type": "address"
        },
        {
          "indexed": true,
          "internalType": "address",
          "name": "to",
          "type": "address"
        },
        {
          "indexed": true,
          "internalType": "uint256",
          "name": "tokenId",
          "type": "uint256"
        }
      ],
      "name": "Transfer",
      "type": "event"
    },
    {
      "inputs": [
        {
          "internalType": "address",
          "name": "to",
          "type": "address"
        },
        {
          "internalType": "uint256",
          "name": "tokenId",
          "type": "uint256"
        }
      ],
      "name": "approve",
      "outputs": [],
      "stateMutability": "nonpayable",
      "type": "function"
    },
    {
      "inputs": [
        {
          "internalType": "address",
          "name": "owner",
          "type": "address"
        }
      ],
      "name": "balanceOf",
      "outputs": [
        {
          "internalType": "uint256",
          "name": "",
          "type": "uint256"
        }
      ],
      "stateMutability": "view",
      "type": "function"
    },
    {
      "inputs": [
        {
          "internalType": "uint256",
          "name": "tokenId",
          "type": "uint256"
        }
      ],
      "name": "burn",
      "outputs": [],
      "stateMutability": "nonpayable",
      "type": "function"
    },
    {
      "inputs": [
        {
          "internalType": "uint256",
          "name": "tokenId",
          "type": "uint256"
        }
      ],
      "name": "getApproved",
      "outputs": [
        {
          "internalType": "address",
          "name": "",
          "type": "address"
        }
      ],
      "stateMutability": "view",
      "type": "function"
    },
    {
      "inputs": [
        {
          "internalType": "address",
          "name": "owner",
          "type": "address"
        },
        {
          "internalType": "address",
          "name": "operator",
          "type": "address"
        }
      ],
      "name": "isApprovedForAll",
      "outputs": [
        {
          "internalType": "bool",
          "name": "",
          "type": "bool"
        }
      ],
      "stateMutability": "view",
      "type": "function"
    },
    {
      "inputs": [],
      "name": "name",
      "outputs": [
        {
          "internalType": "string",
          "name": "",
          "type": "string"
        }
      ],
      "stateMutability": "view",
      "type": "function"
    },
    {
      "inputs": [
        {
          "internalType": "uint256",
          "name": "tokenId",
          "type": "uint256"
        }
      ],
      "name": "ownerOf",
      "outputs": [
        {
          "internalType": "address",
          "name": "",
          "type": "address"
        }
      ],
      "stateMutability": "view",
      "type": "function"
    },
    {
      "inputs": [
        {
          "internalType": "address",
          "name": "from",
          "type": "address"
        },
        {
          "internalType": "address",
          "name": "to",
          "type": "address"
        },
        {
          "internalType": "uint256",
          "name": "tokenId",
          "type": "uint256"
        }
      ],
      "name": "safeTransferFrom",
      "outputs": [],
      "stateMutability": "nonpayable",
      "type": "function"
    },
    {
      "inputs": [
        {
          "internalType": "address",
          "name": "from",
          "type": "address"
        },
        {
          "internalType": "address",
          "name": "to",
          "type": "address"
        },
        {
          "internalType": "uint256",
          "name": "tokenId",
          "type": "uint256"
        },
        {
          "internalType": "bytes",
          "name": "data",
          "type": "bytes"
        }
      ],
      "name": "safeTransferFrom",
      "outputs": [],
      "stateMutability": "nonpayable",
      "type": "function"
    },
    {
      "inputs": [
        {
          "internalType": "address",
          "name": "operator",
          "type": "address"
        },
        {
          "internalType": "bool",
          "name": "approved",
          "type": "bool"
        }
      ],
      "name": "setApprovalForAll",
      "outputs": [],
      "stateMutability": "nonpayable",
      "type": "function"
    },
    {
      "inputs": [],
      "name": "symbol",
      "outputs": [
        {
          "internalType": "string",
          "name": "",
          "type": "string"
        }
      ],
      "stateMutability": "view",
      "type": "function"
    },
    {
      "inputs": [
        {
          "internalType": "address",
          "name": "from",
          "type": "address"
        },
        {
          "internalType": "address",
          "name": "to",
          "type": "address"
        },
        {
          "internalType": "uint256",
          "name": "tokenId",
          "type": "uint256"
        }
      ],
      "name": "transferFrom",
      "outputs": [],
      "stateMutability": "nonpayable",
      "type": "function"
    },
    {
      "inputs": [
        {
          "internalType": "address",
          "name": "to",
          "type": "address"
        },
        {
          "internalType": "string",
          "name": "uri",
          "type": "string"
        }
      ],
      "name": "safeMint",
      "outputs": [],
      "stateMutability": "nonpayable",
      "type": "function"
    },
    {
      "inputs": [
        {
          "internalType": "uint256",
          "name": "tokenId",
          "type": "uint256"
        }
      ],
      "name": "tokenURI",
      "outputs": [
        {
          "internalType": "string",
          "name": "",
          "type": "string"
        }
      ],
      "stateMutability": "view",
      "type": "function"
    },
    {
      "inputs": [
        {
          "internalType": "bytes4",
          "name": "interfaceId",
          "type": "bytes4"
        }
      ],
      "name": "supportsInterface",
      "outputs": [
        {
          "internalType": "bool",
          "name": "",
          "type": "bool"
        }
      ],
      "stateMutability": "view",
      "type": "function"
    }
  ],
  "bytecode": "0x60806040523480156200001157600080fd5b506040518060400160405280600b81526020017f54726f706879546f6b656e0000000000000000000000000000000000000000008152506040518060400160405280600381526020017f54504b0000000000000000000000000000000000000000000000000000000000815250816000908051906020019062000096929190620000b8565b508060019080519060200190620000af929190620000b8565b505050620001cd565b828054620000c69062000168565b90600052602060002090601f016020900481019282620000ea576000855562000136565b82601f106200010557805160ff191683800117855562000136565b8280016001018555821562000136579182015b828111156200013557825182559160200191906001019062000118565b5b50905062000145919062000149565b5090565b5b80821115620001645760008160009055506001016200014a565b5090565b600060028204905060018216806200018157607f821691505b602082108114156200019857620001976200019e565b5b50919050565b7f4e487b7100000000000000000000000000000000000000000000000000000000600052602260045260246000fd5b612cd680620001dd6000396000f3fe608060405234801561001057600080fd5b50600436106100f55760003560e01c80636352211e11610097578063b88d4fde11610066578063b88d4fde14610282578063c87b56dd1461029e578063d204c45e146102ce578063e985e9c5146102ea576100f5565b80636352211e146101e857806370a082311461021857806395d89b4114610248578063a22cb46514610266576100f5565b8063095ea7b3116100d3578063095ea7b31461017857806323b872dd1461019457806342842e0e146101b057806342966c68146101cc576100f5565b806301ffc9a7146100fa57806306fdde031461012a578063081812fc14610148575b600080fd5b610114600480360381019061010f9190612184565b61031a565b60405161012191906124fe565b60405180910390f35b61013261032c565b60405161013f9190612519565b60405180910390f35b610162600480360381019061015d91906121d6565b6103be565b60405161016f9190612497565b60405180910390f35b610192600480360381019061018d9190612148565b610404565b005b6101ae60048036038101906101a99190611fee565b61051c565b005b6101ca60048036038101906101c59190611fee565b61057c565b005b6101e660048036038101906101e191906121d6565b61059c565b005b61020260048036038101906101fd91906121d6565b6105f8565b60405161020f9190612497565b60405180910390f35b610232600480360381019061022d9190611f89565b61067f565b60405161023f91906126bb565b60405180910390f35b610250610737565b60405161025d9190612519565b60405180910390f35b610280600480360381019061027b91906120b8565b6107c9565b005b61029c6004803603810190610297919061203d565b6107df565b005b6102b860048036038101906102b391906121d6565b610841565b6040516102c59190612519565b60405180910390f35b6102e860048036038101906102e391906120f4565b610853565b005b61030460048036038101906102ff9190611fb2565b610884565b60405161031191906124fe565b60405180910390f35b600061032582610918565b9050919050565b60606000805461033b90612856565b80601f016020809104026020016040519081016040528092919081815260200182805461036790612856565b80156103b45780601f10610389576101008083540402835291602001916103b4565b820191906000526020600020905b81548152906001019060200180831161039757829003601f168201915b5050505050905090565b60006103c982610979565b6004600083815260200190815260200160002060009054906101000a900473ffffffffffffffffffffffffffffffffffffffff169050919050565b600061040f826105f8565b90508073ffffffffffffffffffffffffffffffffffffffff168373ffffffffffffffffffffffffffffffffffffffff161415610480576040517f08c379a00000000000000000000000000000000000000000000000000000000081526004016104779061267b565b60405180910390fd5b8073ffffffffffffffffffffffffffffffffffffffff1661049f6109c4565b73ffffffffffffffffffffffffffffffffffffffff1614806104ce57506104cd816104c86109c4565b610884565b5b61050d576040517f08c379a00000000000000000000000000000000000000000000000000000000081526004016105049061269b565b60405180910390fd5b61051783836109cc565b505050565b61052d6105276109c4565b82610a85565b61056c576040517f08c379a00000000000000000000000000000000000000000000000000000000081526004016105639061253b565b60405180910390fd5b610577838383610b1a565b505050565b610597838383604051806020016040528060008152506107df565b505050565b6105ad6105a76109c4565b82610a85565b6105ec576040517f08c379a00000000000000000000000000000000000000000000000000000000081526004016105e39061253b565b60405180910390fd5b6105f581610e14565b50565b60008061060483610e20565b9050600073ffffffffffffffffffffffffffffffffffffffff168173ffffffffffffffffffffffffffffffffffffffff161415610676576040517f08c379a000000000000000000000000000000000000000000000000000000000815260040161066d9061265b565b60405180910390fd5b80915050919050565b60008073ffffffffffffffffffffffffffffffffffffffff168273ffffffffffffffffffffffffffffffffffffffff1614156106f0576040517f08c379a00000000000000000000000000000000000000000000000000000000081526004016106e7906125fb565b60405180910390fd5b600360008373ffffffffffffffffffffffffffffffffffffffff1673ffffffffffffffffffffffffffffffffffffffff168152602001908152602001600020549050919050565b60606001805461074690612856565b80601f016020809104026020016040519081016040528092919081815260200182805461077290612856565b80156107bf5780601f10610794576101008083540402835291602001916107bf565b820191906000526020600020905b8154815290600101906020018083116107a257829003601f168201915b5050505050905090565b6107db6107d46109c4565b8383610e5d565b5050565b6107f06107ea6109c4565b83610a85565b61082f576040517f08c379a00000000000000000000000000000000000000000000000000000000081526004016108269061253b565b60405180910390fd5b61083b84848484610fca565b50505050565b606061084c82611026565b9050919050565b600061085f6007611139565b905061086b6007611147565b610875838261115d565b61087f818361117b565b505050565b6000600560008473ffffffffffffffffffffffffffffffffffffffff1673ffffffffffffffffffffffffffffffffffffffff16815260200190815260200160002060008373ffffffffffffffffffffffffffffffffffffffff1673ffffffffffffffffffffffffffffffffffffffff16815260200190815260200160002060009054906101000a900460ff16905092915050565b6000634906490660e01b7bffffffffffffffffffffffffffffffffffffffffffffffffffffffff1916827bffffffffffffffffffffffffffffffffffffffffffffffffffffffff19161480610972575061097182611226565b5b9050919050565b61098281611308565b6109c1576040517f08c379a00000000000000000000000000000000000000000000000000000000081526004016109b89061265b565b60405180910390fd5b50565b600033905090565b816004600083815260200190815260200160002060006101000a81548173ffffffffffffffffffffffffffffffffffffffff021916908373ffffffffffffffffffffffffffffffffffffffff160217905550808273ffffffffffffffffffffffffffffffffffffffff16610a3f836105f8565b73ffffffffffffffffffffffffffffffffffffffff167f8c5be1e5ebec7d5bd14f71427d1e84f3dd0314c0f7b2291e5b200ac8c7c3b92560405160405180910390a45050565b600080610a91836105f8565b90508073ffffffffffffffffffffffffffffffffffffffff168473ffffffffffffffffffffffffffffffffffffffff161480610ad35750610ad28185610884565b5b80610b1157508373ffffffffffffffffffffffffffffffffffffffff16610af9846103be565b73ffffffffffffffffffffffffffffffffffffffff16145b91505092915050565b8273ffffffffffffffffffffffffffffffffffffffff16610b3a826105f8565b73ffffffffffffffffffffffffffffffffffffffff1614610b90576040517f08c379a0000000000000000000000000000000000000000000000000000000008152600401610b879061257b565b60405180910390fd5b600073ffffffffffffffffffffffffffffffffffffffff168273ffffffffffffffffffffffffffffffffffffffff161415610c00576040517f08c379a0000000000000000000000000000000000000000000000000000000008152600401610bf7906125bb565b60405180910390fd5b610c0d8383836001611349565b8273ffffffffffffffffffffffffffffffffffffffff16610c2d826105f8565b73ffffffffffffffffffffffffffffffffffffffff1614610c83576040517f08c379a0000000000000000000000000000000000000000000000000000000008152600401610c7a9061257b565b60405180910390fd5b6004600082815260200190815260200160002060006101000a81549073ffffffffffffffffffffffffffffffffffffffff02191690556001600360008573ffffffffffffffffffffffffffffffffffffffff1673ffffffffffffffffffffffffffffffffffffffff168152602001908152602001600020600082825403925050819055506001600360008473ffffffffffffffffffffffffffffffffffffffff1673ffffffffffffffffffffffffffffffffffffffff16815260200190815260200160002060008282540192505081905550816002600083815260200190815260200160002060006101000a81548173ffffffffffffffffffffffffffffffffffffffff021916908373ffffffffffffffffffffffffffffffffffffffff160217905550808273ffffffffffffffffffffffffffffffffffffffff168473ffffffffffffffffffffffffffffffffffffffff167fddf252ad1be2c89b69c2b068fc378daa952ba7f163c4a11628f55a4df523b3ef60405160405180910390a4610e0f838383600161134f565b505050565b610e1d81611355565b50565b60006002600083815260200190815260200160002060009054906101000a900473ffffffffffffffffffffffffffffffffffffffff169050919050565b8173ffffffffffffffffffffffffffffffffffffffff168373ffffffffffffffffffffffffffffffffffffffff161415610ecc576040517f08c379a0000000000000000000000000000000000000000000000000000000008152600401610ec3906125db565b60405180910390fd5b80600560008573ffffffffffffffffffffffffffffffffffffffff1673ffffffffffffffffffffffffffffffffffffffff16815260200190815260200160002060008473ffffffffffffffffffffffffffffffffffffffff1673ffffffffffffffffffffffffffffffffffffffff16815260200190815260200160002060006101000a81548160ff0219169083151502179055508173ffffffffffffffffffffffffffffffffffffffff168373ffffffffffffffffffffffffffffffffffffffff167f17307eab39ab6107e8899845ad3d59bd9653f200f220920489ca2b5937696c3183604051610fbd91906124fe565b60405180910390a3505050565b610fd5848484610b1a565b610fe1848484846113a8565b611020576040517f08c379a00000000000000000000000000000000000000000000000000000000081526004016110179061255b565b60405180910390fd5b50505050565b606061103182610979565b600060066000848152602001908152602001600020805461105190612856565b80601f016020809104026020016040519081016040528092919081815260200182805461107d90612856565b80156110ca5780601f1061109f576101008083540402835291602001916110ca565b820191906000526020600020905b8154815290600101906020018083116110ad57829003601f168201915b5050505050905060006110db61153f565b90506000815114156110f1578192505050611134565b60008251111561112657808260405160200161110e929190612473565b60405160208183030381529060405292505050611134565b61112f84611556565b925050505b919050565b600081600001549050919050565b6001816000016000828254019250508190555050565b6111778282604051806020016040528060008152506115be565b5050565b61118482611308565b6111c3576040517f08c379a00000000000000000000000000000000000000000000000000000000081526004016111ba9061261b565b60405180910390fd5b806006600084815260200190815260200160002090805190602001906111ea929190611d6d565b507ff8e1a15aba9398e019f0b49df1a4fde98ee17ae345cb5f6b5e2c27f5033e8ce78260405161121a91906126bb565b60405180910390a15050565b60007f80ac58cd000000000000000000000000000000000000000000000000000000007bffffffffffffffffffffffffffffffffffffffffffffffffffffffff1916827bffffffffffffffffffffffffffffffffffffffffffffffffffffffff191614806112f157507f5b5e139f000000000000000000000000000000000000000000000000000000007bffffffffffffffffffffffffffffffffffffffffffffffffffffffff1916827bffffffffffffffffffffffffffffffffffffffffffffffffffffffff1916145b80611301575061130082611619565b5b9050919050565b60008073ffffffffffffffffffffffffffffffffffffffff1661132a83610e20565b73ffffffffffffffffffffffffffffffffffffffff1614159050919050565b50505050565b50505050565b61135e81611683565b600060066000838152602001908152602001600020805461137e90612856565b9050146113a5576006600082815260200190815260200160002060006113a49190611df3565b5b50565b60006113c98473ffffffffffffffffffffffffffffffffffffffff166117d1565b15611532578373ffffffffffffffffffffffffffffffffffffffff1663150b7a026113f26109c4565b8786866040518563ffffffff1660e01b815260040161141494939291906124b2565b602060405180830381600087803b15801561142e57600080fd5b505af192505050801561145f57506040513d601f19601f8201168201806040525081019061145c91906121ad565b60015b6114e2573d806000811461148f576040519150601f19603f3d011682016040523d82523d6000602084013e611494565b606091505b506000815114156114da576040517f08c379a00000000000000000000000000000000000000000000000000000000081526004016114d19061255b565b60405180910390fd5b805181602001fd5b63150b7a0260e01b7bffffffffffffffffffffffffffffffffffffffffffffffffffffffff1916817bffffffffffffffffffffffffffffffffffffffffffffffffffffffff191614915050611537565b600190505b949350505050565b606060405180602001604052806000815250905090565b606061156182610979565b600061156b61153f565b9050600081511161158b57604051806020016040528060008152506115b6565b80611595846117f4565b6040516020016115a6929190612473565b6040516020818303038152906040525b915050919050565b6115c88383611918565b6115d560008484846113a8565b611614576040517f08c379a000000000000000000000000000000000000000000000000000000000815260040161160b9061255b565b60405180910390fd5b505050565b60007f01ffc9a7000000000000000000000000000000000000000000000000000000007bffffffffffffffffffffffffffffffffffffffffffffffffffffffff1916827bffffffffffffffffffffffffffffffffffffffffffffffffffffffff1916149050919050565b600061168e826105f8565b905061169e816000846001611349565b6116a7826105f8565b90506004600083815260200190815260200160002060006101000a81549073ffffffffffffffffffffffffffffffffffffffff02191690556001600360008373ffffffffffffffffffffffffffffffffffffffff1673ffffffffffffffffffffffffffffffffffffffff168152602001908152602001600020600082825403925050819055506002600083815260200190815260200160002060006101000a81549073ffffffffffffffffffffffffffffffffffffffff021916905581600073ffffffffffffffffffffffffffffffffffffffff168273ffffffffffffffffffffffffffffffffffffffff167fddf252ad1be2c89b69c2b068fc378daa952ba7f163c4a11628f55a4df523b3ef60405160405180910390a46117cd81600084600161134f565b5050565b6000808273ffffffffffffffffffffffffffffffffffffffff163b119050919050565b60606000600161180384611b36565b01905060008167ffffffffffffffff811115611848577f4e487b7100000000000000000000000000000000000000000000000000000000600052604160045260246000fd5b6040519080825280601f01601f19166020018201604052801561187a5781602001600182028036833780820191505090505b509050600082602001820190505b60011561190d578080600190039150507f3031323334353637383961626364656600000000000000000000000000000000600a86061a8153600a85816118f7577f4e487b7100000000000000000000000000000000000000000000000000000000600052601260045260246000fd5b04945060008514156119085761190d565b611888565b819350505050919050565b600073ffffffffffffffffffffffffffffffffffffffff168273ffffffffffffffffffffffffffffffffffffffff161415611988576040517f08c379a000000000000000000000000000000000000000000000000000000000815260040161197f9061263b565b60405180910390fd5b61199181611308565b156119d1576040517f08c379a00000000000000000000000000000000000000000000000000000000081526004016119c89061259b565b60405180910390fd5b6119df600083836001611349565b6119e881611308565b15611a28576040517f08c379a0000000000000000000000000000000000000000000000000000000008152600401611a1f9061259b565b60405180910390fd5b6001600360008473ffffffffffffffffffffffffffffffffffffffff1673ffffffffffffffffffffffffffffffffffffffff16815260200190815260200160002060008282540192505081905550816002600083815260200190815260200160002060006101000a81548173ffffffffffffffffffffffffffffffffffffffff021916908373ffffffffffffffffffffffffffffffffffffffff160217905550808273ffffffffffffffffffffffffffffffffffffffff16600073ffffffffffffffffffffffffffffffffffffffff167fddf252ad1be2c89b69c2b068fc378daa952ba7f163c4a11628f55a4df523b3ef60405160405180910390a4611b3260008383600161134f565b5050565b600080600090507a184f03e93ff9f4daa797ed6e38ed64bf6a1f0100000000000000008310611bba577a184f03e93ff9f4daa797ed6e38ed64bf6a1f0100000000000000008381611bb0577f4e487b7100000000000000000000000000000000000000000000000000000000600052601260045260246000fd5b0492506040810190505b6d04ee2d6d415b85acef81000000008310611c1d576d04ee2d6d415b85acef81000000008381611c13577f4e487b7100000000000000000000000000000000000000000000000000000000600052601260045260246000fd5b0492506020810190505b662386f26fc100008310611c7257662386f26fc100008381611c68577f4e487b7100000000000000000000000000000000000000000000000000000000600052601260045260246000fd5b0492506010810190505b6305f5e1008310611cc1576305f5e1008381611cb7577f4e487b7100000000000000000000000000000000000000000000000000000000600052601260045260246000fd5b0492506008810190505b6127108310611d0c576127108381611d02577f4e487b7100000000000000000000000000000000000000000000000000000000600052601260045260246000fd5b0492506004810190505b60648310611d555760648381611d4b577f4e487b7100000000000000000000000000000000000000000000000000000000600052601260045260246000fd5b0492506002810190505b600a8310611d64576001810190505b80915050919050565b828054611d7990612856565b90600052602060002090601f016020900481019282611d9b5760008555611de2565b82601f10611db457805160ff1916838001178555611de2565b82800160010185558215611de2579182015b82811115611de1578251825591602001919060010190611dc6565b5b509050611def9190611e33565b5090565b508054611dff90612856565b6000825580601f10611e115750611e30565b601f016020900490600052602060002090810190611e2f9190611e33565b5b50565b5b80821115611e4c576000816000905550600101611e34565b5090565b6000611e63611e5e846126fb565b6126d6565b905082815260208101848484011115611e7b57600080fd5b611e86848285612814565b509392505050565b6000611ea1611e9c8461272c565b6126d6565b905082815260208101848484011115611eb957600080fd5b611ec4848285612814565b509392505050565b600081359050611edb81612c44565b92915050565b600081359050611ef081612c5b565b92915050565b600081359050611f0581612c72565b92915050565b600081519050611f1a81612c72565b92915050565b600082601f830112611f3157600080fd5b8135611f41848260208601611e50565b91505092915050565b600082601f830112611f5b57600080fd5b8135611f6b848260208601611e8e565b91505092915050565b600081359050611f8381612c89565b92915050565b600060208284031215611f9b57600080fd5b6000611fa984828501611ecc565b91505092915050565b60008060408385031215611fc557600080fd5b6000611fd385828601611ecc565b9250506020611fe485828601611ecc565b9150509250929050565b60008060006060848603121561200357600080fd5b600061201186828701611ecc565b935050602061202286828701611ecc565b925050604061203386828701611f74565b9150509250925092565b6000806000806080858703121561205357600080fd5b600061206187828801611ecc565b945050602061207287828801611ecc565b935050604061208387828801611f74565b925050606085013567ffffffffffffffff8111156120a057600080fd5b6120ac87828801611f20565b91505092959194509250565b600080604083850312156120cb57600080fd5b60006120d985828601611ecc565b92505060206120ea85828601611ee1565b9150509250929050565b6000806040838503121561210757600080fd5b600061211585828601611ecc565b925050602083013567ffffffffffffffff81111561213257600080fd5b61213e85828601611f4a565b9150509250929050565b6000806040838503121561215b57600080fd5b600061216985828601611ecc565b925050602061217a85828601611f74565b9150509250929050565b60006020828403121561219657600080fd5b60006121a484828501611ef6565b91505092915050565b6000602082840312156121bf57600080fd5b60006121cd84828501611f0b565b91505092915050565b6000602082840312156121e857600080fd5b60006121f684828501611f74565b91505092915050565b612208816127a0565b82525050565b612217816127b2565b82525050565b60006122288261275d565b6122328185612773565b9350612242818560208601612823565b61224b81612917565b840191505092915050565b600061226182612768565b61226b8185612784565b935061227b818560208601612823565b61228481612917565b840191505092915050565b600061229a82612768565b6122a48185612795565b93506122b4818560208601612823565b80840191505092915050565b60006122cd602d83612784565b91506122d882612928565b604082019050919050565b60006122f0603283612784565b91506122fb82612977565b604082019050919050565b6000612313602583612784565b915061231e826129c6565b604082019050919050565b6000612336601c83612784565b915061234182612a15565b602082019050919050565b6000612359602483612784565b915061236482612a3e565b604082019050919050565b600061237c601983612784565b915061238782612a8d565b602082019050919050565b600061239f602983612784565b91506123aa82612ab6565b604082019050919050565b60006123c2602e83612784565b91506123cd82612b05565b604082019050919050565b60006123e5602083612784565b91506123f082612b54565b602082019050919050565b6000612408601883612784565b915061241382612b7d565b602082019050919050565b600061242b602183612784565b915061243682612ba6565b604082019050919050565b600061244e603d83612784565b915061245982612bf5565b604082019050919050565b61246d8161280a565b82525050565b600061247f828561228f565b915061248b828461228f565b91508190509392505050565b60006020820190506124ac60008301846121ff565b92915050565b60006080820190506124c760008301876121ff565b6124d460208301866121ff565b6124e16040830185612464565b81810360608301526124f3818461221d565b905095945050505050565b6000602082019050612513600083018461220e565b92915050565b600060208201905081810360008301526125338184612256565b905092915050565b60006020820190508181036000830152612554816122c0565b9050919050565b60006020820190508181036000830152612574816122e3565b9050919050565b6000602082019050818103600083015261259481612306565b9050919050565b600060208201905081810360008301526125b481612329565b9050919050565b600060208201905081810360008301526125d48161234c565b9050919050565b600060208201905081810360008301526125f48161236f565b9050919050565b6000602082019050818103600083015261261481612392565b9050919050565b60006020820190508181036000830152612634816123b5565b9050919050565b60006020820190508181036000830152612654816123d8565b9050919050565b60006020820190508181036000830152612674816123fb565b9050919050565b600060208201905081810360008301526126948161241e565b9050919050565b600060208201905081810360008301526126b481612441565b9050919050565b60006020820190506126d06000830184612464565b92915050565b60006126e06126f1565b90506126ec8282612888565b919050565b6000604051905090565b600067ffffffffffffffff821115612716576127156128e8565b5b61271f82612917565b9050602081019050919050565b600067ffffffffffffffff821115612747576127466128e8565b5b61275082612917565b9050602081019050919050565b600081519050919050565b600081519050919050565b600082825260208201905092915050565b600082825260208201905092915050565b600081905092915050565b60006127ab826127ea565b9050919050565b60008115159050919050565b60007fffffffff0000000000000000000000000000000000000000000000000000000082169050919050565b600073ffffffffffffffffffffffffffffffffffffffff82169050919050565b6000819050919050565b82818337600083830152505050565b60005b83811015612841578082015181840152602081019050612826565b83811115612850576000848401525b50505050565b6000600282049050600182168061286e57607f821691505b60208210811415612882576128816128b9565b5b50919050565b61289182612917565b810181811067ffffffffffffffff821117156128b0576128af6128e8565b5b80604052505050565b7f4e487b7100000000000000000000000000000000000000000000000000000000600052602260045260246000fd5b7f4e487b7100000000000000000000000000000000000000000000000000000000600052604160045260246000fd5b6000601f19601f8301169050919050565b7f4552433732313a2063616c6c6572206973206e6f7420746f6b656e206f776e6560008201527f72206f7220617070726f76656400000000000000000000000000000000000000602082015250565b7f4552433732313a207472616e7366657220746f206e6f6e20455243373231526560008201527f63656976657220696d706c656d656e7465720000000000000000000000000000602082015250565b7f4552433732313a207472616e736665722066726f6d20696e636f72726563742060008201527f6f776e6572000000000000000000000000000000000000000000000000000000602082015250565b7f4552433732313a20746f6b656e20616c7265616479206d696e74656400000000600082015250565b7f4552433732313a207472616e7366657220746f20746865207a65726f2061646460008201527f7265737300000000000000000000000000000000000000000000000000000000602082015250565b7f4552433732313a20617070726f766520746f2063616c6c657200000000000000600082015250565b7f4552433732313a2061646472657373207a65726f206973206e6f74206120766160008201527f6c6964206f776e65720000000000000000000000000000000000000000000000602082015250565b7f45524337323155524953746f726167653a2055524920736574206f66206e6f6e60008201527f6578697374656e7420746f6b656e000000000000000000000000000000000000602082015250565b7f4552433732313a206d696e7420746f20746865207a65726f2061646472657373600082015250565b7f4552433732313a20696e76616c696420746f6b656e2049440000000000000000600082015250565b7f4552433732313a20617070726f76616c20746f2063757272656e74206f776e6560008201527f7200000000000000000000000000000000000000000000000000000000000000602082015250565b7f4552433732313a20617070726f76652063616c6c6572206973206e6f7420746f60008201527f6b656e206f776e6572206f7220617070726f76656420666f7220616c6c000000602082015250565b612c4d816127a0565b8114612c5857600080fd5b50565b612c64816127b2565b8114612c6f57600080fd5b50565b612c7b816127be565b8114612c8657600080fd5b50565b612c928161280a565b8114612c9d57600080fd5b5056fea26469706673582212203b40d359d038b5ec7fe85145c0bd40c4f8b028f939a31a4a00de959fe31042b164736f6c63430008010033",
  "immutableReferences": {},
  "source": "// SPDX-License-Identifier: MIT\r\npragma solidity 0.8.1;\r\n\r\nimport \"@openzeppelin/contracts/token/ERC721/ERC721.sol\";\r\nimport \"@openzeppelin/contracts/token/ERC721/extensions/ERC721URIStorage.sol\";\r\nimport \"@openzeppelin/contracts/token/ERC721/extensions/ERC721Burnable.sol\";\r\nimport \"@openzeppelin/contracts/access/Ownable.sol\";\r\nimport \"@openzeppelin/contracts/utils/Counters.sol\";\r\n\r\ncontract TrophyToken is ERC721, ERC721URIStorage, ERC721Burnable {\r\n    using Counters for Counters.Counter;\r\n\r\n    Counters.Counter private _tokenIdCounter;\r\n\r\n    constructor() ERC721(\"TrophyToken\", \"TPK\") {\r\n        // transferOwnership(msg.sender);\r\n    }\r\n\r\n    function safeMint(address to, string memory uri) public{\r\n        uint256 tokenId = _tokenIdCounter.current();\r\n        _tokenIdCounter.increment();\r\n        _safeMint(to, tokenId);\r\n        _setTokenURI(tokenId, uri);\r\n\r\n    }\r\n\r\n    // The following functions are overrides required by Solidity.\r\n\r\n    function _burn(uint256 tokenId) internal override(ERC721, ERC721URIStorage) {\r\n        super._burn(tokenId);\r\n    }\r\n\r\n    function tokenURI(uint256 tokenId)\r\n        public\r\n        view\r\n        override(ERC721, ERC721URIStorage)\r\n        returns (string memory)\r\n    {\r\n        return super.tokenURI(tokenId);\r\n    }\r\n\r\n    function supportsInterface(bytes4 interfaceId)\r\n        public\r\n        view\r\n        override(ERC721, ERC721URIStorage)\r\n        returns (bool)\r\n    {\r\n        return super.supportsInterface(interfaceId);\r\n    }\r\n}",
  "sourcePath": "C:\\Users\\HanaTI\\Desktop\\Project\\1Q-On-the-Block\\1Q-contract-ver3\\contracts\\TrophyToken.sol",
  "compiler": {
    "name": "solc",
    "version": "0.8.1+commit.df193b15.Emscripten.clang"
  },
  "schemaVersion": "3.4.14",
  "updatedAt": "2023-09-12T09:03:37.112Z",
  "devdoc": {
    "kind": "dev",
    "methods": {
      "approve(address,uint256)": {
        "details": "See {IERC721-approve}."
      },
      "balanceOf(address)": {
        "details": "See {IERC721-balanceOf}."
      },
      "burn(uint256)": {
        "details": "Burns `tokenId`. See {ERC721-_burn}. Requirements: - The caller must own `tokenId` or be an approved operator."
      },
      "getApproved(uint256)": {
        "details": "See {IERC721-getApproved}."
      },
      "isApprovedForAll(address,address)": {
        "details": "See {IERC721-isApprovedForAll}."
      },
      "name()": {
        "details": "See {IERC721Metadata-name}."
      },
      "ownerOf(uint256)": {
        "details": "See {IERC721-ownerOf}."
      },
      "safeTransferFrom(address,address,uint256)": {
        "details": "See {IERC721-safeTransferFrom}."
      },
      "safeTransferFrom(address,address,uint256,bytes)": {
        "details": "See {IERC721-safeTransferFrom}."
      },
      "setApprovalForAll(address,bool)": {
        "details": "See {IERC721-setApprovalForAll}."
      },
      "symbol()": {
        "details": "See {IERC721Metadata-symbol}."
      },
      "transferFrom(address,address,uint256)": {
        "details": "See {IERC721-transferFrom}."
      }
    },
    "version": 1
  },
  "userdoc": {
    "kind": "user",
    "methods": {},
    "version": 1
  }
}